{
  "contractName": "UUNFT",
  "abi": [
    {
      "inputs": [],
      "stateMutability": "payable",
      "type": "constructor"
    },
    {
      "anonymous": false,
      "inputs": [
        {
          "indexed": true,
          "internalType": "address",
          "name": "owner",
          "type": "address"
        },
        {
          "indexed": true,
          "internalType": "address",
          "name": "approved",
          "type": "address"
        },
        {
          "indexed": true,
          "internalType": "uint256",
          "name": "tokenId",
          "type": "uint256"
        }
      ],
      "name": "Approval",
      "type": "event"
    },
    {
      "anonymous": false,
      "inputs": [
        {
          "indexed": true,
          "internalType": "address",
          "name": "owner",
          "type": "address"
        },
        {
          "indexed": true,
          "internalType": "address",
          "name": "operator",
          "type": "address"
        },
        {
          "indexed": false,
          "internalType": "bool",
          "name": "approved",
          "type": "bool"
        }
      ],
      "name": "ApprovalForAll",
      "type": "event"
    },
    {
      "anonymous": false,
      "inputs": [
        {
          "indexed": true,
          "internalType": "address",
          "name": "from",
          "type": "address"
        },
        {
          "indexed": true,
          "internalType": "address",
          "name": "to",
          "type": "address"
        },
        {
          "indexed": true,
          "internalType": "uint256",
          "name": "tokenId",
          "type": "uint256"
        }
      ],
      "name": "Transfer",
      "type": "event"
    },
    {
      "anonymous": false,
      "inputs": [
        {
          "indexed": false,
          "internalType": "string",
          "name": "message",
          "type": "string"
        }
      ],
      "name": "hasStaked",
      "type": "event"
    },
    {
      "anonymous": false,
      "inputs": [
        {
          "indexed": false,
          "internalType": "string",
          "name": "message",
          "type": "string"
        }
      ],
      "name": "hasUnStaked",
      "type": "event"
    },
    {
      "anonymous": false,
      "inputs": [
        {
          "indexed": false,
          "internalType": "string",
          "name": "message",
          "type": "string"
        }
      ],
      "name": "hasUpgraded",
      "type": "event"
    },
    {
      "anonymous": false,
      "inputs": [
        {
          "indexed": false,
          "internalType": "string",
          "name": "message",
          "type": "string"
        }
      ],
      "name": "isMutabale",
      "type": "event"
    },
    {
      "anonymous": false,
      "inputs": [
        {
          "indexed": false,
          "internalType": "string",
          "name": "message",
          "type": "string"
        }
      ],
      "name": "isUpgradable",
      "type": "event"
    },
    {
      "anonymous": false,
      "inputs": [
        {
          "indexed": false,
          "internalType": "string",
          "name": "message",
          "type": "string"
        }
      ],
      "name": "moneyHasBeenAccepted",
      "type": "event"
    },
    {
      "stateMutability": "payable",
      "type": "fallback"
    },
    {
      "inputs": [
        {
          "internalType": "address",
          "name": "to",
          "type": "address"
        },
        {
          "internalType": "uint256",
          "name": "tokenId",
          "type": "uint256"
        }
      ],
      "name": "approve",
      "outputs": [],
      "stateMutability": "nonpayable",
      "type": "function"
    },
    {
      "inputs": [
        {
          "internalType": "address",
          "name": "owner",
          "type": "address"
        }
      ],
      "name": "balanceOf",
      "outputs": [
        {
          "internalType": "uint256",
          "name": "",
          "type": "uint256"
        }
      ],
      "stateMutability": "view",
      "type": "function"
    },
    {
      "inputs": [
        {
          "internalType": "uint256",
          "name": "tokenId",
          "type": "uint256"
        }
      ],
      "name": "getApproved",
      "outputs": [
        {
          "internalType": "address",
          "name": "",
          "type": "address"
        }
      ],
      "stateMutability": "view",
      "type": "function"
    },
    {
      "inputs": [
        {
          "internalType": "address",
          "name": "owner",
          "type": "address"
        },
        {
          "internalType": "address",
          "name": "operator",
          "type": "address"
        }
      ],
      "name": "isApprovedForAll",
      "outputs": [
        {
          "internalType": "bool",
          "name": "",
          "type": "bool"
        }
      ],
      "stateMutability": "view",
      "type": "function"
    },
    {
      "inputs": [
        {
          "internalType": "address",
          "name": "",
          "type": "address"
        }
      ],
      "name": "lockedVaultTokens",
      "outputs": [
        {
          "internalType": "enum UUNFT.TokenVault",
          "name": "",
          "type": "uint8"
        }
      ],
      "stateMutability": "view",
      "type": "function"
    },
    {
      "inputs": [],
      "name": "manager",
      "outputs": [
        {
          "internalType": "address",
          "name": "",
          "type": "address"
        }
      ],
      "stateMutability": "view",
      "type": "function"
    },
    {
      "inputs": [],
      "name": "name",
      "outputs": [
        {
          "internalType": "string",
          "name": "",
          "type": "string"
        }
      ],
      "stateMutability": "view",
      "type": "function"
    },
    {
      "inputs": [
        {
          "internalType": "uint256",
          "name": "tokenId",
          "type": "uint256"
        }
      ],
      "name": "ownerOf",
      "outputs": [
        {
          "internalType": "address",
          "name": "",
          "type": "address"
        }
      ],
      "stateMutability": "view",
      "type": "function"
    },
    {
      "inputs": [
        {
          "internalType": "address",
          "name": "from",
          "type": "address"
        },
        {
          "internalType": "address",
          "name": "to",
          "type": "address"
        },
        {
          "internalType": "uint256",
          "name": "tokenId",
          "type": "uint256"
        }
      ],
      "name": "safeTransferFrom",
      "outputs": [],
      "stateMutability": "nonpayable",
      "type": "function"
    },
    {
      "inputs": [
        {
          "internalType": "address",
          "name": "from",
          "type": "address"
        },
        {
          "internalType": "address",
          "name": "to",
          "type": "address"
        },
        {
          "internalType": "uint256",
          "name": "tokenId",
          "type": "uint256"
        },
        {
          "internalType": "bytes",
          "name": "_data",
          "type": "bytes"
        }
      ],
      "name": "safeTransferFrom",
      "outputs": [],
      "stateMutability": "nonpayable",
      "type": "function"
    },
    {
      "inputs": [
        {
          "internalType": "address",
          "name": "operator",
          "type": "address"
        },
        {
          "internalType": "bool",
          "name": "approved",
          "type": "bool"
        }
      ],
      "name": "setApprovalForAll",
      "outputs": [],
      "stateMutability": "nonpayable",
      "type": "function"
    },
    {
      "inputs": [
        {
          "internalType": "bytes4",
          "name": "interfaceId",
          "type": "bytes4"
        }
      ],
      "name": "supportsInterface",
      "outputs": [
        {
          "internalType": "bool",
          "name": "",
          "type": "bool"
        }
      ],
      "stateMutability": "view",
      "type": "function"
    },
    {
      "inputs": [],
      "name": "symbol",
      "outputs": [
        {
          "internalType": "string",
          "name": "",
          "type": "string"
        }
      ],
      "stateMutability": "view",
      "type": "function"
    },
    {
      "inputs": [
        {
          "internalType": "address",
          "name": "",
          "type": "address"
        },
        {
          "internalType": "uint256",
          "name": "",
          "type": "uint256"
        }
      ],
      "name": "tokenOwners",
      "outputs": [
        {
          "internalType": "uint256",
          "name": "",
          "type": "uint256"
        }
      ],
      "stateMutability": "view",
      "type": "function"
    },
    {
      "inputs": [
        {
          "internalType": "uint256",
          "name": "tokenId",
          "type": "uint256"
        }
      ],
      "name": "tokenURI",
      "outputs": [
        {
          "internalType": "string",
          "name": "",
          "type": "string"
        }
      ],
      "stateMutability": "view",
      "type": "function"
    },
    {
      "inputs": [
        {
          "internalType": "uint256",
          "name": "",
          "type": "uint256"
        }
      ],
      "name": "tokens",
      "outputs": [
        {
          "internalType": "uint256",
          "name": "id",
          "type": "uint256"
        },
        {
          "internalType": "uint256",
          "name": "timestamp",
          "type": "uint256"
        },
        {
          "internalType": "address",
          "name": "owner",
          "type": "address"
        },
        {
          "internalType": "enum UUNFT.TokenLevel",
          "name": "tokenLevel",
          "type": "uint8"
        },
        {
          "internalType": "enum UUNFT.TokenType",
          "name": "tokenType",
          "type": "uint8"
        }
      ],
      "stateMutability": "view",
      "type": "function"
    },
    {
      "inputs": [
        {
          "internalType": "address",
          "name": "from",
          "type": "address"
        },
        {
          "internalType": "address",
          "name": "to",
          "type": "address"
        },
        {
          "internalType": "uint256",
          "name": "tokenId",
          "type": "uint256"
        }
      ],
      "name": "transferFrom",
      "outputs": [],
      "stateMutability": "nonpayable",
      "type": "function"
    },
    {
      "stateMutability": "payable",
      "type": "receive"
    },
    {
      "inputs": [
        {
          "internalType": "enum UUNFT.TokenType",
          "name": "_tokenType",
          "type": "uint8"
        }
      ],
      "name": "getMaxLevelOfATokenType",
      "outputs": [],
      "stateMutability": "view",
      "type": "function"
    },
    {
      "inputs": [
        {
          "internalType": "uint256",
          "name": "_tokenId",
          "type": "uint256"
        }
      ],
      "name": "getTokenData",
      "outputs": [
        {
          "components": [
            {
              "internalType": "uint256",
              "name": "id",
              "type": "uint256"
            },
            {
              "internalType": "uint256",
              "name": "timestamp",
              "type": "uint256"
            },
            {
              "internalType": "address",
              "name": "owner",
              "type": "address"
            },
            {
              "internalType": "enum UUNFT.TokenLevel",
              "name": "tokenLevel",
              "type": "uint8"
            },
            {
              "internalType": "enum UUNFT.TokenType",
              "name": "tokenType",
              "type": "uint8"
            }
          ],
          "internalType": "struct UUNFT.TokenMetaData",
          "name": "",
          "type": "tuple"
        }
      ],
      "stateMutability": "view",
      "type": "function"
    },
    {
      "inputs": [
        {
          "internalType": "address",
          "name": "_owner",
          "type": "address"
        }
      ],
      "name": "getTokensOfAnOwner",
      "outputs": [
        {
          "internalType": "uint256[4]",
          "name": "",
          "type": "uint256[4]"
        }
      ],
      "stateMutability": "view",
      "type": "function"
    },
    {
      "inputs": [
        {
          "internalType": "enum UUNFT.TokenType",
          "name": "_tokenType",
          "type": "uint8"
        }
      ],
      "name": "CreateToken",
      "outputs": [],
      "stateMutability": "payable",
      "type": "function"
    },
    {
      "inputs": [
        {
          "internalType": "uint256",
          "name": "_tokenToBeUpgradedId",
          "type": "uint256"
        },
        {
          "internalType": "uint256",
          "name": "_tokenToBeSacrificedId",
          "type": "uint256"
        }
      ],
      "name": "upgradeToken",
      "outputs": [],
      "stateMutability": "nonpayable",
      "type": "function"
    },
    {
      "inputs": [
        {
          "internalType": "uint256",
          "name": "_tokenToBeBurnedId",
          "type": "uint256"
        }
      ],
      "name": "removeTokenById",
      "outputs": [],
      "stateMutability": "nonpayable",
      "type": "function"
    },
    {
      "inputs": [
        {
          "internalType": "uint256",
          "name": "_tokenToBeUpgradedId",
          "type": "uint256"
        },
        {
          "internalType": "uint256",
          "name": "_tokenToBeSacrificedId",
          "type": "uint256"
        },
        {
          "internalType": "enum UUNFT.TokenType",
          "name": "_designatedType",
          "type": "uint8"
        }
      ],
      "name": "mutateToken",
      "outputs": [],
      "stateMutability": "nonpayable",
      "type": "function"
    },
    {
      "inputs": [
        {
          "internalType": "address",
          "name": "_winner",
          "type": "address"
        }
      ],
      "name": "giveWinnerProfit",
      "outputs": [],
      "stateMutability": "payable",
      "type": "function"
    },
    {
      "inputs": [
        {
          "internalType": "uint256",
          "name": "_tokenToBeDisasabledId",
          "type": "uint256"
        }
      ],
      "name": "Disasamble",
      "outputs": [],
      "stateMutability": "nonpayable",
      "type": "function"
    },
    {
      "inputs": [
        {
          "internalType": "uint256",
          "name": "_tokenToBeDownGraded",
          "type": "uint256"
        }
      ],
      "name": "downgrade",
      "outputs": [],
      "stateMutability": "nonpayable",
      "type": "function"
    },
    {
      "inputs": [
        {
          "internalType": "uint256",
          "name": "_tokenToBeUpdatedId",
          "type": "uint256"
        }
      ],
      "name": "updateToMax",
      "outputs": [],
      "stateMutability": "payable",
      "type": "function"
    },
    {
      "inputs": [
        {
          "internalType": "enum UUNFT.TokenVault",
          "name": "_tokenVault",
          "type": "uint8"
        }
      ],
      "name": "Stake",
      "outputs": [],
      "stateMutability": "nonpayable",
      "type": "function"
    },
    {
      "inputs": [
        {
          "internalType": "enum UUNFT.TokenVault",
          "name": "_currentTokenVault",
          "type": "uint8"
        }
      ],
      "name": "unStake",
      "outputs": [],
      "stateMutability": "nonpayable",
      "type": "function"
    },
    {
      "inputs": [],
      "name": "checkIfTokensAreStaked",
      "outputs": [
        {
          "internalType": "bool",
          "name": "",
          "type": "bool"
        }
      ],
      "stateMutability": "view",
      "type": "function"
    }
  ],
  "bytecode": "0x60806040526001600660146101000a81548167ffffffffffffffff021916908367ffffffffffffffff1602179055506040518060400160405280600d81526020017f55706772616461626c654e4654000000000000000000000000000000000000008152506040518060400160405280600581526020017f55554e46540000000000000000000000000000000000000000000000000000008152508160009080519060200190620000b292919062000115565b508060019080519060200190620000cb92919062000115565b50505033600660006101000a81548173ffffffffffffffffffffffffffffffffffffffff021916908373ffffffffffffffffffffffffffffffffffffffff1602179055506200022a565b8280546200012390620001c5565b90600052602060002090601f01602090048101928262000147576000855562000193565b82601f106200016257805160ff191683800117855562000193565b8280016001018555821562000193579182015b828111156200019257825182559160200191906001019062000175565b5b509050620001a29190620001a6565b5090565b5b80821115620001c1576000816000905550600101620001a7565b5090565b60006002820490506001821680620001de57607f821691505b60208210811415620001f557620001f4620001fb565b5b50919050565b7f4e487b7100000000000000000000000000000000000000000000000000000000600052602260045260246000fd5b614e34806200023a6000396000f3fe6080604052600436106101dc5760003560e01c806370a0823111610102578063b09afec111610095578063caf312b511610064578063caf312b5146106f0578063d010c3f51461071b578063e8c00e3914610737578063e985e9c514610760576101e3565b8063b09afec114610610578063b88d4fde1461064d578063bc9d3b3b14610676578063c87b56dd146106b3576101e3565b80638b5e51d2116100d15780638b5e51d21461056357806395d89b41146105a05780639b542511146105cb578063a22cb465146105e7576101e3565b806370a08231146104ab5780637229545e146104e8578063734fada8146105115780637b6538021461053a576101e3565b80633cce43301161017a578063481c6a7511610149578063481c6a75146103e65780634f64b2be1461041157806354b5ae3a146104525780636352211e1461046e576101e3565b80633cce43301461032e578063420b25681461035757806342842e0e14610380578063449c79c9146103a9576101e3565b8063081812fc116101b6578063081812fc14610276578063095ea7b3146102b357806311bcc81e146102dc57806323b872dd14610305576101e3565b806301ffc9a7146101e557806306fdde031461022257806307fcedd71461024d576101e3565b366101e357005b005b3480156101f157600080fd5b5061020c60048036038101906102079190613763565b61079d565b6040516102199190614443565b60405180910390f35b34801561022e57600080fd5b5061023761087f565b6040516102449190614479565b60405180910390f35b34801561025957600080fd5b50610274600480360381019061026f91906137b5565b610911565b005b34801561028257600080fd5b5061029d60048036038101906102989190613807565b610a06565b6040516102aa91906143c1565b60405180910390f35b3480156102bf57600080fd5b506102da60048036038101906102d59190613727565b610a8b565b005b3480156102e857600080fd5b5061030360048036038101906102fe9190613807565b610ba3565b005b34801561031157600080fd5b5061032c60048036038101906103279190613621565b610e24565b005b34801561033a57600080fd5b5061035560048036038101906103509190613807565b610e84565b005b34801561036357600080fd5b5061037e60048036038101906103799190613807565b611177565b005b34801561038c57600080fd5b506103a760048036038101906103a29190613621565b611227565b005b3480156103b557600080fd5b506103d060048036038101906103cb91906135bc565b611247565b6040516103dd9190614428565b60405180910390f35b3480156103f257600080fd5b506103fb6112d1565b60405161040891906143c1565b60405180910390f35b34801561041d57600080fd5b5061043860048036038101906104339190613807565b6112f7565b6040516104499594939291906147d1565b60405180910390f35b61046c600480360381019061046791906137b5565b611367565b005b34801561047a57600080fd5b5061049560048036038101906104909190613807565b6116e4565b6040516104a291906143c1565b60405180910390f35b3480156104b757600080fd5b506104d260048036038101906104cd91906135bc565b611796565b6040516104df91906147b6565b60405180910390f35b3480156104f457600080fd5b5061050f600480360381019061050a9190613830565b61184e565b005b34801561051d57600080fd5b506105386004803603810190610533919061386c565b611b31565b005b34801561054657600080fd5b50610561600480360381019061055c91906137de565b611f56565b005b34801561056f57600080fd5b5061058a60048036038101906105859190613727565b6120e4565b60405161059791906147b6565b60405180910390f35b3480156105ac57600080fd5b506105b561210c565b6040516105c29190614479565b60405180910390f35b6105e560048036038101906105e09190613807565b61219e565b005b3480156105f357600080fd5b5061060e600480360381019061060991906136eb565b612206565b005b34801561061c57600080fd5b5061063760048036038101906106329190613807565b612387565b604051610644919061479b565b60405180910390f35b34801561065957600080fd5b50610674600480360381019061066f9190613670565b61252c565b005b34801561068257600080fd5b5061069d600480360381019061069891906135bc565b61258e565b6040516106aa919061445e565b60405180910390f35b3480156106bf57600080fd5b506106da60048036038101906106d59190613807565b6125ae565b6040516106e79190614479565b60405180910390f35b3480156106fc57600080fd5b50610705612655565b6040516107129190614443565b60405180910390f35b610735600480360381019061073091906135bc565b61271b565b005b34801561074357600080fd5b5061075e600480360381019061075991906137de565b612813565b005b34801561076c57600080fd5b50610787600480360381019061078291906135e5565b612aa2565b6040516107949190614443565b60405180910390f35b60007f80ac58cd000000000000000000000000000000000000000000000000000000007bffffffffffffffffffffffffffffffffffffffffffffffffffffffff1916827bffffffffffffffffffffffffffffffffffffffffffffffffffffffff1916148061086857507f5b5e139f000000000000000000000000000000000000000000000000000000007bffffffffffffffffffffffffffffffffffffffffffffffffffffffff1916827bffffffffffffffffffffffffffffffffffffffffffffffffffffffff1916145b80610878575061087782612b36565b5b9050919050565b60606000805461088e90614b6d565b80601f01602080910402602001604051908101604052809291908181526020018280546108ba90614b6d565b80156109075780601f106108dc57610100808354040283529160200191610907565b820191906000526020600020905b8154815290600101906020018083116108ea57829003601f168201915b5050505050905090565b600080600490505b6000811115610a01576000600784600181111561095f577f4e487b7100000000000000000000000000000000000000000000000000000000600052602160045260246000fd5b81548110610996577f4e487b7100000000000000000000000000000000000000000000000000000000600052603260045260246000fd5b906000526020600020906010020182600481106109dc577f4e487b7100000000000000000000000000000000000000000000000000000000600052603260045260246000fd5b5050600411156109ee57809150610a01565b80806109f990614b43565b915050610919565b505050565b6000610a1182612ba0565b610a50576040517f08c379a0000000000000000000000000000000000000000000000000000000008152600401610a479061467b565b60405180910390fd5b6004600083815260200190815260200160002060009054906101000a900473ffffffffffffffffffffffffffffffffffffffff169050919050565b6000610a96826116e4565b90508073ffffffffffffffffffffffffffffffffffffffff168373ffffffffffffffffffffffffffffffffffffffff161415610b07576040517f08c379a0000000000000000000000000000000000000000000000000000000008152600401610afe906146fb565b60405180910390fd5b8073ffffffffffffffffffffffffffffffffffffffff16610b26612c0c565b73ffffffffffffffffffffffffffffffffffffffff161480610b555750610b5481610b4f612c0c565b612aa2565b5b610b94576040517f08c379a0000000000000000000000000000000000000000000000000000000008152600401610b8b906145fb565b60405180910390fd5b610b9e8383612c14565b505050565b6008600082815260200190815260200160002060020160009054906101000a900473ffffffffffffffffffffffffffffffffffffffff1673ffffffffffffffffffffffffffffffffffffffff163373ffffffffffffffffffffffffffffffffffffffff1614610c47576040517f08c379a0000000000000000000000000000000000000000000000000000000008152600401610c3e9061465b565b60405180910390fd5b60006003811115610c81577f4e487b7100000000000000000000000000000000000000000000000000000000600052602160045260246000fd5b6008600083815260200190815260200160002060020160149054906101000a900460ff166003811115610cdd577f4e487b7100000000000000000000000000000000000000000000000000000000600052602160045260246000fd5b1415610d1e576040517f08c379a0000000000000000000000000000000000000000000000000000000008152600401610d159061453b565b60405180910390fd5b60016008600083815260200190815260200160002060020160149054906101000a900460ff166003811115610d7c577f4e487b7100000000000000000000000000000000000000000000000000000000600052602160045260246000fd5b610d8691906149d6565b6003811115610dbe577f4e487b7100000000000000000000000000000000000000000000000000000000600052602160045260246000fd5b6008600083815260200190815260200160002060020160146101000a81548160ff02191690836003811115610e1c577f4e487b7100000000000000000000000000000000000000000000000000000000600052602160045260246000fd5b021790555050565b610e35610e2f612c0c565b82612ccd565b610e74576040517f08c379a0000000000000000000000000000000000000000000000000000000008152600401610e6b9061473b565b60405180910390fd5b610e7f838383612dab565b505050565b60005b600960003373ffffffffffffffffffffffffffffffffffffffff1673ffffffffffffffffffffffffffffffffffffffff1681526020019081526020016000205060048110156111735781600960003373ffffffffffffffffffffffffffffffffffffffff1673ffffffffffffffffffffffffffffffffffffffff1681526020019081526020016000208260048110610f48577f4e487b7100000000000000000000000000000000000000000000000000000000600052603260045260246000fd5b0154141561116057600960003373ffffffffffffffffffffffffffffffffffffffff1673ffffffffffffffffffffffffffffffffffffffff1681526020019081526020016000206001600960003373ffffffffffffffffffffffffffffffffffffffff1673ffffffffffffffffffffffffffffffffffffffff168152602001908152602001600020506004610fdd91906149d6565b60048110611014577f4e487b7100000000000000000000000000000000000000000000000000000000600052603260045260246000fd5b0154600960003373ffffffffffffffffffffffffffffffffffffffff1673ffffffffffffffffffffffffffffffffffffffff168152602001908152602001600020826004811061108d577f4e487b7100000000000000000000000000000000000000000000000000000000600052603260045260246000fd5b01819055506000600960003373ffffffffffffffffffffffffffffffffffffffff1673ffffffffffffffffffffffffffffffffffffffff1681526020019081526020016000206001600960003373ffffffffffffffffffffffffffffffffffffffff1673ffffffffffffffffffffffffffffffffffffffff16815260200190815260200160002050600461112191906149d6565b60048110611158577f4e487b7100000000000000000000000000000000000000000000000000000000600052603260045260246000fd5b505050611173565b808061116b90614b9f565b915050610e87565b5050565b6008600082815260200190815260200160002060020160009054906101000a900473ffffffffffffffffffffffffffffffffffffffff1673ffffffffffffffffffffffffffffffffffffffff163373ffffffffffffffffffffffffffffffffffffffff161461121b576040517f08c379a00000000000000000000000000000000000000000000000000000000081526004016112129061471b565b60405180910390fd5b61122481610e84565b50565b6112428383836040518060200160405280600081525061252c565b505050565b61124f6133ea565b600960008373ffffffffffffffffffffffffffffffffffffffff1673ffffffffffffffffffffffffffffffffffffffff1681526020019081526020016000206004806020026040519081016040528092919082600480156112c5576020028201915b8154815260200190600101908083116112b1575b50505050509050919050565b600660009054906101000a900473ffffffffffffffffffffffffffffffffffffffff1681565b60086020528060005260406000206000915090508060000154908060010154908060020160009054906101000a900473ffffffffffffffffffffffffffffffffffffffff16908060020160149054906101000a900460ff16908060020160159054906101000a900460ff16905085565b61136f613007565b3410156113b1576040517f08c379a00000000000000000000000000000000000000000000000000000000081526004016113a89061477b565b60405180910390fd5b6000600960003373ffffffffffffffffffffffffffffffffffffffff1673ffffffffffffffffffffffffffffffffffffffff16815260200190815260200160002082600181111561142b577f4e487b7100000000000000000000000000000000000000000000000000000000600052602160045260246000fd5b60048110611462577f4e487b7100000000000000000000000000000000000000000000000000000000600052603260045260246000fd5b015414156114a5576040517f08c379a000000000000000000000000000000000000000000000000000000000815260040161149c9061475b565b60405180910390fd5b600660149054906101000a900467ffffffffffffffff1667ffffffffffffffff1660086000600660149054906101000a900467ffffffffffffffff1667ffffffffffffffff168152602001908152602001600020600001819055504260086000600660149054906101000a900467ffffffffffffffff1667ffffffffffffffff168152602001908152602001600020600101819055508060086000600660149054906101000a900467ffffffffffffffff1667ffffffffffffffff16815260200190815260200160002060020160156101000a81548160ff021916908360018111156115ba577f4e487b7100000000000000000000000000000000000000000000000000000000600052602160045260246000fd5b0217905550600660149054906101000a900467ffffffffffffffff1667ffffffffffffffff16600960003373ffffffffffffffffffffffffffffffffffffffff1673ffffffffffffffffffffffffffffffffffffffff168152602001908152602001600020826001811115611658577f4e487b7100000000000000000000000000000000000000000000000000000000600052602160045260246000fd5b6004811061168f577f4e487b7100000000000000000000000000000000000000000000000000000000600052603260045260246000fd5b01819055506006601481819054906101000a900467ffffffffffffffff16809291906116ba90614be8565b91906101000a81548167ffffffffffffffff021916908367ffffffffffffffff1602179055505050565b6000806002600084815260200190815260200160002060009054906101000a900473ffffffffffffffffffffffffffffffffffffffff169050600073ffffffffffffffffffffffffffffffffffffffff168173ffffffffffffffffffffffffffffffffffffffff16141561178d576040517f08c379a00000000000000000000000000000000000000000000000000000000081526004016117849061463b565b60405180910390fd5b80915050919050565b60008073ffffffffffffffffffffffffffffffffffffffff168273ffffffffffffffffffffffffffffffffffffffff161415611807576040517f08c379a00000000000000000000000000000000000000000000000000000000081526004016117fe9061461b565b60405180910390fd5b600360008373ffffffffffffffffffffffffffffffffffffffff1673ffffffffffffffffffffffffffffffffffffffff168152602001908152602001600020549050919050565b3373ffffffffffffffffffffffffffffffffffffffff166008600084815260200190815260200160002060020160009054906101000a900473ffffffffffffffffffffffffffffffffffffffff1673ffffffffffffffffffffffffffffffffffffffff1614801561192057503373ffffffffffffffffffffffffffffffffffffffff166008600083815260200190815260200160002060020160009054906101000a900473ffffffffffffffffffffffffffffffffffffffff1673ffffffffffffffffffffffffffffffffffffffff16145b61195f576040517f08c379a0000000000000000000000000000000000000000000000000000000008152600401611956906144bb565b60405180910390fd5b6008600082815260200190815260200160002060020160149054906101000a900460ff1660038111156119bb577f4e487b7100000000000000000000000000000000000000000000000000000000600052602160045260246000fd5b6008600084815260200190815260200160002060020160149054906101000a900460ff166003811115611a17577f4e487b7100000000000000000000000000000000000000000000000000000000600052602160045260246000fd5b14611a2157600080fd5b611a2a81610e84565b60016008600084815260200190815260200160002060020160149054906101000a900460ff166003811115611a88577f4e487b7100000000000000000000000000000000000000000000000000000000600052602160045260246000fd5b611a9291906148f5565b6003811115611aca577f4e487b7100000000000000000000000000000000000000000000000000000000600052602160045260246000fd5b6008600084815260200190815260200160002060020160146101000a81548160ff02191690836003811115611b28577f4e487b7100000000000000000000000000000000000000000000000000000000600052602160045260246000fd5b02179055505050565b3373ffffffffffffffffffffffffffffffffffffffff166008600085815260200190815260200160002060020160009054906101000a900473ffffffffffffffffffffffffffffffffffffffff1673ffffffffffffffffffffffffffffffffffffffff16148015611c0357503373ffffffffffffffffffffffffffffffffffffffff166008600084815260200190815260200160002060020160009054906101000a900473ffffffffffffffffffffffffffffffffffffffff1673ffffffffffffffffffffffffffffffffffffffff16145b611c42576040517f08c379a0000000000000000000000000000000000000000000000000000000008152600401611c399061451b565b60405180910390fd5b60016008600084815260200190815260200160002060020160149054906101000a900460ff166003811115611ca0577f4e487b7100000000000000000000000000000000000000000000000000000000600052602160045260246000fd5b611caa91906149d6565b6003811115611ce2577f4e487b7100000000000000000000000000000000000000000000000000000000600052602160045260246000fd5b6003811115611d1a577f4e487b7100000000000000000000000000000000000000000000000000000000600052602160045260246000fd5b6008600085815260200190815260200160002060020160149054906101000a900460ff166003811115611d76577f4e487b7100000000000000000000000000000000000000000000000000000000600052602160045260246000fd5b6003811115611dae577f4e487b7100000000000000000000000000000000000000000000000000000000600052602160045260246000fd5b6003811115611de6577f4e487b7100000000000000000000000000000000000000000000000000000000600052602160045260246000fd5b14611df057600080fd5b6000600960003373ffffffffffffffffffffffffffffffffffffffff1673ffffffffffffffffffffffffffffffffffffffff168152602001908152602001600020826001811115611e6a577f4e487b7100000000000000000000000000000000000000000000000000000000600052602160045260246000fd5b60048110611ea1577f4e487b7100000000000000000000000000000000000000000000000000000000600052603260045260246000fd5b01541415611ee4576040517f08c379a0000000000000000000000000000000000000000000000000000000008152600401611edb906144fb565b60405180910390fd5b611eed82610e84565b806008600085815260200190815260200160002060020160156101000a81548160ff02191690836001811115611f4c577f4e487b7100000000000000000000000000000000000000000000000000000000600052602160045260246000fd5b0217905550505050565b806002811115611f8f577f4e487b7100000000000000000000000000000000000000000000000000000000600052602160045260246000fd5b600a60003373ffffffffffffffffffffffffffffffffffffffff1673ffffffffffffffffffffffffffffffffffffffff16815260200190815260200160002060009054906101000a900460ff166002811115612014577f4e487b7100000000000000000000000000000000000000000000000000000000600052602160045260246000fd5b14612054576040517f08c379a000000000000000000000000000000000000000000000000000000000815260040161204b9061455b565b60405180910390fd5b80600a60003373ffffffffffffffffffffffffffffffffffffffff1673ffffffffffffffffffffffffffffffffffffffff16815260200190815260200160002060006101000a81548160ff021916908360028111156120dc577f4e487b7100000000000000000000000000000000000000000000000000000000600052602160045260246000fd5b021790555050565b6009602052816000526040600020816004811061210057600080fd5b01600091509150505481565b60606001805461211b90614b6d565b80601f016020809104026020016040519081016040528092919081815260200182805461214790614b6d565b80156121945780601f1061216957610100808354040283529160200191612194565b820191906000526020600020905b81548152906001019060200180831161217757829003601f168201915b5050505050905090565b60036008600083815260200190815260200160002060020160146101000a81548160ff021916908360038111156121fe577f4e487b7100000000000000000000000000000000000000000000000000000000600052602160045260246000fd5b021790555050565b61220e612c0c565b73ffffffffffffffffffffffffffffffffffffffff168273ffffffffffffffffffffffffffffffffffffffff16141561227c576040517f08c379a00000000000000000000000000000000000000000000000000000000081526004016122739061459b565b60405180910390fd5b8060056000612289612c0c565b73ffffffffffffffffffffffffffffffffffffffff1673ffffffffffffffffffffffffffffffffffffffff16815260200190815260200160002060008473ffffffffffffffffffffffffffffffffffffffff1673ffffffffffffffffffffffffffffffffffffffff16815260200190815260200160002060006101000a81548160ff0219169083151502179055508173ffffffffffffffffffffffffffffffffffffffff16612336612c0c565b73ffffffffffffffffffffffffffffffffffffffff167f17307eab39ab6107e8899845ad3d59bd9653f200f220920489ca2b5937696c318360405161237b9190614443565b60405180910390a35050565b61238f61340c565b600860008381526020019081526020016000206040518060a001604052908160008201548152602001600182015481526020016002820160009054906101000a900473ffffffffffffffffffffffffffffffffffffffff1673ffffffffffffffffffffffffffffffffffffffff1673ffffffffffffffffffffffffffffffffffffffff1681526020016002820160149054906101000a900460ff166003811115612462577f4e487b7100000000000000000000000000000000000000000000000000000000600052602160045260246000fd5b600381111561249a577f4e487b7100000000000000000000000000000000000000000000000000000000600052602160045260246000fd5b81526020016002820160159054906101000a900460ff1660018111156124e9577f4e487b7100000000000000000000000000000000000000000000000000000000600052602160045260246000fd5b6001811115612521577f4e487b7100000000000000000000000000000000000000000000000000000000600052602160045260246000fd5b815250509050919050565b61253d612537612c0c565b83612ccd565b61257c576040517f08c379a00000000000000000000000000000000000000000000000000000000081526004016125739061473b565b60405180910390fd5b6125888484848461301b565b50505050565b600a6020528060005260406000206000915054906101000a900460ff1681565b60606125b982612ba0565b6125f8576040517f08c379a00000000000000000000000000000000000000000000000000000000081526004016125ef906146db565b60405180910390fd5b6000612602613077565b90506000815111612622576040518060200160405280600081525061264d565b8061262c8461308e565b60405160200161263d92919061439d565b6040516020818303038152906040525b915050919050565b6000806002811115612690577f4e487b7100000000000000000000000000000000000000000000000000000000600052602160045260246000fd5b600a60003373ffffffffffffffffffffffffffffffffffffffff1673ffffffffffffffffffffffffffffffffffffffff16815260200190815260200160002060009054906101000a900460ff166002811115612715577f4e487b7100000000000000000000000000000000000000000000000000000000600052602160045260246000fd5b14905090565b600660009054906101000a900473ffffffffffffffffffffffffffffffffffffffff1673ffffffffffffffffffffffffffffffffffffffff163373ffffffffffffffffffffffffffffffffffffffff16146127ab576040517f08c379a00000000000000000000000000000000000000000000000000000000081526004016127a2906145bb565b60405180910390fd5b6000600a6064476127bc919061494b565b6127c6919061497c565b90508173ffffffffffffffffffffffffffffffffffffffff166108fc829081150290604051600060405180830381858888f1935050505015801561280e573d6000803e3d6000fd5b505050565b6000600281111561284d577f4e487b7100000000000000000000000000000000000000000000000000000000600052602160045260246000fd5b600a60003373ffffffffffffffffffffffffffffffffffffffff1673ffffffffffffffffffffffffffffffffffffffff16815260200190815260200160002060009054906101000a900460ff1660028111156128d2577f4e487b7100000000000000000000000000000000000000000000000000000000600052602160045260246000fd5b1415612913576040517f08c379a000000000000000000000000000000000000000000000000000000000815260040161290a9061449b565b60405180910390fd5b80600281111561294c577f4e487b7100000000000000000000000000000000000000000000000000000000600052602160045260246000fd5b600a60003373ffffffffffffffffffffffffffffffffffffffff1673ffffffffffffffffffffffffffffffffffffffff16815260200190815260200160002060009054906101000a900460ff1660028111156129d1577f4e487b7100000000000000000000000000000000000000000000000000000000600052602160045260246000fd5b14612a11576040517f08c379a0000000000000000000000000000000000000000000000000000000008152600401612a089061469b565b60405180910390fd5b6000600a60003373ffffffffffffffffffffffffffffffffffffffff1673ffffffffffffffffffffffffffffffffffffffff16815260200190815260200160002060006101000a81548160ff02191690836002811115612a9a577f4e487b7100000000000000000000000000000000000000000000000000000000600052602160045260246000fd5b021790555050565b6000600560008473ffffffffffffffffffffffffffffffffffffffff1673ffffffffffffffffffffffffffffffffffffffff16815260200190815260200160002060008373ffffffffffffffffffffffffffffffffffffffff1673ffffffffffffffffffffffffffffffffffffffff16815260200190815260200160002060009054906101000a900460ff16905092915050565b60007f01ffc9a7000000000000000000000000000000000000000000000000000000007bffffffffffffffffffffffffffffffffffffffffffffffffffffffff1916827bffffffffffffffffffffffffffffffffffffffffffffffffffffffff1916149050919050565b60008073ffffffffffffffffffffffffffffffffffffffff166002600084815260200190815260200160002060009054906101000a900473ffffffffffffffffffffffffffffffffffffffff1673ffffffffffffffffffffffffffffffffffffffff1614159050919050565b600033905090565b816004600083815260200190815260200160002060006101000a81548173ffffffffffffffffffffffffffffffffffffffff021916908373ffffffffffffffffffffffffffffffffffffffff160217905550808273ffffffffffffffffffffffffffffffffffffffff16612c87836116e4565b73ffffffffffffffffffffffffffffffffffffffff167f8c5be1e5ebec7d5bd14f71427d1e84f3dd0314c0f7b2291e5b200ac8c7c3b92560405160405180910390a45050565b6000612cd882612ba0565b612d17576040517f08c379a0000000000000000000000000000000000000000000000000000000008152600401612d0e906145db565b60405180910390fd5b6000612d22836116e4565b90508073ffffffffffffffffffffffffffffffffffffffff168473ffffffffffffffffffffffffffffffffffffffff161480612d9157508373ffffffffffffffffffffffffffffffffffffffff16612d7984610a06565b73ffffffffffffffffffffffffffffffffffffffff16145b80612da25750612da18185612aa2565b5b91505092915050565b8273ffffffffffffffffffffffffffffffffffffffff16612dcb826116e4565b73ffffffffffffffffffffffffffffffffffffffff1614612e21576040517f08c379a0000000000000000000000000000000000000000000000000000000008152600401612e18906146bb565b60405180910390fd5b600073ffffffffffffffffffffffffffffffffffffffff168273ffffffffffffffffffffffffffffffffffffffff161415612e91576040517f08c379a0000000000000000000000000000000000000000000000000000000008152600401612e889061457b565b60405180910390fd5b612e9c83838361323b565b612ea7600082612c14565b6001600360008573ffffffffffffffffffffffffffffffffffffffff1673ffffffffffffffffffffffffffffffffffffffff1681526020019081526020016000206000828254612ef791906149d6565b925050819055506001600360008473ffffffffffffffffffffffffffffffffffffffff1673ffffffffffffffffffffffffffffffffffffffff1681526020019081526020016000206000828254612f4e91906148f5565b92505081905550816002600083815260200190815260200160002060006101000a81548173ffffffffffffffffffffffffffffffffffffffff021916908373ffffffffffffffffffffffffffffffffffffffff160217905550808273ffffffffffffffffffffffffffffffffffffffff168473ffffffffffffffffffffffffffffffffffffffff167fddf252ad1be2c89b69c2b068fc378daa952ba7f163c4a11628f55a4df523b3ef60405160405180910390a4505050565b6000606447613016919061494b565b905090565b613026848484612dab565b61303284848484613240565b613071576040517f08c379a0000000000000000000000000000000000000000000000000000000008152600401613068906144db565b60405180910390fd5b50505050565b606060405180602001604052806000815250905090565b606060008214156130d6576040518060400160405280600181526020017f30000000000000000000000000000000000000000000000000000000000000008152509050613236565b600082905060005b600082146131085780806130f190614b9f565b915050600a82613101919061494b565b91506130de565b60008167ffffffffffffffff81111561314a577f4e487b7100000000000000000000000000000000000000000000000000000000600052604160045260246000fd5b6040519080825280601f01601f19166020018201604052801561317c5781602001600182028036833780820191505090505b5090505b6000851461322f5760018261319591906149d6565b9150600a856131a49190614c19565b60306131b091906148f5565b60f81b8183815181106131ec577f4e487b7100000000000000000000000000000000000000000000000000000000600052603260045260246000fd5b60200101907effffffffffffffffffffffffffffffffffffffffffffffffffffffffffffff1916908160001a905350600a85613228919061494b565b9450613180565b8093505050505b919050565b505050565b60006132618473ffffffffffffffffffffffffffffffffffffffff166133d7565b156133ca578373ffffffffffffffffffffffffffffffffffffffff1663150b7a0261328a612c0c565b8786866040518563ffffffff1660e01b81526004016132ac94939291906143dc565b602060405180830381600087803b1580156132c657600080fd5b505af19250505080156132f757506040513d601f19601f820116820180604052508101906132f4919061378c565b60015b61337a573d8060008114613327576040519150601f19603f3d011682016040523d82523d6000602084013e61332c565b606091505b50600081511415613372576040517f08c379a0000000000000000000000000000000000000000000000000000000008152600401613369906144db565b60405180910390fd5b805181602001fd5b63150b7a0260e01b7bffffffffffffffffffffffffffffffffffffffffffffffffffffffff1916817bffffffffffffffffffffffffffffffffffffffffffffffffffffffff1916149150506133cf565b600190505b949350505050565b600080823b905060008111915050919050565b6040518060800160405280600490602082028036833780820191505090505090565b6040518060a001604052806000815260200160008152602001600073ffffffffffffffffffffffffffffffffffffffff1681526020016000600381111561347c577f4e487b7100000000000000000000000000000000000000000000000000000000600052602160045260246000fd5b8152602001600060018111156134bb577f4e487b7100000000000000000000000000000000000000000000000000000000600052602160045260246000fd5b81525090565b60006134d46134cf84614855565b614824565b9050828152602081018484840111156134ec57600080fd5b6134f7848285614b01565b509392505050565b60008135905061350e81614d82565b92915050565b60008135905061352381614d99565b92915050565b60008135905061353881614db0565b92915050565b60008151905061354d81614db0565b92915050565b600082601f83011261356457600080fd5b81356135748482602086016134c1565b91505092915050565b60008135905061358c81614dc7565b92915050565b6000813590506135a181614dd7565b92915050565b6000813590506135b681614de7565b92915050565b6000602082840312156135ce57600080fd5b60006135dc848285016134ff565b91505092915050565b600080604083850312156135f857600080fd5b6000613606858286016134ff565b9250506020613617858286016134ff565b9150509250929050565b60008060006060848603121561363657600080fd5b6000613644868287016134ff565b9350506020613655868287016134ff565b9250506040613666868287016135a7565b9150509250925092565b6000806000806080858703121561368657600080fd5b6000613694878288016134ff565b94505060206136a5878288016134ff565b93505060406136b6878288016135a7565b925050606085013567ffffffffffffffff8111156136d357600080fd5b6136df87828801613553565b91505092959194509250565b600080604083850312156136fe57600080fd5b600061370c858286016134ff565b925050602061371d85828601613514565b9150509250929050565b6000806040838503121561373a57600080fd5b6000613748858286016134ff565b9250506020613759858286016135a7565b9150509250929050565b60006020828403121561377557600080fd5b600061378384828501613529565b91505092915050565b60006020828403121561379e57600080fd5b60006137ac8482850161353e565b91505092915050565b6000602082840312156137c757600080fd5b60006137d58482850161357d565b91505092915050565b6000602082840312156137f057600080fd5b60006137fe84828501613592565b91505092915050565b60006020828403121561381957600080fd5b6000613827848285016135a7565b91505092915050565b6000806040838503121561384357600080fd5b6000613851858286016135a7565b9250506020613862858286016135a7565b9150509250929050565b60008060006060848603121561388157600080fd5b600061388f868287016135a7565b93505060206138a0868287016135a7565b92505060406138b18682870161357d565b9150509250925092565b60006138c7838361437f565b60208301905092915050565b6138dc81614a0a565b82525050565b6138eb81614a0a565b82525050565b6138fa8161488f565b61390481846148bd565b925061390f82614885565b8060005b8381101561394057815161392787826138bb565b9650613932836148b0565b925050600181019050613913565b505050505050565b61395181614a1c565b82525050565b60006139628261489a565b61396c81856148c8565b935061397c818560208601614b10565b61398581614d35565b840191505092915050565b61399981614acb565b82525050565b6139a881614acb565b82525050565b6139b781614add565b82525050565b6139c681614add565b82525050565b6139d581614aef565b82525050565b60006139e6826148a5565b6139f081856148d9565b9350613a00818560208601614b10565b613a0981614d35565b840191505092915050565b6000613a1f826148a5565b613a2981856148ea565b9350613a39818560208601614b10565b80840191505092915050565b6000613a52601b836148d9565b91507f596f7520646f6e742068617665207374616b656420746f6b656e7300000000006000830152602082019050919050565b6000613a926025836148d9565b91507f596f7520617265206e6f7420746865206f776e6572206f66207468657365207460008301527f6f6b656e730000000000000000000000000000000000000000000000000000006020830152604082019050919050565b6000613af86032836148d9565b91507f4552433732313a207472616e7366657220746f206e6f6e20455243373231526560008301527f63656976657220696d706c656d656e74657200000000000000000000000000006020830152604082019050919050565b6000613b5e6028836148d9565b91507f596f752063616e206f6e6c792068617665206f6e65206b696e64206f6620746f60008301527f6b656e20747970650000000000000000000000000000000000000000000000006020830152604082019050919050565b6000613bc4601d836148d9565b91507f596f7520646f206e6f74206f776e207468657365203220746f6b656e730000006000830152602082019050919050565b6000613c046024836148d9565b91507f54686520746f6b656e2063616e7420626520646f776e67726164656420616e7960008301527f6d6f7265000000000000000000000000000000000000000000000000000000006020830152604082019050919050565b6000613c6a6033836148d9565b91507f596f752063616e206f6e6c79207374616b6520796f757220746f6b656e73206960008301527f6e20312076616c757420617420612074696d65000000000000000000000000006020830152604082019050919050565b6000613cd06024836148d9565b91507f4552433732313a207472616e7366657220746f20746865207a65726f2061646460008301527f72657373000000000000000000000000000000000000000000000000000000006020830152604082019050919050565b6000613d366019836148d9565b91507f4552433732313a20617070726f766520746f2063616c6c6572000000000000006000830152602082019050919050565b6000613d76602d836148d9565b91507f4f6e6c7920746865206d616e616765722063616e206177616b6520746869732060008301527f66756e6374696f6e616c697479000000000000000000000000000000000000006020830152604082019050919050565b6000613ddc602c836148d9565b91507f4552433732313a206f70657261746f7220717565727920666f72206e6f6e657860008301527f697374656e7420746f6b656e00000000000000000000000000000000000000006020830152604082019050919050565b6000613e426038836148d9565b91507f4552433732313a20617070726f76652063616c6c6572206973206e6f74206f7760008301527f6e6572206e6f7220617070726f76656420666f7220616c6c00000000000000006020830152604082019050919050565b6000613ea8602a836148d9565b91507f4552433732313a2062616c616e636520717565727920666f7220746865207a6560008301527f726f2061646472657373000000000000000000000000000000000000000000006020830152604082019050919050565b6000613f0e6029836148d9565b91507f4552433732313a206f776e657220717565727920666f72206e6f6e657869737460008301527f656e7420746f6b656e00000000000000000000000000000000000000000000006020830152604082019050919050565b6000613f746026836148d9565b91507f4f6e6c7920746865206f776e65722063616e20646f776e67726164652074686560008301527f20746f6b656e00000000000000000000000000000000000000000000000000006020830152604082019050919050565b6000613fda602c836148d9565b91507f4552433732313a20617070726f76656420717565727920666f72206e6f6e657860008301527f697374656e7420746f6b656e00000000000000000000000000000000000000006020830152604082019050919050565b60006140406052836148d9565b91507f596f752063616e7420756e7374616b652066726f6d206120646966666572656e60008301527f7420746f6b656e207661756c742c20706c6561736520676f206261636b20746f60208301527f207468652063757272656374207661756c7400000000000000000000000000006040830152606082019050919050565b60006140cc6029836148d9565b91507f4552433732313a207472616e73666572206f6620746f6b656e2074686174206960008301527f73206e6f74206f776e00000000000000000000000000000000000000000000006020830152604082019050919050565b6000614132602f836148d9565b91507f4552433732314d657461646174613a2055524920717565727920666f72206e6f60008301527f6e6578697374656e7420746f6b656e00000000000000000000000000000000006020830152604082019050919050565b60006141986021836148d9565b91507f4552433732313a20617070726f76616c20746f2063757272656e74206f776e6560008301527f72000000000000000000000000000000000000000000000000000000000000006020830152604082019050919050565b60006141fe601f836148d9565b91507f4f6e6c7920746865206f776e65722063616e206275726e206120746f6b656e006000830152602082019050919050565b600061423e6031836148d9565b91507f4552433732313a207472616e736665722063616c6c6572206973206e6f74206f60008301527f776e6572206e6f7220617070726f7665640000000000000000000000000000006020830152604082019050919050565b60006142a4601d836148d9565b91507f596f752063616e74206f766572777269746520796f757220746f6b656e0000006000830152602082019050919050565b60006142e46019836148d9565b91507f596f75206e65656420746f2073656e64206d6f726520455448000000000000006000830152602082019050919050565b60a08201600082015161432d600085018261437f565b506020820151614340602085018261437f565b50604082015161435360408501826138d3565b5060608201516143666060850182613990565b50608082015161437960808501826139ae565b50505050565b61438881614aad565b82525050565b61439781614aad565b82525050565b60006143a98285613a14565b91506143b58284613a14565b91508190509392505050565b60006020820190506143d660008301846138e2565b92915050565b60006080820190506143f160008301876138e2565b6143fe60208301866138e2565b61440b604083018561438e565b818103606083015261441d8184613957565b905095945050505050565b600060808201905061443d60008301846138f1565b92915050565b60006020820190506144586000830184613948565b92915050565b600060208201905061447360008301846139cc565b92915050565b6000602082019050818103600083015261449381846139db565b905092915050565b600060208201905081810360008301526144b481613a45565b9050919050565b600060208201905081810360008301526144d481613a85565b9050919050565b600060208201905081810360008301526144f481613aeb565b9050919050565b6000602082019050818103600083015261451481613b51565b9050919050565b6000602082019050818103600083015261453481613bb7565b9050919050565b6000602082019050818103600083015261455481613bf7565b9050919050565b6000602082019050818103600083015261457481613c5d565b9050919050565b6000602082019050818103600083015261459481613cc3565b9050919050565b600060208201905081810360008301526145b481613d29565b9050919050565b600060208201905081810360008301526145d481613d69565b9050919050565b600060208201905081810360008301526145f481613dcf565b9050919050565b6000602082019050818103600083015261461481613e35565b9050919050565b6000602082019050818103600083015261463481613e9b565b9050919050565b6000602082019050818103600083015261465481613f01565b9050919050565b6000602082019050818103600083015261467481613f67565b9050919050565b6000602082019050818103600083015261469481613fcd565b9050919050565b600060208201905081810360008301526146b481614033565b9050919050565b600060208201905081810360008301526146d4816140bf565b9050919050565b600060208201905081810360008301526146f481614125565b9050919050565b600060208201905081810360008301526147148161418b565b9050919050565b60006020820190508181036000830152614734816141f1565b9050919050565b6000602082019050818103600083015261475481614231565b9050919050565b6000602082019050818103600083015261477481614297565b9050919050565b60006020820190508181036000830152614794816142d7565b9050919050565b600060a0820190506147b06000830184614317565b92915050565b60006020820190506147cb600083018461438e565b92915050565b600060a0820190506147e6600083018861438e565b6147f3602083018761438e565b61480060408301866138e2565b61480d606083018561399f565b61481a60808301846139bd565b9695505050505050565b6000604051905081810181811067ffffffffffffffff8211171561484b5761484a614d06565b5b8060405250919050565b600067ffffffffffffffff8211156148705761486f614d06565b5b601f19601f8301169050602081019050919050565b6000819050919050565b600060049050919050565b600081519050919050565b600081519050919050565b6000602082019050919050565b600081905092915050565b600082825260208201905092915050565b600082825260208201905092915050565b600081905092915050565b600061490082614aad565b915061490b83614aad565b9250827fffffffffffffffffffffffffffffffffffffffffffffffffffffffffffffffff038211156149405761493f614c4a565b5b828201905092915050565b600061495682614aad565b915061496183614aad565b92508261497157614970614c79565b5b828204905092915050565b600061498782614aad565b915061499283614aad565b9250817fffffffffffffffffffffffffffffffffffffffffffffffffffffffffffffffff04831182151516156149cb576149ca614c4a565b5b828202905092915050565b60006149e182614aad565b91506149ec83614aad565b9250828210156149ff576149fe614c4a565b5b828203905092915050565b6000614a1582614a8d565b9050919050565b60008115159050919050565b60007fffffffff0000000000000000000000000000000000000000000000000000000082169050919050565b6000819050614a6282614d46565b919050565b6000819050614a7582614d5a565b919050565b6000819050614a8882614d6e565b919050565b600073ffffffffffffffffffffffffffffffffffffffff82169050919050565b6000819050919050565b600067ffffffffffffffff82169050919050565b6000614ad682614a54565b9050919050565b6000614ae882614a67565b9050919050565b6000614afa82614a7a565b9050919050565b82818337600083830152505050565b60005b83811015614b2e578082015181840152602081019050614b13565b83811115614b3d576000848401525b50505050565b6000614b4e82614aad565b91506000821415614b6257614b61614c4a565b5b600182039050919050565b60006002820490506001821680614b8557607f821691505b60208210811415614b9957614b98614cd7565b5b50919050565b6000614baa82614aad565b91507fffffffffffffffffffffffffffffffffffffffffffffffffffffffffffffffff821415614bdd57614bdc614c4a565b5b600182019050919050565b6000614bf382614ab7565b915067ffffffffffffffff821415614c0e57614c0d614c4a565b5b600182019050919050565b6000614c2482614aad565b9150614c2f83614aad565b925082614c3f57614c3e614c79565b5b828206905092915050565b7f4e487b7100000000000000000000000000000000000000000000000000000000600052601160045260246000fd5b7f4e487b7100000000000000000000000000000000000000000000000000000000600052601260045260246000fd5b7f4e487b7100000000000000000000000000000000000000000000000000000000600052602160045260246000fd5b7f4e487b7100000000000000000000000000000000000000000000000000000000600052602260045260246000fd5b7f4e487b7100000000000000000000000000000000000000000000000000000000600052604160045260246000fd5b6000601f19601f8301169050919050565b60048110614d5757614d56614ca8565b5b50565b60028110614d6b57614d6a614ca8565b5b50565b60038110614d7f57614d7e614ca8565b5b50565b614d8b81614a0a565b8114614d9657600080fd5b50565b614da281614a1c565b8114614dad57600080fd5b50565b614db981614a28565b8114614dc457600080fd5b50565b60028110614dd457600080fd5b50565b60038110614de457600080fd5b50565b614df081614aad565b8114614dfb57600080fd5b5056fea2646970667358221220d1b940f46ab514c3cfe44ddb5cf855921e4d1d72737780b5fb823d46aeb9449b64736f6c63430008000033",
  "immutableReferences": {},
  "source": "// SPDX-License-Identifier:UNLICENSED \n\npragma solidity 0.8.0;\n\nimport \"@openzeppelin/contracts/token/ERC721/ERC721.sol\";\n\ncontract UUNFT is ERC721(\"UpgradableNFT\",\"UUNFT\") { // also implement Ownalbe \n\n    address public manager;\n    enum TokenType {Fire,Water}\n    enum TokenLevel {LevelZero,LevelOne, LevelTwo, LevelThree}\n    enum TokenVault {NoVault,TokenVaultOne, TokenVaultTwo} // Default NoVault\n    uint64 tokenId = 1; \n    event isUpgradable(string message);\n    event isMutabale(string message);\n    event hasUpgraded(string message);\n    event hasStaked(string message);\n    event hasUnStaked(string message);\n    event moneyHasBeenAccepted(string message);\n    //add events\n    constructor () payable{ //When the contract is first created, we need to send some ETH to it\n        manager = msg.sender;\n    }\n    uint[4][4][] someArraYName;\n\n    function getMaxLevelOfATokenType(TokenType _tokenType) public view{\n        uint toptokenLevel  = 0;\n        for(uint i = 4; i > 0; i--) {\n            if(someArraYName[uint(_tokenType)][i].length > 0) {\n                toptokenLevel = i;\n                break;\n            }\n        }\n    }\n   \n\n    mapping(uint => TokenMetaData) public tokens;\n    mapping(address => uint[4]) public tokenOwners;\n    mapping(address => TokenVault) public lockedVaultTokens;\n    //If lockedVaultTokens[msg.sender] == NoVault\n    //lockedVaultTokens[msg.sender] == _tokenVault;\n    //We can only unlock tokens from the current vault, not from other valult;\n    //require lockedVaultTokens[msg.sender] == theVaultTheUserIsCurrenctlyUsing, 'Tokens are loced in valut ' + TokenVault(lockedVaultTokens[msg.sender]);\n\n    //tokenId should be 64 bit\n    /*\n        function findMaxLevelYtpe (TokenType tokenType) return address{\n            enumaret etrhough the values in  amapping\n            uint initalLevel = TokenLevel.LevelZero;\n            for(uint i = 0; i < mapping.length; i+=) {\n                if(mapping[].)\n            }\n        }\n    */\n    //A function to give the possibily of showing a leaderboard/ the height level of a tkoenType\n\n    \n    struct TokenMetaData {\n        uint id;\n        uint timestamp;\n        address owner;\n        TokenLevel tokenLevel;\n        TokenType tokenType;\n        //TokenVault tokenVault;\n    }\n\n    //function getTokenData\n    function getTokenData(uint _tokenId) public view returns (TokenMetaData memory) {\n        return tokens[_tokenId];\n    }\n    //function getTokensOfAnOwner returns uint[]\n    function getTokensOfAnOwner(address _owner) public view returns(uint[4] memory) {\n        return tokenOwners[_owner];\n    }\n    \n    function CreateToken(TokenType _tokenType) public  payable{//alsow user need to pay ETH in order to create a token\n        require(msg.value >= calculateEtherToSend(),'You need to send more ETH');\n        require(tokenOwners[msg.sender][uint(_tokenType)] != 0,'You cant overwrite your token'); \n        tokens[tokenId].id = tokenId;\n        tokens[tokenId].timestamp = block.timestamp;\n        tokens[tokenId].tokenType = _tokenType;\n        tokenOwners[msg.sender][uint(_tokenType)] = tokenId; \n        tokenId++;\n    }\n    function upgradeToken(uint _tokenToBeUpgradedId, uint _tokenToBeSacrificedId) public{\n        require(tokens[_tokenToBeUpgradedId].owner == msg.sender && tokens[_tokenToBeSacrificedId].owner == msg.sender,'You are not the owner of these tokens');\n        require(tokens[_tokenToBeUpgradedId].tokenLevel == tokens[_tokenToBeSacrificedId].tokenLevel);\n        removeTokenById(_tokenToBeSacrificedId);\n        tokens[_tokenToBeUpgradedId].tokenLevel =TokenLevel(uint(tokens[_tokenToBeUpgradedId].tokenLevel) + 1);\n        \n    }\n    function removeTokenById(uint _tokenToBeBurnedId) public{\n        for(uint i = 0; i < tokenOwners[msg.sender].length; i++) {\n            if(tokenOwners[msg.sender][i] == _tokenToBeBurnedId) {\n                tokenOwners[msg.sender][i] = tokenOwners[msg.sender][tokenOwners[msg.sender].length-1];\n                tokenOwners[msg.sender][tokenOwners[msg.sender].length-1] == 0;\n                break;\n            }\n        }\n    }\n\n    function calculateEtherToSend() internal view returns(uint minAmountToSend) {\n        minAmountToSend = address(this).balance/100; //the minimum amount is 1% of the contract balance\n    }\n\n    function mutateToken(uint _tokenToBeUpgradedId, uint _tokenToBeSacrificedId,TokenType _designatedType) public {\n        require(tokens[_tokenToBeUpgradedId].owner == msg.sender && tokens[_tokenToBeSacrificedId].owner ==msg.sender, 'You do not own these 2 tokens');\n        require(TokenLevel(uint(tokens[_tokenToBeUpgradedId].tokenLevel))==TokenLevel(uint(tokens[_tokenToBeSacrificedId].tokenLevel) -1));\n        require(tokenOwners[msg.sender][uint(_designatedType)] != 0,'You can only have one kind of token type');\n        removeTokenById(_tokenToBeSacrificedId);\n        tokens[_tokenToBeUpgradedId].tokenType = _designatedType;\n    }\n\n     function giveWinnerProfit(address _winner) public payable {\n         require(msg.sender == manager,'Only the manager can awake this functionality');\n         uint amountToSend = (address(this).balance/100)*10;//we send 10% of contracts balance\n         payable(_winner).transfer(amountToSend);\n         \n     }\n\n     fallback() external payable{}\n     receive() external payable{}\n\n        //This should be changed to a modifier and have the requremen statemnt from upgrade token\n//    function isUpgradable(uint _tokenId) public view {\n//    }\n\n     //This should be changed to a modifier and have the requremen statemnt from mutate token\n//    function isMutable(uint _tokenId) view public{}\n       function Disasamble(uint _tokenToBeDisasabledId) public {\n           require(msg.sender == tokens[_tokenToBeDisasabledId].owner,'Only the owner can burn a token');\n           removeTokenById(_tokenToBeDisasabledId);\n           //Here we also need to decide how many ether we need to send to the owner that is burning their token\n           //Also we decided to use ETH, that removes the need to create our own erc-20 token\n       }\n//     function Disasamble(uint _tokenToBeDisasabledId)  public{\n//         // require(tokens[_tokenToBeDisasabledId].owner == msg.sender);\n//         //this function needs for an erc 20 token to be impplemented first, since the one who is burning it\n//         //needs to pay a fee, but I believe the logic is gonna be a little like this\n//         //Get Moeny\n//         //Give the token default values and then isCreated become false, so later when we need to check\n//         //if token exiists its gonna return false\n//     }\n\n//function downgrade  we recieve eth, level goes down by 1 if not 0\n        function downgrade(uint _tokenToBeDownGraded) public {\n            require(msg.sender == tokens[_tokenToBeDownGraded].owner,'Only the owner can downgrade the token');\n            require(tokens[_tokenToBeDownGraded].tokenLevel != TokenLevel.LevelZero,'The token cant be downgraded anymore');\n            tokens[_tokenToBeDownGraded].tokenLevel = TokenLevel(uint(tokens[_tokenToBeDownGraded].tokenLevel) - 1);\n            //send some ETH (We need to create a method to calculate how much ether so sent, if you have any idea feel free to share)\n        }\n\n        function updateToMax(uint _tokenToBeUpdatedId) public payable{\n            \n            //require(msg.value == etherSend,'You need to pay x ETH in order to update to max');\n            tokens[_tokenToBeUpdatedId].tokenLevel = TokenLevel.LevelThree; //(need to check if there is a way that gets the last value in a enum, and not\n            //just hardcode it)\n        }\n\n\n        function Stake(TokenVault _tokenVault) public {\n            require(lockedVaultTokens[msg.sender] == _tokenVault,'You can only stake your tokens in 1 valut at a time');\n            lockedVaultTokens[msg.sender] = _tokenVault;\n        }\n\n        function unStake(TokenVault _currentTokenVault) public {\n            require(lockedVaultTokens[msg.sender] != TokenVault.NoVault,'You dont have staked tokens');\n            require(lockedVaultTokens[msg.sender] == _currentTokenVault,'You cant unstake from a different token vault, please go back to the currect vault');\n            lockedVaultTokens[msg.sender] = TokenVault.NoVault;\n        }\n\n        function checkIfTokensAreStaked() public view returns(bool){\n            return lockedVaultTokens[msg.sender] == TokenVault.NoVault;\n        }\n}",
  "sourcePath": "/home/bekim/Documents/Projects/Universal Upgradable NFT/contracts/UniversalUpgradableNFT.sol",
  "compiler": {
    "name": "solc",
    "version": "0.8.0+commit.c7dfd78e.Emscripten.clang"
  },
  "schemaVersion": "3.4.1",
  "updatedAt": "2021-10-07T17:20:46.173Z",
  "devdoc": {
    "kind": "dev",
    "methods": {
      "approve(address,uint256)": {
        "details": "See {IERC721-approve}."
      },
      "balanceOf(address)": {
        "details": "See {IERC721-balanceOf}."
      },
      "getApproved(uint256)": {
        "details": "See {IERC721-getApproved}."
      },
      "isApprovedForAll(address,address)": {
        "details": "See {IERC721-isApprovedForAll}."
      },
      "name()": {
        "details": "See {IERC721Metadata-name}."
      },
      "ownerOf(uint256)": {
        "details": "See {IERC721-ownerOf}."
      },
      "safeTransferFrom(address,address,uint256)": {
        "details": "See {IERC721-safeTransferFrom}."
      },
      "safeTransferFrom(address,address,uint256,bytes)": {
        "details": "See {IERC721-safeTransferFrom}."
      },
      "setApprovalForAll(address,bool)": {
        "details": "See {IERC721-setApprovalForAll}."
      },
      "supportsInterface(bytes4)": {
        "details": "See {IERC165-supportsInterface}."
      },
      "symbol()": {
        "details": "See {IERC721Metadata-symbol}."
      },
      "tokenURI(uint256)": {
        "details": "See {IERC721Metadata-tokenURI}."
      },
      "transferFrom(address,address,uint256)": {
        "details": "See {IERC721-transferFrom}."
      }
    },
    "version": 1
  },
  "userdoc": {
    "kind": "user",
    "methods": {},
    "version": 1
  }
}