{
  "contractName": "UUNFT",
  "abi": [
    {
      "inputs": [],
      "stateMutability": "payable",
      "type": "constructor"
    },
    {
      "anonymous": false,
      "inputs": [
        {
          "indexed": true,
          "internalType": "address",
          "name": "owner",
          "type": "address"
        },
        {
          "indexed": true,
          "internalType": "address",
          "name": "approved",
          "type": "address"
        },
        {
          "indexed": true,
          "internalType": "uint256",
          "name": "tokenId",
          "type": "uint256"
        }
      ],
      "name": "Approval",
      "type": "event"
    },
    {
      "anonymous": false,
      "inputs": [
        {
          "indexed": true,
          "internalType": "address",
          "name": "owner",
          "type": "address"
        },
        {
          "indexed": true,
          "internalType": "address",
          "name": "operator",
          "type": "address"
        },
        {
          "indexed": false,
          "internalType": "bool",
          "name": "approved",
          "type": "bool"
        }
      ],
      "name": "ApprovalForAll",
      "type": "event"
    },
    {
      "anonymous": false,
      "inputs": [
        {
          "indexed": true,
          "internalType": "address",
          "name": "from",
          "type": "address"
        },
        {
          "indexed": true,
          "internalType": "address",
          "name": "to",
          "type": "address"
        },
        {
          "indexed": true,
          "internalType": "uint256",
          "name": "tokenId",
          "type": "uint256"
        }
      ],
      "name": "Transfer",
      "type": "event"
    },
    {
      "anonymous": false,
      "inputs": [
        {
          "indexed": false,
          "internalType": "string",
          "name": "message",
          "type": "string"
        }
      ],
      "name": "hasStaked",
      "type": "event"
    },
    {
      "anonymous": false,
      "inputs": [
        {
          "indexed": false,
          "internalType": "string",
          "name": "message",
          "type": "string"
        }
      ],
      "name": "hasUnStaked",
      "type": "event"
    },
    {
      "anonymous": false,
      "inputs": [
        {
          "indexed": false,
          "internalType": "string",
          "name": "message",
          "type": "string"
        }
      ],
      "name": "hasUpgraded",
      "type": "event"
    },
    {
      "anonymous": false,
      "inputs": [
        {
          "indexed": false,
          "internalType": "string",
          "name": "message",
          "type": "string"
        }
      ],
      "name": "isMutabale",
      "type": "event"
    },
    {
      "anonymous": false,
      "inputs": [
        {
          "indexed": false,
          "internalType": "string",
          "name": "message",
          "type": "string"
        }
      ],
      "name": "isUpgradable",
      "type": "event"
    },
    {
      "anonymous": false,
      "inputs": [
        {
          "indexed": false,
          "internalType": "string",
          "name": "message",
          "type": "string"
        }
      ],
      "name": "moneyHasBeenAccepted",
      "type": "event"
    },
    {
      "stateMutability": "payable",
      "type": "fallback"
    },
    {
      "inputs": [
        {
          "internalType": "address",
          "name": "to",
          "type": "address"
        },
        {
          "internalType": "uint256",
          "name": "tokenId",
          "type": "uint256"
        }
      ],
      "name": "approve",
      "outputs": [],
      "stateMutability": "nonpayable",
      "type": "function"
    },
    {
      "inputs": [
        {
          "internalType": "address",
          "name": "owner",
          "type": "address"
        }
      ],
      "name": "balanceOf",
      "outputs": [
        {
          "internalType": "uint256",
          "name": "",
          "type": "uint256"
        }
      ],
      "stateMutability": "view",
      "type": "function"
    },
    {
      "inputs": [
        {
          "internalType": "uint256",
          "name": "tokenId",
          "type": "uint256"
        }
      ],
      "name": "getApproved",
      "outputs": [
        {
          "internalType": "address",
          "name": "",
          "type": "address"
        }
      ],
      "stateMutability": "view",
      "type": "function"
    },
    {
      "inputs": [
        {
          "internalType": "address",
          "name": "owner",
          "type": "address"
        },
        {
          "internalType": "address",
          "name": "operator",
          "type": "address"
        }
      ],
      "name": "isApprovedForAll",
      "outputs": [
        {
          "internalType": "bool",
          "name": "",
          "type": "bool"
        }
      ],
      "stateMutability": "view",
      "type": "function"
    },
    {
      "inputs": [
        {
          "internalType": "address",
          "name": "",
          "type": "address"
        }
      ],
      "name": "lockedVaultTokens",
      "outputs": [
        {
          "internalType": "enum UUNFT.TokenVault",
          "name": "",
          "type": "uint8"
        }
      ],
      "stateMutability": "view",
      "type": "function"
    },
    {
      "inputs": [],
      "name": "manager",
      "outputs": [
        {
          "internalType": "address",
          "name": "",
          "type": "address"
        }
      ],
      "stateMutability": "view",
      "type": "function"
    },
    {
      "inputs": [],
      "name": "name",
      "outputs": [
        {
          "internalType": "string",
          "name": "",
          "type": "string"
        }
      ],
      "stateMutability": "view",
      "type": "function"
    },
    {
      "inputs": [
        {
          "internalType": "uint256",
          "name": "tokenId",
          "type": "uint256"
        }
      ],
      "name": "ownerOf",
      "outputs": [
        {
          "internalType": "address",
          "name": "",
          "type": "address"
        }
      ],
      "stateMutability": "view",
      "type": "function"
    },
    {
      "inputs": [
        {
          "internalType": "address",
          "name": "from",
          "type": "address"
        },
        {
          "internalType": "address",
          "name": "to",
          "type": "address"
        },
        {
          "internalType": "uint256",
          "name": "tokenId",
          "type": "uint256"
        }
      ],
      "name": "safeTransferFrom",
      "outputs": [],
      "stateMutability": "nonpayable",
      "type": "function"
    },
    {
      "inputs": [
        {
          "internalType": "address",
          "name": "from",
          "type": "address"
        },
        {
          "internalType": "address",
          "name": "to",
          "type": "address"
        },
        {
          "internalType": "uint256",
          "name": "tokenId",
          "type": "uint256"
        },
        {
          "internalType": "bytes",
          "name": "_data",
          "type": "bytes"
        }
      ],
      "name": "safeTransferFrom",
      "outputs": [],
      "stateMutability": "nonpayable",
      "type": "function"
    },
    {
      "inputs": [
        {
          "internalType": "address",
          "name": "operator",
          "type": "address"
        },
        {
          "internalType": "bool",
          "name": "approved",
          "type": "bool"
        }
      ],
      "name": "setApprovalForAll",
      "outputs": [],
      "stateMutability": "nonpayable",
      "type": "function"
    },
    {
      "inputs": [
        {
          "internalType": "bytes4",
          "name": "interfaceId",
          "type": "bytes4"
        }
      ],
      "name": "supportsInterface",
      "outputs": [
        {
          "internalType": "bool",
          "name": "",
          "type": "bool"
        }
      ],
      "stateMutability": "view",
      "type": "function"
    },
    {
      "inputs": [],
      "name": "symbol",
      "outputs": [
        {
          "internalType": "string",
          "name": "",
          "type": "string"
        }
      ],
      "stateMutability": "view",
      "type": "function"
    },
    {
      "inputs": [
        {
          "internalType": "address",
          "name": "",
          "type": "address"
        },
        {
          "internalType": "uint256",
          "name": "",
          "type": "uint256"
        }
      ],
      "name": "tokenOwners",
      "outputs": [
        {
          "internalType": "uint256",
          "name": "",
          "type": "uint256"
        }
      ],
      "stateMutability": "view",
      "type": "function"
    },
    {
      "inputs": [
        {
          "internalType": "uint256",
          "name": "tokenId",
          "type": "uint256"
        }
      ],
      "name": "tokenURI",
      "outputs": [
        {
          "internalType": "string",
          "name": "",
          "type": "string"
        }
      ],
      "stateMutability": "view",
      "type": "function"
    },
    {
      "inputs": [
        {
          "internalType": "uint256",
          "name": "",
          "type": "uint256"
        }
      ],
      "name": "tokens",
      "outputs": [
        {
          "internalType": "uint256",
          "name": "id",
          "type": "uint256"
        },
        {
          "internalType": "uint256",
          "name": "timestamp",
          "type": "uint256"
        },
        {
          "internalType": "address",
          "name": "owner",
          "type": "address"
        },
        {
          "internalType": "enum UUNFT.TokenLevel",
          "name": "tokenLevel",
          "type": "uint8"
        },
        {
          "internalType": "enum UUNFT.TokenType",
          "name": "tokenType",
          "type": "uint8"
        }
      ],
      "stateMutability": "view",
      "type": "function"
    },
    {
      "inputs": [
        {
          "internalType": "address",
          "name": "from",
          "type": "address"
        },
        {
          "internalType": "address",
          "name": "to",
          "type": "address"
        },
        {
          "internalType": "uint256",
          "name": "tokenId",
          "type": "uint256"
        }
      ],
      "name": "transferFrom",
      "outputs": [],
      "stateMutability": "nonpayable",
      "type": "function"
    },
    {
      "stateMutability": "payable",
      "type": "receive"
    },
    {
      "inputs": [
        {
          "internalType": "uint256",
          "name": "_tokenId",
          "type": "uint256"
        }
      ],
      "name": "getTokenData",
      "outputs": [
        {
          "components": [
            {
              "internalType": "uint256",
              "name": "id",
              "type": "uint256"
            },
            {
              "internalType": "uint256",
              "name": "timestamp",
              "type": "uint256"
            },
            {
              "internalType": "address",
              "name": "owner",
              "type": "address"
            },
            {
              "internalType": "enum UUNFT.TokenLevel",
              "name": "tokenLevel",
              "type": "uint8"
            },
            {
              "internalType": "enum UUNFT.TokenType",
              "name": "tokenType",
              "type": "uint8"
            }
          ],
          "internalType": "struct UUNFT.TokenMetaData",
          "name": "",
          "type": "tuple"
        }
      ],
      "stateMutability": "view",
      "type": "function"
    },
    {
      "inputs": [
        {
          "internalType": "address",
          "name": "_owner",
          "type": "address"
        }
      ],
      "name": "getTokensOfAnOwner",
      "outputs": [
        {
          "internalType": "uint256[4]",
          "name": "",
          "type": "uint256[4]"
        }
      ],
      "stateMutability": "view",
      "type": "function"
    },
    {
      "inputs": [
        {
          "internalType": "enum UUNFT.TokenType",
          "name": "_tokenType",
          "type": "uint8"
        }
      ],
      "name": "CreateToken",
      "outputs": [],
      "stateMutability": "payable",
      "type": "function"
    },
    {
      "inputs": [
        {
          "internalType": "uint256",
          "name": "_tokenToBeUpgradedId",
          "type": "uint256"
        }
      ],
      "name": "upgradeToken",
      "outputs": [],
      "stateMutability": "payable",
      "type": "function"
    },
    {
      "inputs": [
        {
          "internalType": "uint256",
          "name": "_tokenToBeBurnedId",
          "type": "uint256"
        }
      ],
      "name": "removeTokenById",
      "outputs": [],
      "stateMutability": "nonpayable",
      "type": "function"
    },
    {
      "inputs": [
        {
          "internalType": "uint256",
          "name": "_tokenToBeUpgradedId",
          "type": "uint256"
        },
        {
          "internalType": "enum UUNFT.TokenType",
          "name": "_designatedType",
          "type": "uint8"
        }
      ],
      "name": "mutateToken",
      "outputs": [],
      "stateMutability": "payable",
      "type": "function"
    },
    {
      "inputs": [
        {
          "internalType": "address",
          "name": "_winner",
          "type": "address"
        }
      ],
      "name": "giveWinnerProfit",
      "outputs": [],
      "stateMutability": "payable",
      "type": "function"
    },
    {
      "inputs": [
        {
          "internalType": "uint256",
          "name": "_tokenToBeDisasabledId",
          "type": "uint256"
        }
      ],
      "name": "Disasamble",
      "outputs": [],
      "stateMutability": "nonpayable",
      "type": "function"
    },
    {
      "inputs": [
        {
          "internalType": "uint256",
          "name": "_tokenToBeDownGraded",
          "type": "uint256"
        }
      ],
      "name": "downgrade",
      "outputs": [],
      "stateMutability": "payable",
      "type": "function"
    },
    {
      "inputs": [
        {
          "internalType": "uint256",
          "name": "_tokenToBeUpdatedId",
          "type": "uint256"
        }
      ],
      "name": "updateToMax",
      "outputs": [],
      "stateMutability": "payable",
      "type": "function"
    },
    {
      "inputs": [
        {
          "internalType": "enum UUNFT.TokenVault",
          "name": "_tokenVault",
          "type": "uint8"
        }
      ],
      "name": "Stake",
      "outputs": [],
      "stateMutability": "nonpayable",
      "type": "function"
    },
    {
      "inputs": [
        {
          "internalType": "enum UUNFT.TokenVault",
          "name": "_currentTokenVault",
          "type": "uint8"
        }
      ],
      "name": "unStake",
      "outputs": [],
      "stateMutability": "nonpayable",
      "type": "function"
    }
  ],
  "bytecode": "0x60806040526001600660146101000a81548167ffffffffffffffff021916908367ffffffffffffffff1602179055506040518060400160405280600d81526020017f55706772616461626c654e4654000000000000000000000000000000000000008152506040518060400160405280600581526020017f55554e46540000000000000000000000000000000000000000000000000000008152508160009080519060200190620000b292919062000115565b508060019080519060200190620000cb92919062000115565b50505033600660006101000a81548173ffffffffffffffffffffffffffffffffffffffff021916908373ffffffffffffffffffffffffffffffffffffffff1602179055506200022a565b8280546200012390620001c5565b90600052602060002090601f01602090048101928262000147576000855562000193565b82601f106200016257805160ff191683800117855562000193565b8280016001018555821562000193579182015b828111156200019257825182559160200191906001019062000175565b5b509050620001a29190620001a6565b5090565b5b80821115620001c1576000816000905550600101620001a7565b5090565b60006002820490506001821680620001de57607f821691505b60208210811415620001f557620001f4620001fb565b5b50919050565b7f4e487b7100000000000000000000000000000000000000000000000000000000600052602260045260246000fd5b6149f9806200023a6000396000f3fe6080604052600436106101c65760003560e01c80636352211e116100f7578063b09afec111610095578063c87b56dd11610064578063c87b56dd1461064d578063d010c3f51461068a578063e8c00e39146106a6578063e985e9c5146106cf576101cd565b8063b09afec11461058e578063b88d4fde146105cb578063bc9d3b3b146105f4578063c287f70114610631576101cd565b80638b5e51d2116100d15780638b5e51d2146104e157806395d89b411461051e5780639b54251114610549578063a22cb46514610565576101cd565b80636352211e1461043e57806370a082311461047b5780637b653802146104b8576101cd565b80633cce433011610164578063449c79c91161013e578063449c79c914610379578063481c6a75146103b65780634f64b2be146103e157806354b5ae3a14610422576101cd565b80633cce4330146102fe578063420b25681461032757806342842e0e14610350576101cd565b8063095ea7b3116101a0578063095ea7b31461027457806311bcc81e1461029d57806323b872dd146102b957806332309a78146102e2576101cd565b806301ffc9a7146101cf57806306fdde031461020c578063081812fc14610237576101cd565b366101cd57005b005b3480156101db57600080fd5b506101f660048036038101906101f1919061337b565b61070c565b6040516102039190614032565b60405180910390f35b34801561021857600080fd5b506102216107ee565b60405161022e9190614068565b60405180910390f35b34801561024357600080fd5b5061025e6004803603810190610259919061341f565b610880565b60405161026b9190613fb0565b60405180910390f35b34801561028057600080fd5b5061029b6004803603810190610296919061333f565b610905565b005b6102b760048036038101906102b2919061341f565b610a1d565b005b3480156102c557600080fd5b506102e060048036038101906102db9190613239565b610cee565b005b6102fc60048036038101906102f7919061341f565b610d4e565b005b34801561030a57600080fd5b506103256004803603810190610320919061341f565b610e9f565b005b34801561033357600080fd5b5061034e6004803603810190610349919061341f565b611194565b005b34801561035c57600080fd5b5061037760048036038101906103729190613239565b61129d565b005b34801561038557600080fd5b506103a0600480360381019061039b91906131d4565b6112bd565b6040516103ad9190614017565b60405180910390f35b3480156103c257600080fd5b506103cb611347565b6040516103d89190613fb0565b60405180910390f35b3480156103ed57600080fd5b506104086004803603810190610403919061341f565b61136d565b6040516104199594939291906143c0565b60405180910390f35b61043c600480360381019061043791906133cd565b6113dd565b005b34801561044a57600080fd5b506104656004803603810190610460919061341f565b6117d0565b6040516104729190613fb0565b60405180910390f35b34801561048757600080fd5b506104a2600480360381019061049d91906131d4565b611882565b6040516104af91906143a5565b60405180910390f35b3480156104c457600080fd5b506104df60048036038101906104da91906133f6565b61193a565b005b3480156104ed57600080fd5b506105086004803603810190610503919061333f565b611ac8565b60405161051591906143a5565b60405180910390f35b34801561052a57600080fd5b50610533611af0565b6040516105409190614068565b60405180910390f35b610563600480360381019061055e919061341f565b611b82565b005b34801561057157600080fd5b5061058c60048036038101906105879190613303565b611c35565b005b34801561059a57600080fd5b506105b560048036038101906105b0919061341f565b611db6565b6040516105c2919061438a565b60405180910390f35b3480156105d757600080fd5b506105f260048036038101906105ed9190613288565b611f5b565b005b34801561060057600080fd5b5061061b600480360381019061061691906131d4565b611fbd565b604051610628919061404d565b60405180910390f35b61064b60048036038101906106469190613448565b611fdd565b005b34801561065957600080fd5b50610674600480360381019061066f919061341f565b612183565b6040516106819190614068565b60405180910390f35b6106a4600480360381019061069f91906131d4565b61222a565b005b3480156106b257600080fd5b506106cd60048036038101906106c891906133f6565b61230d565b005b3480156106db57600080fd5b506106f660048036038101906106f191906131fd565b61259c565b6040516107039190614032565b60405180910390f35b60007f80ac58cd000000000000000000000000000000000000000000000000000000007bffffffffffffffffffffffffffffffffffffffffffffffffffffffff1916827bffffffffffffffffffffffffffffffffffffffffffffffffffffffff191614806107d757507f5b5e139f000000000000000000000000000000000000000000000000000000007bffffffffffffffffffffffffffffffffffffffffffffffffffffffff1916827bffffffffffffffffffffffffffffffffffffffffffffffffffffffff1916145b806107e757506107e682612630565b5b9050919050565b6060600080546107fd90614732565b80601f016020809104026020016040519081016040528092919081815260200182805461082990614732565b80156108765780601f1061084b57610100808354040283529160200191610876565b820191906000526020600020905b81548152906001019060200180831161085957829003601f168201915b5050505050905090565b600061088b8261269a565b6108ca576040517f08c379a00000000000000000000000000000000000000000000000000000000081526004016108c19061426a565b60405180910390fd5b6004600083815260200190815260200160002060009054906101000a900473ffffffffffffffffffffffffffffffffffffffff169050919050565b6000610910826117d0565b90508073ffffffffffffffffffffffffffffffffffffffff168373ffffffffffffffffffffffffffffffffffffffff161415610981576040517f08c379a0000000000000000000000000000000000000000000000000000000008152600401610978906142ea565b60405180910390fd5b8073ffffffffffffffffffffffffffffffffffffffff166109a0612706565b73ffffffffffffffffffffffffffffffffffffffff1614806109cf57506109ce816109c9612706565b61259c565b5b610a0e576040517f08c379a0000000000000000000000000000000000000000000000000000000008152600401610a05906141ea565b60405180910390fd5b610a18838361270e565b505050565b6007600082815260200190815260200160002060020160009054906101000a900473ffffffffffffffffffffffffffffffffffffffff1673ffffffffffffffffffffffffffffffffffffffff163373ffffffffffffffffffffffffffffffffffffffff1614610ac1576040517f08c379a0000000000000000000000000000000000000000000000000000000008152600401610ab89061424a565b60405180910390fd5b60006003811115610afb577f4e487b7100000000000000000000000000000000000000000000000000000000600052602160045260246000fd5b6007600083815260200190815260200160002060020160149054906101000a900460ff166003811115610b57577f4e487b7100000000000000000000000000000000000000000000000000000000600052602160045260246000fd5b1415610b98576040517f08c379a0000000000000000000000000000000000000000000000000000000008152600401610b8f906140ea565b60405180910390fd5b60016007600083815260200190815260200160002060020160149054906101000a900460ff166003811115610bf6577f4e487b7100000000000000000000000000000000000000000000000000000000600052602160045260246000fd5b610c0091906145c5565b6003811115610c38577f4e487b7100000000000000000000000000000000000000000000000000000000600052602160045260246000fd5b6007600083815260200190815260200160002060020160146101000a81548160ff02191690836003811115610c96577f4e487b7100000000000000000000000000000000000000000000000000000000600052602160045260246000fd5b02179055503373ffffffffffffffffffffffffffffffffffffffff166108fc610cbf60056127c7565b9081150290604051600060405180830381858888f19350505050158015610cea573d6000803e3d6000fd5b5050565b610cff610cf9612706565b826127e8565b610d3e576040517f08c379a0000000000000000000000000000000000000000000000000000000008152600401610d359061432a565b60405180910390fd5b610d498383836128c6565b505050565b610d58600a6127c7565b3414610d99576040517f08c379a0000000000000000000000000000000000000000000000000000000008152600401610d90906141ca565b60405180910390fd5b60016007600083815260200190815260200160002060020160149054906101000a900460ff166003811115610df7577f4e487b7100000000000000000000000000000000000000000000000000000000600052602160045260246000fd5b610e0191906144e4565b6003811115610e39577f4e487b7100000000000000000000000000000000000000000000000000000000600052602160045260246000fd5b6007600083815260200190815260200160002060020160146101000a81548160ff02191690836003811115610e97577f4e487b7100000000000000000000000000000000000000000000000000000000600052602160045260246000fd5b021790555050565b60005b600860003373ffffffffffffffffffffffffffffffffffffffff1673ffffffffffffffffffffffffffffffffffffffff1681526020019081526020016000205060048110156111905781600860003373ffffffffffffffffffffffffffffffffffffffff1673ffffffffffffffffffffffffffffffffffffffff1681526020019081526020016000208260048110610f63577f4e487b7100000000000000000000000000000000000000000000000000000000600052603260045260246000fd5b0154141561117d57600860003373ffffffffffffffffffffffffffffffffffffffff1673ffffffffffffffffffffffffffffffffffffffff1681526020019081526020016000206001600860003373ffffffffffffffffffffffffffffffffffffffff1673ffffffffffffffffffffffffffffffffffffffff168152602001908152602001600020506004610ff891906145c5565b6004811061102f577f4e487b7100000000000000000000000000000000000000000000000000000000600052603260045260246000fd5b0154600860003373ffffffffffffffffffffffffffffffffffffffff1673ffffffffffffffffffffffffffffffffffffffff16815260200190815260200160002082600481106110a8577f4e487b7100000000000000000000000000000000000000000000000000000000600052603260045260246000fd5b01819055506000600860003373ffffffffffffffffffffffffffffffffffffffff1673ffffffffffffffffffffffffffffffffffffffff1681526020019081526020016000206001600860003373ffffffffffffffffffffffffffffffffffffffff1673ffffffffffffffffffffffffffffffffffffffff16815260200190815260200160002050600461113c91906145c5565b60048110611173577f4e487b7100000000000000000000000000000000000000000000000000000000600052603260045260246000fd5b0181905550611190565b808061118890614764565b915050610ea2565b5050565b6007600082815260200190815260200160002060020160009054906101000a900473ffffffffffffffffffffffffffffffffffffffff1673ffffffffffffffffffffffffffffffffffffffff163373ffffffffffffffffffffffffffffffffffffffff1614611238576040517f08c379a000000000000000000000000000000000000000000000000000000000815260040161122f9061430a565b60405180910390fd5b61124181610e9f565b61124a81612b22565b3373ffffffffffffffffffffffffffffffffffffffff166108fc61126e60056127c7565b9081150290604051600060405180830381858888f19350505050158015611299573d6000803e3d6000fd5b5050565b6112b883838360405180602001604052806000815250611f5b565b505050565b6112c5613002565b600860008373ffffffffffffffffffffffffffffffffffffffff1673ffffffffffffffffffffffffffffffffffffffff16815260200190815260200160002060048060200260405190810160405280929190826004801561133b576020028201915b815481526020019060010190808311611327575b50505050509050919050565b600660009054906101000a900473ffffffffffffffffffffffffffffffffffffffff1681565b60076020528060005260406000206000915090508060000154908060010154908060020160009054906101000a900473ffffffffffffffffffffffffffffffffffffffff16908060020160149054906101000a900460ff16908060020160159054906101000a900460ff16905085565b6113e760016127c7565b341015611429576040517f08c379a00000000000000000000000000000000000000000000000000000000081526004016114209061436a565b60405180910390fd5b6000600860003373ffffffffffffffffffffffffffffffffffffffff1673ffffffffffffffffffffffffffffffffffffffff1681526020019081526020016000208260018111156114a3577f4e487b7100000000000000000000000000000000000000000000000000000000600052602160045260246000fd5b600481106114da577f4e487b7100000000000000000000000000000000000000000000000000000000600052603260045260246000fd5b01541461151c576040517f08c379a00000000000000000000000000000000000000000000000000000000081526004016115139061434a565b60405180910390fd5b600660149054906101000a900467ffffffffffffffff1667ffffffffffffffff1660076000600660149054906101000a900467ffffffffffffffff1667ffffffffffffffff168152602001908152602001600020600001819055504260076000600660149054906101000a900467ffffffffffffffff1667ffffffffffffffff168152602001908152602001600020600101819055508060076000600660149054906101000a900467ffffffffffffffff1667ffffffffffffffff16815260200190815260200160002060020160156101000a81548160ff02191690836001811115611631577f4e487b7100000000000000000000000000000000000000000000000000000000600052602160045260246000fd5b02179055503360076000600660149054906101000a900467ffffffffffffffff1667ffffffffffffffff16815260200190815260200160002060020160006101000a81548173ffffffffffffffffffffffffffffffffffffffff021916908373ffffffffffffffffffffffffffffffffffffffff160217905550600660149054906101000a900467ffffffffffffffff1667ffffffffffffffff16600860003373ffffffffffffffffffffffffffffffffffffffff1673ffffffffffffffffffffffffffffffffffffffff168152602001908152602001600020826001811115611744577f4e487b7100000000000000000000000000000000000000000000000000000000600052602160045260246000fd5b6004811061177b577f4e487b7100000000000000000000000000000000000000000000000000000000600052603260045260246000fd5b01819055506006601481819054906101000a900467ffffffffffffffff16809291906117a6906147ad565b91906101000a81548167ffffffffffffffff021916908367ffffffffffffffff1602179055505050565b6000806002600084815260200190815260200160002060009054906101000a900473ffffffffffffffffffffffffffffffffffffffff169050600073ffffffffffffffffffffffffffffffffffffffff168173ffffffffffffffffffffffffffffffffffffffff161415611879576040517f08c379a00000000000000000000000000000000000000000000000000000000081526004016118709061422a565b60405180910390fd5b80915050919050565b60008073ffffffffffffffffffffffffffffffffffffffff168273ffffffffffffffffffffffffffffffffffffffff1614156118f3576040517f08c379a00000000000000000000000000000000000000000000000000000000081526004016118ea9061420a565b60405180910390fd5b600360008373ffffffffffffffffffffffffffffffffffffffff1673ffffffffffffffffffffffffffffffffffffffff168152602001908152602001600020549050919050565b806002811115611973577f4e487b7100000000000000000000000000000000000000000000000000000000600052602160045260246000fd5b600960003373ffffffffffffffffffffffffffffffffffffffff1673ffffffffffffffffffffffffffffffffffffffff16815260200190815260200160002060009054906101000a900460ff1660028111156119f8577f4e487b7100000000000000000000000000000000000000000000000000000000600052602160045260246000fd5b14611a38576040517f08c379a0000000000000000000000000000000000000000000000000000000008152600401611a2f9061410a565b60405180910390fd5b80600960003373ffffffffffffffffffffffffffffffffffffffff1673ffffffffffffffffffffffffffffffffffffffff16815260200190815260200160002060006101000a81548160ff02191690836002811115611ac0577f4e487b7100000000000000000000000000000000000000000000000000000000600052602160045260246000fd5b021790555050565b60086020528160005260406000208160048110611ae457600080fd5b01600091509150505481565b606060018054611aff90614732565b80601f0160208091040260200160405190810160405280929190818152602001828054611b2b90614732565b8015611b785780601f10611b4d57610100808354040283529160200191611b78565b820191906000526020600020905b815481529060010190602001808311611b5b57829003601f168201915b5050505050905090565b611b8c60146127c7565b3414611bcd576040517f08c379a0000000000000000000000000000000000000000000000000000000008152600401611bc49061418a565b60405180910390fd5b60036007600083815260200190815260200160002060020160146101000a81548160ff02191690836003811115611c2d577f4e487b7100000000000000000000000000000000000000000000000000000000600052602160045260246000fd5b021790555050565b611c3d612706565b73ffffffffffffffffffffffffffffffffffffffff168273ffffffffffffffffffffffffffffffffffffffff161415611cab576040517f08c379a0000000000000000000000000000000000000000000000000000000008152600401611ca29061414a565b60405180910390fd5b8060056000611cb8612706565b73ffffffffffffffffffffffffffffffffffffffff1673ffffffffffffffffffffffffffffffffffffffff16815260200190815260200160002060008473ffffffffffffffffffffffffffffffffffffffff1673ffffffffffffffffffffffffffffffffffffffff16815260200190815260200160002060006101000a81548160ff0219169083151502179055508173ffffffffffffffffffffffffffffffffffffffff16611d65612706565b73ffffffffffffffffffffffffffffffffffffffff167f17307eab39ab6107e8899845ad3d59bd9653f200f220920489ca2b5937696c3183604051611daa9190614032565b60405180910390a35050565b611dbe613024565b600760008381526020019081526020016000206040518060a001604052908160008201548152602001600182015481526020016002820160009054906101000a900473ffffffffffffffffffffffffffffffffffffffff1673ffffffffffffffffffffffffffffffffffffffff1673ffffffffffffffffffffffffffffffffffffffff1681526020016002820160149054906101000a900460ff166003811115611e91577f4e487b7100000000000000000000000000000000000000000000000000000000600052602160045260246000fd5b6003811115611ec9577f4e487b7100000000000000000000000000000000000000000000000000000000600052602160045260246000fd5b81526020016002820160159054906101000a900460ff166001811115611f18577f4e487b7100000000000000000000000000000000000000000000000000000000600052602160045260246000fd5b6001811115611f50577f4e487b7100000000000000000000000000000000000000000000000000000000600052602160045260246000fd5b815250509050919050565b611f6c611f66612706565b836127e8565b611fab576040517f08c379a0000000000000000000000000000000000000000000000000000000008152600401611fa29061432a565b60405180910390fd5b611fb784848484612c33565b50505050565b60096020528060005260406000206000915054906101000a900460ff1681565b6000600860003373ffffffffffffffffffffffffffffffffffffffff1673ffffffffffffffffffffffffffffffffffffffff168152602001908152602001600020826001811115612057577f4e487b7100000000000000000000000000000000000000000000000000000000600052602160045260246000fd5b6004811061208e577f4e487b7100000000000000000000000000000000000000000000000000000000600052603260045260246000fd5b0154146120d0576040517f08c379a00000000000000000000000000000000000000000000000000000000081526004016120c7906140ca565b60405180910390fd5b6120da600f6127c7565b341461211b576040517f08c379a0000000000000000000000000000000000000000000000000000000008152600401612112906141ca565b60405180910390fd5b806007600084815260200190815260200160002060020160156101000a81548160ff0219169083600181111561217a577f4e487b7100000000000000000000000000000000000000000000000000000000600052602160045260246000fd5b02179055505050565b606061218e8261269a565b6121cd576040517f08c379a00000000000000000000000000000000000000000000000000000000081526004016121c4906142ca565b60405180910390fd5b60006121d7612c8f565b905060008151116121f75760405180602001604052806000815250612222565b8061220184612ca6565b604051602001612212929190613f8c565b6040516020818303038152906040525b915050919050565b600660009054906101000a900473ffffffffffffffffffffffffffffffffffffffff1673ffffffffffffffffffffffffffffffffffffffff163373ffffffffffffffffffffffffffffffffffffffff16146122ba576040517f08c379a00000000000000000000000000000000000000000000000000000000081526004016122b19061416a565b60405180910390fd5b8073ffffffffffffffffffffffffffffffffffffffff166108fc6122de600a6127c7565b9081150290604051600060405180830381858888f19350505050158015612309573d6000803e3d6000fd5b5050565b60006002811115612347577f4e487b7100000000000000000000000000000000000000000000000000000000600052602160045260246000fd5b600960003373ffffffffffffffffffffffffffffffffffffffff1673ffffffffffffffffffffffffffffffffffffffff16815260200190815260200160002060009054906101000a900460ff1660028111156123cc577f4e487b7100000000000000000000000000000000000000000000000000000000600052602160045260246000fd5b141561240d576040517f08c379a00000000000000000000000000000000000000000000000000000000081526004016124049061408a565b60405180910390fd5b806002811115612446577f4e487b7100000000000000000000000000000000000000000000000000000000600052602160045260246000fd5b600960003373ffffffffffffffffffffffffffffffffffffffff1673ffffffffffffffffffffffffffffffffffffffff16815260200190815260200160002060009054906101000a900460ff1660028111156124cb577f4e487b7100000000000000000000000000000000000000000000000000000000600052602160045260246000fd5b1461250b576040517f08c379a00000000000000000000000000000000000000000000000000000000081526004016125029061428a565b60405180910390fd5b6000600960003373ffffffffffffffffffffffffffffffffffffffff1673ffffffffffffffffffffffffffffffffffffffff16815260200190815260200160002060006101000a81548160ff02191690836002811115612594577f4e487b7100000000000000000000000000000000000000000000000000000000600052602160045260246000fd5b021790555050565b6000600560008473ffffffffffffffffffffffffffffffffffffffff1673ffffffffffffffffffffffffffffffffffffffff16815260200190815260200160002060008373ffffffffffffffffffffffffffffffffffffffff1673ffffffffffffffffffffffffffffffffffffffff16815260200190815260200160002060009054906101000a900460ff16905092915050565b60007f01ffc9a7000000000000000000000000000000000000000000000000000000007bffffffffffffffffffffffffffffffffffffffffffffffffffffffff1916827bffffffffffffffffffffffffffffffffffffffffffffffffffffffff1916149050919050565b60008073ffffffffffffffffffffffffffffffffffffffff166002600084815260200190815260200160002060009054906101000a900473ffffffffffffffffffffffffffffffffffffffff1673ffffffffffffffffffffffffffffffffffffffff1614159050919050565b600033905090565b816004600083815260200190815260200160002060006101000a81548173ffffffffffffffffffffffffffffffffffffffff021916908373ffffffffffffffffffffffffffffffffffffffff160217905550808273ffffffffffffffffffffffffffffffffffffffff16612781836117d0565b73ffffffffffffffffffffffffffffffffffffffff167f8c5be1e5ebec7d5bd14f71427d1e84f3dd0314c0f7b2291e5b200ac8c7c3b92560405160405180910390a45050565b6000816064476127d7919061453a565b6127e1919061456b565b9050919050565b60006127f38261269a565b612832576040517f08c379a0000000000000000000000000000000000000000000000000000000008152600401612829906141aa565b60405180910390fd5b600061283d836117d0565b90508073ffffffffffffffffffffffffffffffffffffffff168473ffffffffffffffffffffffffffffffffffffffff1614806128ac57508373ffffffffffffffffffffffffffffffffffffffff1661289484610880565b73ffffffffffffffffffffffffffffffffffffffff16145b806128bd57506128bc818561259c565b5b91505092915050565b8273ffffffffffffffffffffffffffffffffffffffff166128e6826117d0565b73ffffffffffffffffffffffffffffffffffffffff161461293c576040517f08c379a0000000000000000000000000000000000000000000000000000000008152600401612933906142aa565b60405180910390fd5b600073ffffffffffffffffffffffffffffffffffffffff168273ffffffffffffffffffffffffffffffffffffffff1614156129ac576040517f08c379a00000000000000000000000000000000000000000000000000000000081526004016129a39061412a565b60405180910390fd5b6129b7838383612e53565b6129c260008261270e565b6001600360008573ffffffffffffffffffffffffffffffffffffffff1673ffffffffffffffffffffffffffffffffffffffff1681526020019081526020016000206000828254612a1291906145c5565b925050819055506001600360008473ffffffffffffffffffffffffffffffffffffffff1673ffffffffffffffffffffffffffffffffffffffff1681526020019081526020016000206000828254612a6991906144e4565b92505081905550816002600083815260200190815260200160002060006101000a81548173ffffffffffffffffffffffffffffffffffffffff021916908373ffffffffffffffffffffffffffffffffffffffff160217905550808273ffffffffffffffffffffffffffffffffffffffff168473ffffffffffffffffffffffffffffffffffffffff167fddf252ad1be2c89b69c2b068fc378daa952ba7f163c4a11628f55a4df523b3ef60405160405180910390a4505050565b6000612b2d826117d0565b9050612b3b81600084612e53565b612b4660008361270e565b6001600360008373ffffffffffffffffffffffffffffffffffffffff1673ffffffffffffffffffffffffffffffffffffffff1681526020019081526020016000206000828254612b9691906145c5565b925050819055506002600083815260200190815260200160002060006101000a81549073ffffffffffffffffffffffffffffffffffffffff021916905581600073ffffffffffffffffffffffffffffffffffffffff168273ffffffffffffffffffffffffffffffffffffffff167fddf252ad1be2c89b69c2b068fc378daa952ba7f163c4a11628f55a4df523b3ef60405160405180910390a45050565b612c3e8484846128c6565b612c4a84848484612e58565b612c89576040517f08c379a0000000000000000000000000000000000000000000000000000000008152600401612c80906140aa565b60405180910390fd5b50505050565b606060405180602001604052806000815250905090565b60606000821415612cee576040518060400160405280600181526020017f30000000000000000000000000000000000000000000000000000000000000008152509050612e4e565b600082905060005b60008214612d20578080612d0990614764565b915050600a82612d19919061453a565b9150612cf6565b60008167ffffffffffffffff811115612d62577f4e487b7100000000000000000000000000000000000000000000000000000000600052604160045260246000fd5b6040519080825280601f01601f191660200182016040528015612d945781602001600182028036833780820191505090505b5090505b60008514612e4757600182612dad91906145c5565b9150600a85612dbc91906147de565b6030612dc891906144e4565b60f81b818381518110612e04577f4e487b7100000000000000000000000000000000000000000000000000000000600052603260045260246000fd5b60200101907effffffffffffffffffffffffffffffffffffffffffffffffffffffffffffff1916908160001a905350600a85612e40919061453a565b9450612d98565b8093505050505b919050565b505050565b6000612e798473ffffffffffffffffffffffffffffffffffffffff16612fef565b15612fe2578373ffffffffffffffffffffffffffffffffffffffff1663150b7a02612ea2612706565b8786866040518563ffffffff1660e01b8152600401612ec49493929190613fcb565b602060405180830381600087803b158015612ede57600080fd5b505af1925050508015612f0f57506040513d601f19601f82011682018060405250810190612f0c91906133a4565b60015b612f92573d8060008114612f3f576040519150601f19603f3d011682016040523d82523d6000602084013e612f44565b606091505b50600081511415612f8a576040517f08c379a0000000000000000000000000000000000000000000000000000000008152600401612f81906140aa565b60405180910390fd5b805181602001fd5b63150b7a0260e01b7bffffffffffffffffffffffffffffffffffffffffffffffffffffffff1916817bffffffffffffffffffffffffffffffffffffffffffffffffffffffff191614915050612fe7565b600190505b949350505050565b600080823b905060008111915050919050565b6040518060800160405280600490602082028036833780820191505090505090565b6040518060a001604052806000815260200160008152602001600073ffffffffffffffffffffffffffffffffffffffff16815260200160006003811115613094577f4e487b7100000000000000000000000000000000000000000000000000000000600052602160045260246000fd5b8152602001600060018111156130d3577f4e487b7100000000000000000000000000000000000000000000000000000000600052602160045260246000fd5b81525090565b60006130ec6130e784614444565b614413565b90508281526020810184848401111561310457600080fd5b61310f8482856146f0565b509392505050565b60008135905061312681614947565b92915050565b60008135905061313b8161495e565b92915050565b60008135905061315081614975565b92915050565b60008151905061316581614975565b92915050565b600082601f83011261317c57600080fd5b813561318c8482602086016130d9565b91505092915050565b6000813590506131a48161498c565b92915050565b6000813590506131b98161499c565b92915050565b6000813590506131ce816149ac565b92915050565b6000602082840312156131e657600080fd5b60006131f484828501613117565b91505092915050565b6000806040838503121561321057600080fd5b600061321e85828601613117565b925050602061322f85828601613117565b9150509250929050565b60008060006060848603121561324e57600080fd5b600061325c86828701613117565b935050602061326d86828701613117565b925050604061327e868287016131bf565b9150509250925092565b6000806000806080858703121561329e57600080fd5b60006132ac87828801613117565b94505060206132bd87828801613117565b93505060406132ce878288016131bf565b925050606085013567ffffffffffffffff8111156132eb57600080fd5b6132f78782880161316b565b91505092959194509250565b6000806040838503121561331657600080fd5b600061332485828601613117565b92505060206133358582860161312c565b9150509250929050565b6000806040838503121561335257600080fd5b600061336085828601613117565b9250506020613371858286016131bf565b9150509250929050565b60006020828403121561338d57600080fd5b600061339b84828501613141565b91505092915050565b6000602082840312156133b657600080fd5b60006133c484828501613156565b91505092915050565b6000602082840312156133df57600080fd5b60006133ed84828501613195565b91505092915050565b60006020828403121561340857600080fd5b6000613416848285016131aa565b91505092915050565b60006020828403121561343157600080fd5b600061343f848285016131bf565b91505092915050565b6000806040838503121561345b57600080fd5b6000613469858286016131bf565b925050602061347a85828601613195565b9150509250929050565b60006134908383613f6e565b60208301905092915050565b6134a5816145f9565b82525050565b6134b4816145f9565b82525050565b6134c38161447e565b6134cd81846144ac565b92506134d882614474565b8060005b838110156135095781516134f08782613484565b96506134fb8361449f565b9250506001810190506134dc565b505050505050565b61351a8161460b565b82525050565b600061352b82614489565b61353581856144b7565b93506135458185602086016146ff565b61354e816148fa565b840191505092915050565b613562816146ba565b82525050565b613571816146ba565b82525050565b613580816146cc565b82525050565b61358f816146cc565b82525050565b61359e816146de565b82525050565b60006135af82614494565b6135b981856144c8565b93506135c98185602086016146ff565b6135d2816148fa565b840191505092915050565b60006135e882614494565b6135f281856144d9565b93506136028185602086016146ff565b80840191505092915050565b600061361b601b836144c8565b91507f596f7520646f6e742068617665207374616b656420746f6b656e7300000000006000830152602082019050919050565b600061365b6032836144c8565b91507f4552433732313a207472616e7366657220746f206e6f6e20455243373231526560008301527f63656976657220696d706c656d656e74657200000000000000000000000000006020830152604082019050919050565b60006136c16028836144c8565b91507f596f752063616e206f6e6c792068617665206f6e65206b696e64206f6620746f60008301527f6b656e20747970650000000000000000000000000000000000000000000000006020830152604082019050919050565b60006137276024836144c8565b91507f54686520746f6b656e2063616e7420626520646f776e67726164656420616e7960008301527f6d6f7265000000000000000000000000000000000000000000000000000000006020830152604082019050919050565b600061378d6033836144c8565b91507f596f752063616e206f6e6c79207374616b6520796f757220746f6b656e73206960008301527f6e20312076616c757420617420612074696d65000000000000000000000000006020830152604082019050919050565b60006137f36024836144c8565b91507f4552433732313a207472616e7366657220746f20746865207a65726f2061646460008301527f72657373000000000000000000000000000000000000000000000000000000006020830152604082019050919050565b60006138596019836144c8565b91507f4552433732313a20617070726f766520746f2063616c6c6572000000000000006000830152602082019050919050565b6000613899602d836144c8565b91507f4f6e6c7920746865206d616e616765722063616e206177616b6520746869732060008301527f66756e6374696f6e616c697479000000000000000000000000000000000000006020830152604082019050919050565b60006138ff602b836144c8565b91507f596f75206e65656420746f2070617920323025206f662074686520636f6e747260008301527f6163742062616c616e63650000000000000000000000000000000000000000006020830152604082019050919050565b6000613965602c836144c8565b91507f4552433732313a206f70657261746f7220717565727920666f72206e6f6e657860008301527f697374656e7420746f6b656e00000000000000000000000000000000000000006020830152604082019050919050565b60006139cb6028836144c8565b91507f596f75206e65656420746f2073656e6420313025206f6620636f6e747261637460008301527f2062616c616e63650000000000000000000000000000000000000000000000006020830152604082019050919050565b6000613a316038836144c8565b91507f4552433732313a20617070726f76652063616c6c6572206973206e6f74206f7760008301527f6e6572206e6f7220617070726f76656420666f7220616c6c00000000000000006020830152604082019050919050565b6000613a97602a836144c8565b91507f4552433732313a2062616c616e636520717565727920666f7220746865207a6560008301527f726f2061646472657373000000000000000000000000000000000000000000006020830152604082019050919050565b6000613afd6029836144c8565b91507f4552433732313a206f776e657220717565727920666f72206e6f6e657869737460008301527f656e7420746f6b656e00000000000000000000000000000000000000000000006020830152604082019050919050565b6000613b636026836144c8565b91507f4f6e6c7920746865206f776e65722063616e20646f776e67726164652074686560008301527f20746f6b656e00000000000000000000000000000000000000000000000000006020830152604082019050919050565b6000613bc9602c836144c8565b91507f4552433732313a20617070726f76656420717565727920666f72206e6f6e657860008301527f697374656e7420746f6b656e00000000000000000000000000000000000000006020830152604082019050919050565b6000613c2f6052836144c8565b91507f596f752063616e7420756e7374616b652066726f6d206120646966666572656e60008301527f7420746f6b656e207661756c742c20706c6561736520676f206261636b20746f60208301527f207468652063757272656374207661756c7400000000000000000000000000006040830152606082019050919050565b6000613cbb6029836144c8565b91507f4552433732313a207472616e73666572206f6620746f6b656e2074686174206960008301527f73206e6f74206f776e00000000000000000000000000000000000000000000006020830152604082019050919050565b6000613d21602f836144c8565b91507f4552433732314d657461646174613a2055524920717565727920666f72206e6f60008301527f6e6578697374656e7420746f6b656e00000000000000000000000000000000006020830152604082019050919050565b6000613d876021836144c8565b91507f4552433732313a20617070726f76616c20746f2063757272656e74206f776e6560008301527f72000000000000000000000000000000000000000000000000000000000000006020830152604082019050919050565b6000613ded601f836144c8565b91507f4f6e6c7920746865206f776e65722063616e206275726e206120746f6b656e006000830152602082019050919050565b6000613e2d6031836144c8565b91507f4552433732313a207472616e736665722063616c6c6572206973206e6f74206f60008301527f776e6572206e6f7220617070726f7665640000000000000000000000000000006020830152604082019050919050565b6000613e93601d836144c8565b91507f596f752063616e74206f766572777269746520796f757220746f6b656e0000006000830152602082019050919050565b6000613ed36019836144c8565b91507f596f75206e65656420746f2073656e64206d6f726520455448000000000000006000830152602082019050919050565b60a082016000820151613f1c6000850182613f6e565b506020820151613f2f6020850182613f6e565b506040820151613f42604085018261349c565b506060820151613f556060850182613559565b506080820151613f686080850182613577565b50505050565b613f778161469c565b82525050565b613f868161469c565b82525050565b6000613f9882856135dd565b9150613fa482846135dd565b91508190509392505050565b6000602082019050613fc560008301846134ab565b92915050565b6000608082019050613fe060008301876134ab565b613fed60208301866134ab565b613ffa6040830185613f7d565b818103606083015261400c8184613520565b905095945050505050565b600060808201905061402c60008301846134ba565b92915050565b60006020820190506140476000830184613511565b92915050565b60006020820190506140626000830184613595565b92915050565b6000602082019050818103600083015261408281846135a4565b905092915050565b600060208201905081810360008301526140a38161360e565b9050919050565b600060208201905081810360008301526140c38161364e565b9050919050565b600060208201905081810360008301526140e3816136b4565b9050919050565b600060208201905081810360008301526141038161371a565b9050919050565b6000602082019050818103600083015261412381613780565b9050919050565b60006020820190508181036000830152614143816137e6565b9050919050565b600060208201905081810360008301526141638161384c565b9050919050565b600060208201905081810360008301526141838161388c565b9050919050565b600060208201905081810360008301526141a3816138f2565b9050919050565b600060208201905081810360008301526141c381613958565b9050919050565b600060208201905081810360008301526141e3816139be565b9050919050565b6000602082019050818103600083015261420381613a24565b9050919050565b6000602082019050818103600083015261422381613a8a565b9050919050565b6000602082019050818103600083015261424381613af0565b9050919050565b6000602082019050818103600083015261426381613b56565b9050919050565b6000602082019050818103600083015261428381613bbc565b9050919050565b600060208201905081810360008301526142a381613c22565b9050919050565b600060208201905081810360008301526142c381613cae565b9050919050565b600060208201905081810360008301526142e381613d14565b9050919050565b6000602082019050818103600083015261430381613d7a565b9050919050565b6000602082019050818103600083015261432381613de0565b9050919050565b6000602082019050818103600083015261434381613e20565b9050919050565b6000602082019050818103600083015261436381613e86565b9050919050565b6000602082019050818103600083015261438381613ec6565b9050919050565b600060a08201905061439f6000830184613f06565b92915050565b60006020820190506143ba6000830184613f7d565b92915050565b600060a0820190506143d56000830188613f7d565b6143e26020830187613f7d565b6143ef60408301866134ab565b6143fc6060830185613568565b6144096080830184613586565b9695505050505050565b6000604051905081810181811067ffffffffffffffff8211171561443a576144396148cb565b5b8060405250919050565b600067ffffffffffffffff82111561445f5761445e6148cb565b5b601f19601f8301169050602081019050919050565b6000819050919050565b600060049050919050565b600081519050919050565b600081519050919050565b6000602082019050919050565b600081905092915050565b600082825260208201905092915050565b600082825260208201905092915050565b600081905092915050565b60006144ef8261469c565b91506144fa8361469c565b9250827fffffffffffffffffffffffffffffffffffffffffffffffffffffffffffffffff0382111561452f5761452e61480f565b5b828201905092915050565b60006145458261469c565b91506145508361469c565b9250826145605761455f61483e565b5b828204905092915050565b60006145768261469c565b91506145818361469c565b9250817fffffffffffffffffffffffffffffffffffffffffffffffffffffffffffffffff04831182151516156145ba576145b961480f565b5b828202905092915050565b60006145d08261469c565b91506145db8361469c565b9250828210156145ee576145ed61480f565b5b828203905092915050565b60006146048261467c565b9050919050565b60008115159050919050565b60007fffffffff0000000000000000000000000000000000000000000000000000000082169050919050565b60008190506146518261490b565b919050565b60008190506146648261491f565b919050565b600081905061467782614933565b919050565b600073ffffffffffffffffffffffffffffffffffffffff82169050919050565b6000819050919050565b600067ffffffffffffffff82169050919050565b60006146c582614643565b9050919050565b60006146d782614656565b9050919050565b60006146e982614669565b9050919050565b82818337600083830152505050565b60005b8381101561471d578082015181840152602081019050614702565b8381111561472c576000848401525b50505050565b6000600282049050600182168061474a57607f821691505b6020821081141561475e5761475d61489c565b5b50919050565b600061476f8261469c565b91507fffffffffffffffffffffffffffffffffffffffffffffffffffffffffffffffff8214156147a2576147a161480f565b5b600182019050919050565b60006147b8826146a6565b915067ffffffffffffffff8214156147d3576147d261480f565b5b600182019050919050565b60006147e98261469c565b91506147f48361469c565b9250826148045761480361483e565b5b828206905092915050565b7f4e487b7100000000000000000000000000000000000000000000000000000000600052601160045260246000fd5b7f4e487b7100000000000000000000000000000000000000000000000000000000600052601260045260246000fd5b7f4e487b7100000000000000000000000000000000000000000000000000000000600052602160045260246000fd5b7f4e487b7100000000000000000000000000000000000000000000000000000000600052602260045260246000fd5b7f4e487b7100000000000000000000000000000000000000000000000000000000600052604160045260246000fd5b6000601f19601f8301169050919050565b6004811061491c5761491b61486d565b5b50565b600281106149305761492f61486d565b5b50565b600381106149445761494361486d565b5b50565b614950816145f9565b811461495b57600080fd5b50565b6149678161460b565b811461497257600080fd5b50565b61497e81614617565b811461498957600080fd5b50565b6002811061499957600080fd5b50565b600381106149a957600080fd5b50565b6149b58161469c565b81146149c057600080fd5b5056fea264697066735822122056b6e31ce213590f4b635e9eda14563fb5c8ccf7935e05e72f0b0e1e7c240b6064736f6c63430008000033",
  "immutableReferences": {},
  "source": "// SPDX-License-Identifier:UNLICENSED \n\n//NOTES\n/*\n    Token should have a name\n    At createToken the !=0 should be ==\n */\n\npragma solidity 0.8.0;\n\nimport \"@openzeppelin/contracts/token/ERC721/ERC721.sol\";\n\ncontract UUNFT is ERC721(\"UpgradableNFT\",\"UUNFT\") { // also implement Ownalbe \n\n     address public manager;\n    enum TokenType {Fire,Water}\n    enum TokenLevel {LevelZero,LevelOne, LevelTwo, LevelThree}\n    enum TokenVault {NoVault,TokenVaultOne, TokenVaultTwo} // Default NoVault\n    uint64 tokenId = 1; \n    event isUpgradable(string message);\n    event isMutabale(string message);\n    event hasUpgraded(string message);\n    event hasStaked(string message);\n    event hasUnStaked(string message);\n    event moneyHasBeenAccepted(string message);\n    //add events\n    constructor () payable{\n        manager = msg.sender;\n    }\n \n\n    mapping(uint => TokenMetaData) public tokens;\n    mapping(address => uint[4]) public tokenOwners;\n    mapping(address => TokenVault) public lockedVaultTokens;\n\n\n    \n    struct TokenMetaData {\n        uint id;\n        uint timestamp;\n        address owner;\n        TokenLevel tokenLevel;\n        TokenType tokenType;\n        //TokenVault tokenVault;\n    }\n\n    function getTokenData(uint _tokenId) public view returns (TokenMetaData memory) {\n        return tokens[_tokenId];\n    }\n    \n    function getTokensOfAnOwner(address _owner) public view returns(uint[4] memory) {\n        return tokenOwners[_owner];\n    }\n    \n    \n    function CreateToken(TokenType _tokenType) public  payable{//alsow user need to pay ETH in order to create a token\n        require(msg.value >= calculateEtherToSend(1),'You need to send more ETH');\n        require(tokenOwners[msg.sender][uint(_tokenType)] == 0,'You cant overwrite your token'); \n        tokens[tokenId].id = tokenId;\n        tokens[tokenId].timestamp = block.timestamp;\n        tokens[tokenId].tokenType = _tokenType;\n        tokens[tokenId].owner = msg.sender;\n        tokenOwners[msg.sender][uint(_tokenType)] = tokenId; \n        // _safemint(tokenId);\n        tokenId++;\n    }\n    function upgradeToken(uint _tokenToBeUpgradedId) public payable{\n       require(msg.value == calculateEtherToSend(10),'You need to send 10% of contract balance');\n        tokens[_tokenToBeUpgradedId].tokenLevel =TokenLevel(uint(tokens[_tokenToBeUpgradedId].tokenLevel) + 1);\n        \n    }\n    function removeTokenById(uint _tokenToBeBurnedId) public{\n        for(uint i = 0; i < tokenOwners[msg.sender].length; i++) {\n            if(tokenOwners[msg.sender][i] == _tokenToBeBurnedId) {\n                tokenOwners[msg.sender][i] = tokenOwners[msg.sender][tokenOwners[msg.sender].length-1];\n                tokenOwners[msg.sender][tokenOwners[msg.sender].length-1] = 0;\n                break;\n            }\n        }\n    }\n\n    function calculateEtherToSend(uint percentage) internal view returns(uint minAmountToSend) {\n        minAmountToSend = (address(this).balance/100)*percentage; //the minimum amount is 1% of the contract balance\n    }\n    function mutateToken(uint _tokenToBeUpgradedId,TokenType _designatedType) public payable{\n        require(tokenOwners[msg.sender][uint(_designatedType)] == 0,'You can only have one kind of token type');\n        require(msg.value == calculateEtherToSend(15),'You need to send 10% of contract balance');\n        tokens[_tokenToBeUpgradedId].tokenType = _designatedType;\n    }\n\n     function giveWinnerProfit(address _winner) public payable {\n         require(msg.sender == manager,'Only the manager can awake this functionality');\n         payable(_winner).transfer(calculateEtherToSend(10));\n         \n     }\n\n     fallback() external payable{}\n     receive() external payable{}\n\n    \n       function Disasamble(uint _tokenToBeDisasabledId) public {\n           require(msg.sender == tokens[_tokenToBeDisasabledId].owner,'Only the owner can burn a token');\n           removeTokenById(_tokenToBeDisasabledId);\n           _burn(_tokenToBeDisasabledId);\n           payable(msg.sender).transfer(calculateEtherToSend(5));\n       }\n\n        function downgrade(uint _tokenToBeDownGraded) public payable{\n            require(msg.sender == tokens[_tokenToBeDownGraded].owner,'Only the owner can downgrade the token');\n            require(tokens[_tokenToBeDownGraded].tokenLevel != TokenLevel.LevelZero,'The token cant be downgraded anymore');\n            tokens[_tokenToBeDownGraded].tokenLevel = TokenLevel(uint(tokens[_tokenToBeDownGraded].tokenLevel) - 1);\n            payable(msg.sender).transfer(calculateEtherToSend(5));\n           \n        }\n\n        function updateToMax(uint _tokenToBeUpdatedId) public payable{\n            require(msg.value == calculateEtherToSend(20),'You need to pay 20% of the contract balance');\n            tokens[_tokenToBeUpdatedId].tokenLevel = TokenLevel.LevelThree;\n        }\n\n\n        function Stake(TokenVault _tokenVault) public {\n            require(lockedVaultTokens[msg.sender] == _tokenVault,'You can only stake your tokens in 1 valut at a time');\n            lockedVaultTokens[msg.sender] = _tokenVault;\n        }\n\n        function unStake(TokenVault _currentTokenVault) public {\n            require(lockedVaultTokens[msg.sender] != TokenVault.NoVault,'You dont have staked tokens');\n            require(lockedVaultTokens[msg.sender] == _currentTokenVault,'You cant unstake from a different token vault, please go back to the currect vault');\n            lockedVaultTokens[msg.sender] = TokenVault.NoVault;\n        }\n        \n}",
  "sourcePath": "/home/bekim/Documents/Projects/Universal Upgradable NFT/contracts/UniversalUpgradableNFT.sol",
  "compiler": {
    "name": "solc",
    "version": "0.8.0+commit.c7dfd78e.Emscripten.clang"
  },
  "schemaVersion": "3.4.1",
  "updatedAt": "2021-10-07T19:16:36.441Z",
  "devdoc": {
    "kind": "dev",
    "methods": {
      "approve(address,uint256)": {
        "details": "See {IERC721-approve}."
      },
      "balanceOf(address)": {
        "details": "See {IERC721-balanceOf}."
      },
      "getApproved(uint256)": {
        "details": "See {IERC721-getApproved}."
      },
      "isApprovedForAll(address,address)": {
        "details": "See {IERC721-isApprovedForAll}."
      },
      "name()": {
        "details": "See {IERC721Metadata-name}."
      },
      "ownerOf(uint256)": {
        "details": "See {IERC721-ownerOf}."
      },
      "safeTransferFrom(address,address,uint256)": {
        "details": "See {IERC721-safeTransferFrom}."
      },
      "safeTransferFrom(address,address,uint256,bytes)": {
        "details": "See {IERC721-safeTransferFrom}."
      },
      "setApprovalForAll(address,bool)": {
        "details": "See {IERC721-setApprovalForAll}."
      },
      "supportsInterface(bytes4)": {
        "details": "See {IERC165-supportsInterface}."
      },
      "symbol()": {
        "details": "See {IERC721Metadata-symbol}."
      },
      "tokenURI(uint256)": {
        "details": "See {IERC721Metadata-tokenURI}."
      },
      "transferFrom(address,address,uint256)": {
        "details": "See {IERC721-transferFrom}."
      }
    },
    "version": 1
  },
  "userdoc": {
    "kind": "user",
    "methods": {},
    "version": 1
  }
}