{
  "contractName": "UUNFT",
  "abi": [
    {
      "inputs": [],
      "stateMutability": "nonpayable",
      "type": "constructor"
    },
    {
      "anonymous": false,
      "inputs": [
        {
          "indexed": true,
          "internalType": "address",
          "name": "owner",
          "type": "address"
        },
        {
          "indexed": true,
          "internalType": "address",
          "name": "approved",
          "type": "address"
        },
        {
          "indexed": true,
          "internalType": "uint256",
          "name": "tokenId",
          "type": "uint256"
        }
      ],
      "name": "Approval",
      "type": "event"
    },
    {
      "anonymous": false,
      "inputs": [
        {
          "indexed": true,
          "internalType": "address",
          "name": "owner",
          "type": "address"
        },
        {
          "indexed": true,
          "internalType": "address",
          "name": "operator",
          "type": "address"
        },
        {
          "indexed": false,
          "internalType": "bool",
          "name": "approved",
          "type": "bool"
        }
      ],
      "name": "ApprovalForAll",
      "type": "event"
    },
    {
      "anonymous": false,
      "inputs": [
        {
          "indexed": true,
          "internalType": "address",
          "name": "from",
          "type": "address"
        },
        {
          "indexed": true,
          "internalType": "address",
          "name": "to",
          "type": "address"
        },
        {
          "indexed": true,
          "internalType": "uint256",
          "name": "tokenId",
          "type": "uint256"
        }
      ],
      "name": "Transfer",
      "type": "event"
    },
    {
      "anonymous": false,
      "inputs": [
        {
          "indexed": false,
          "internalType": "string",
          "name": "message",
          "type": "string"
        }
      ],
      "name": "hasUpgraded",
      "type": "event"
    },
    {
      "anonymous": false,
      "inputs": [
        {
          "indexed": false,
          "internalType": "string",
          "name": "message",
          "type": "string"
        }
      ],
      "name": "isMutabale",
      "type": "event"
    },
    {
      "anonymous": false,
      "inputs": [
        {
          "indexed": false,
          "internalType": "string",
          "name": "message",
          "type": "string"
        }
      ],
      "name": "isUpgradable",
      "type": "event"
    },
    {
      "inputs": [
        {
          "internalType": "address",
          "name": "to",
          "type": "address"
        },
        {
          "internalType": "uint256",
          "name": "tokenId",
          "type": "uint256"
        }
      ],
      "name": "approve",
      "outputs": [],
      "stateMutability": "nonpayable",
      "type": "function"
    },
    {
      "inputs": [
        {
          "internalType": "address",
          "name": "owner",
          "type": "address"
        }
      ],
      "name": "balanceOf",
      "outputs": [
        {
          "internalType": "uint256",
          "name": "",
          "type": "uint256"
        }
      ],
      "stateMutability": "view",
      "type": "function"
    },
    {
      "inputs": [
        {
          "internalType": "uint256",
          "name": "tokenId",
          "type": "uint256"
        }
      ],
      "name": "getApproved",
      "outputs": [
        {
          "internalType": "address",
          "name": "",
          "type": "address"
        }
      ],
      "stateMutability": "view",
      "type": "function"
    },
    {
      "inputs": [
        {
          "internalType": "address",
          "name": "owner",
          "type": "address"
        },
        {
          "internalType": "address",
          "name": "operator",
          "type": "address"
        }
      ],
      "name": "isApprovedForAll",
      "outputs": [
        {
          "internalType": "bool",
          "name": "",
          "type": "bool"
        }
      ],
      "stateMutability": "view",
      "type": "function"
    },
    {
      "inputs": [
        {
          "internalType": "address",
          "name": "",
          "type": "address"
        }
      ],
      "name": "lockedVaultTokens",
      "outputs": [
        {
          "internalType": "enum UUNFT.TokenVault",
          "name": "",
          "type": "uint8"
        }
      ],
      "stateMutability": "view",
      "type": "function"
    },
    {
      "inputs": [],
      "name": "manager",
      "outputs": [
        {
          "internalType": "address",
          "name": "",
          "type": "address"
        }
      ],
      "stateMutability": "view",
      "type": "function"
    },
    {
      "inputs": [],
      "name": "name",
      "outputs": [
        {
          "internalType": "string",
          "name": "",
          "type": "string"
        }
      ],
      "stateMutability": "view",
      "type": "function"
    },
    {
      "inputs": [
        {
          "internalType": "uint256",
          "name": "tokenId",
          "type": "uint256"
        }
      ],
      "name": "ownerOf",
      "outputs": [
        {
          "internalType": "address",
          "name": "",
          "type": "address"
        }
      ],
      "stateMutability": "view",
      "type": "function"
    },
    {
      "inputs": [
        {
          "internalType": "address",
          "name": "from",
          "type": "address"
        },
        {
          "internalType": "address",
          "name": "to",
          "type": "address"
        },
        {
          "internalType": "uint256",
          "name": "tokenId",
          "type": "uint256"
        }
      ],
      "name": "safeTransferFrom",
      "outputs": [],
      "stateMutability": "nonpayable",
      "type": "function"
    },
    {
      "inputs": [
        {
          "internalType": "address",
          "name": "from",
          "type": "address"
        },
        {
          "internalType": "address",
          "name": "to",
          "type": "address"
        },
        {
          "internalType": "uint256",
          "name": "tokenId",
          "type": "uint256"
        },
        {
          "internalType": "bytes",
          "name": "_data",
          "type": "bytes"
        }
      ],
      "name": "safeTransferFrom",
      "outputs": [],
      "stateMutability": "nonpayable",
      "type": "function"
    },
    {
      "inputs": [
        {
          "internalType": "address",
          "name": "operator",
          "type": "address"
        },
        {
          "internalType": "bool",
          "name": "approved",
          "type": "bool"
        }
      ],
      "name": "setApprovalForAll",
      "outputs": [],
      "stateMutability": "nonpayable",
      "type": "function"
    },
    {
      "inputs": [
        {
          "internalType": "bytes4",
          "name": "interfaceId",
          "type": "bytes4"
        }
      ],
      "name": "supportsInterface",
      "outputs": [
        {
          "internalType": "bool",
          "name": "",
          "type": "bool"
        }
      ],
      "stateMutability": "view",
      "type": "function"
    },
    {
      "inputs": [],
      "name": "symbol",
      "outputs": [
        {
          "internalType": "string",
          "name": "",
          "type": "string"
        }
      ],
      "stateMutability": "view",
      "type": "function"
    },
    {
      "inputs": [
        {
          "internalType": "address",
          "name": "",
          "type": "address"
        },
        {
          "internalType": "uint256",
          "name": "",
          "type": "uint256"
        }
      ],
      "name": "tokenOwners",
      "outputs": [
        {
          "internalType": "uint256",
          "name": "",
          "type": "uint256"
        }
      ],
      "stateMutability": "view",
      "type": "function"
    },
    {
      "inputs": [
        {
          "internalType": "uint256",
          "name": "tokenId",
          "type": "uint256"
        }
      ],
      "name": "tokenURI",
      "outputs": [
        {
          "internalType": "string",
          "name": "",
          "type": "string"
        }
      ],
      "stateMutability": "view",
      "type": "function"
    },
    {
      "inputs": [
        {
          "internalType": "uint256",
          "name": "",
          "type": "uint256"
        }
      ],
      "name": "tokens",
      "outputs": [
        {
          "internalType": "uint256",
          "name": "id",
          "type": "uint256"
        },
        {
          "internalType": "uint256",
          "name": "timestamp",
          "type": "uint256"
        },
        {
          "internalType": "address",
          "name": "owner",
          "type": "address"
        },
        {
          "internalType": "enum UUNFT.TokenLevel",
          "name": "tokenLevel",
          "type": "uint8"
        },
        {
          "internalType": "enum UUNFT.TokenType",
          "name": "tokenType",
          "type": "uint8"
        }
      ],
      "stateMutability": "view",
      "type": "function"
    },
    {
      "inputs": [
        {
          "internalType": "address",
          "name": "from",
          "type": "address"
        },
        {
          "internalType": "address",
          "name": "to",
          "type": "address"
        },
        {
          "internalType": "uint256",
          "name": "tokenId",
          "type": "uint256"
        }
      ],
      "name": "transferFrom",
      "outputs": [],
      "stateMutability": "nonpayable",
      "type": "function"
    },
    {
      "inputs": [
        {
          "internalType": "enum UUNFT.TokenType",
          "name": "_tokenType",
          "type": "uint8"
        }
      ],
      "name": "getMaxLevelOfATokenType",
      "outputs": [],
      "stateMutability": "view",
      "type": "function"
    },
    {
      "inputs": [
        {
          "internalType": "uint256",
          "name": "_tokenId",
          "type": "uint256"
        }
      ],
      "name": "getTokenData",
      "outputs": [
        {
          "components": [
            {
              "internalType": "uint256",
              "name": "id",
              "type": "uint256"
            },
            {
              "internalType": "uint256",
              "name": "timestamp",
              "type": "uint256"
            },
            {
              "internalType": "address",
              "name": "owner",
              "type": "address"
            },
            {
              "internalType": "enum UUNFT.TokenLevel",
              "name": "tokenLevel",
              "type": "uint8"
            },
            {
              "internalType": "enum UUNFT.TokenType",
              "name": "tokenType",
              "type": "uint8"
            }
          ],
          "internalType": "struct UUNFT.TokenMetaData",
          "name": "",
          "type": "tuple"
        }
      ],
      "stateMutability": "view",
      "type": "function"
    },
    {
      "inputs": [
        {
          "internalType": "address",
          "name": "_owner",
          "type": "address"
        }
      ],
      "name": "getTokensOfAnOwner",
      "outputs": [
        {
          "internalType": "uint256[4]",
          "name": "",
          "type": "uint256[4]"
        }
      ],
      "stateMutability": "view",
      "type": "function"
    },
    {
      "inputs": [
        {
          "internalType": "enum UUNFT.TokenType",
          "name": "_tokenType",
          "type": "uint8"
        }
      ],
      "name": "CreateToken",
      "outputs": [],
      "stateMutability": "nonpayable",
      "type": "function"
    },
    {
      "inputs": [
        {
          "internalType": "uint256",
          "name": "_tokenToBeUpgradedId",
          "type": "uint256"
        },
        {
          "internalType": "uint256",
          "name": "_tokenToBeSacrificedId",
          "type": "uint256"
        }
      ],
      "name": "upgradeToken",
      "outputs": [],
      "stateMutability": "nonpayable",
      "type": "function"
    },
    {
      "inputs": [
        {
          "internalType": "uint256",
          "name": "_tokenToBeBurnedId",
          "type": "uint256"
        }
      ],
      "name": "removeTokenById",
      "outputs": [],
      "stateMutability": "nonpayable",
      "type": "function"
    },
    {
      "inputs": [
        {
          "internalType": "uint256",
          "name": "_tokenToBeUpgradedId",
          "type": "uint256"
        },
        {
          "internalType": "uint256",
          "name": "_tokenToBeSacrificedId",
          "type": "uint256"
        },
        {
          "internalType": "enum UUNFT.TokenType",
          "name": "_designatedType",
          "type": "uint8"
        }
      ],
      "name": "mutateToken",
      "outputs": [],
      "stateMutability": "nonpayable",
      "type": "function"
    },
    {
      "inputs": [
        {
          "internalType": "uint256",
          "name": "_tokenToBeDisasabledId",
          "type": "uint256"
        }
      ],
      "name": "Disasamble",
      "outputs": [],
      "stateMutability": "nonpayable",
      "type": "function"
    },
    {
      "inputs": [
        {
          "internalType": "uint256",
          "name": "_tokenToBeDownGraded",
          "type": "uint256"
        }
      ],
      "name": "downgrade",
      "outputs": [],
      "stateMutability": "nonpayable",
      "type": "function"
    },
    {
      "inputs": [
        {
          "internalType": "uint256",
          "name": "_tokenToBeUpdatedId",
          "type": "uint256"
        }
      ],
      "name": "updateToMax",
      "outputs": [],
      "stateMutability": "payable",
      "type": "function"
    },
    {
      "inputs": [
        {
          "internalType": "enum UUNFT.TokenVault",
          "name": "_tokenVault",
          "type": "uint8"
        }
      ],
      "name": "Stake",
      "outputs": [],
      "stateMutability": "nonpayable",
      "type": "function"
    },
    {
      "inputs": [
        {
          "internalType": "enum UUNFT.TokenVault",
          "name": "_currentTokenVault",
          "type": "uint8"
        }
      ],
      "name": "unStake",
      "outputs": [],
      "stateMutability": "nonpayable",
      "type": "function"
    },
    {
      "inputs": [],
      "name": "checkIfTokensAreStaked",
      "outputs": [
        {
          "internalType": "bool",
          "name": "",
          "type": "bool"
        }
      ],
      "stateMutability": "view",
      "type": "function"
    }
  ],
  "bytecode": "0x60806040526001600660146101000a81548167ffffffffffffffff021916908367ffffffffffffffff1602179055503480156200003b57600080fd5b506040518060400160405280600d81526020017f55706772616461626c654e4654000000000000000000000000000000000000008152506040518060400160405280600581526020017f55554e46540000000000000000000000000000000000000000000000000000008152508160009080519060200190620000c092919062000123565b508060019080519060200190620000d992919062000123565b50505033600660006101000a81548173ffffffffffffffffffffffffffffffffffffffff021916908373ffffffffffffffffffffffffffffffffffffffff16021790555062000238565b8280546200013190620001d3565b90600052602060002090601f016020900481019282620001555760008555620001a1565b82601f106200017057805160ff1916838001178555620001a1565b82800160010185558215620001a1579182015b82811115620001a057825182559160200191906001019062000183565b5b509050620001b09190620001b4565b5090565b5b80821115620001cf576000816000905550600101620001b5565b5090565b60006002820490506001821680620001ec57607f821691505b6020821081141562000203576200020262000209565b5b50919050565b7f4e487b7100000000000000000000000000000000000000000000000000000000600052602260045260246000fd5b614b8a80620002486000396000f3fe6080604052600436106101cd5760003560e01c806370a08231116100f7578063a22cb46511610095578063c87b56dd11610064578063c87b56dd146106ad578063caf312b5146106ea578063e8c00e3914610715578063e985e9c51461073e576101cd565b8063a22cb465146105e1578063b09afec11461060a578063b88d4fde14610647578063bc9d3b3b14610670576101cd565b80637b653802116100d15780637b653802146105345780638b5e51d21461055d57806395d89b411461059a5780639b542511146105c5576101cd565b806370a08231146104a55780637229545e146104e2578063734fada81461050b576101cd565b80633cce43301161016f578063481c6a751161013e578063481c6a75146103d35780634f64b2be146103fe57806354b5ae3a1461043f5780636352211e14610468576101cd565b80633cce43301461031b578063420b25681461034457806342842e0e1461036d578063449c79c914610396576101cd565b8063081812fc116101ab578063081812fc14610263578063095ea7b3146102a057806311bcc81e146102c957806323b872dd146102f2576101cd565b806301ffc9a7146101d257806306fdde031461020f57806307fcedd71461023a575b600080fd5b3480156101de57600080fd5b506101f960048036038101906101f491906135f9565b61077b565b6040516102069190614233565b60405180910390f35b34801561021b57600080fd5b5061022461085d565b6040516102319190614269565b60405180910390f35b34801561024657600080fd5b50610261600480360381019061025c919061364b565b6108ef565b005b34801561026f57600080fd5b5061028a6004803603810190610285919061369d565b6109e4565b60405161029791906141b1565b60405180910390f35b3480156102ac57600080fd5b506102c760048036038101906102c291906135bd565b610a69565b005b3480156102d557600080fd5b506102f060048036038101906102eb919061369d565b610b81565b005b3480156102fe57600080fd5b50610319600480360381019061031491906134b7565b610e02565b005b34801561032757600080fd5b50610342600480360381019061033d919061369d565b610e62565b005b34801561035057600080fd5b5061036b6004803603810190610366919061369d565b611155565b005b34801561037957600080fd5b50610394600480360381019061038f91906134b7565b611205565b005b3480156103a257600080fd5b506103bd60048036038101906103b89190613452565b611225565b6040516103ca9190614218565b60405180910390f35b3480156103df57600080fd5b506103e86112af565b6040516103f591906141b1565b60405180910390f35b34801561040a57600080fd5b506104256004803603810190610420919061369d565b6112d5565b604051610436959493929190614581565b60405180910390f35b34801561044b57600080fd5b506104666004803603810190610461919061364b565b611345565b005b34801561047457600080fd5b5061048f600480360381019061048a919061369d565b611678565b60405161049c91906141b1565b60405180910390f35b3480156104b157600080fd5b506104cc60048036038101906104c79190613452565b61172a565b6040516104d99190614566565b60405180910390f35b3480156104ee57600080fd5b50610509600480360381019061050491906136c6565b6117e2565b005b34801561051757600080fd5b50610532600480360381019061052d9190613702565b611ac5565b005b34801561054057600080fd5b5061055b60048036038101906105569190613674565b611eea565b005b34801561056957600080fd5b50610584600480360381019061057f91906135bd565b612078565b6040516105919190614566565b60405180910390f35b3480156105a657600080fd5b506105af6120a0565b6040516105bc9190614269565b60405180910390f35b6105df60048036038101906105da919061369d565b612132565b005b3480156105ed57600080fd5b5061060860048036038101906106039190613581565b61219a565b005b34801561061657600080fd5b50610631600480360381019061062c919061369d565b61231b565b60405161063e919061454b565b60405180910390f35b34801561065357600080fd5b5061066e60048036038101906106699190613506565b6124c0565b005b34801561067c57600080fd5b5061069760048036038101906106929190613452565b612522565b6040516106a4919061424e565b60405180910390f35b3480156106b957600080fd5b506106d460048036038101906106cf919061369d565b612542565b6040516106e19190614269565b60405180910390f35b3480156106f657600080fd5b506106ff6125e9565b60405161070c9190614233565b60405180910390f35b34801561072157600080fd5b5061073c60048036038101906107379190613674565b6126bd565b005b34801561074a57600080fd5b506107656004803603810190610760919061347b565b61294c565b6040516107729190614233565b60405180910390f35b60007f80ac58cd000000000000000000000000000000000000000000000000000000007bffffffffffffffffffffffffffffffffffffffffffffffffffffffff1916827bffffffffffffffffffffffffffffffffffffffffffffffffffffffff1916148061084657507f5b5e139f000000000000000000000000000000000000000000000000000000007bffffffffffffffffffffffffffffffffffffffffffffffffffffffff1916827bffffffffffffffffffffffffffffffffffffffffffffffffffffffff1916145b806108565750610855826129e0565b5b9050919050565b60606000805461086c906148c3565b80601f0160208091040260200160405190810160405280929190818152602001828054610898906148c3565b80156108e55780601f106108ba576101008083540402835291602001916108e5565b820191906000526020600020905b8154815290600101906020018083116108c857829003601f168201915b5050505050905090565b600080600490505b60008111156109df576000600784600181111561093d577f4e487b7100000000000000000000000000000000000000000000000000000000600052602160045260246000fd5b81548110610974577f4e487b7100000000000000000000000000000000000000000000000000000000600052603260045260246000fd5b906000526020600020906010020182600481106109ba577f4e487b7100000000000000000000000000000000000000000000000000000000600052603260045260246000fd5b5050600411156109cc578091506109df565b80806109d790614899565b9150506108f7565b505050565b60006109ef82612a4a565b610a2e576040517f08c379a0000000000000000000000000000000000000000000000000000000008152600401610a259061444b565b60405180910390fd5b6004600083815260200190815260200160002060009054906101000a900473ffffffffffffffffffffffffffffffffffffffff169050919050565b6000610a7482611678565b90508073ffffffffffffffffffffffffffffffffffffffff168373ffffffffffffffffffffffffffffffffffffffff161415610ae5576040517f08c379a0000000000000000000000000000000000000000000000000000000008152600401610adc906144cb565b60405180910390fd5b8073ffffffffffffffffffffffffffffffffffffffff16610b04612ab6565b73ffffffffffffffffffffffffffffffffffffffff161480610b335750610b3281610b2d612ab6565b61294c565b5b610b72576040517f08c379a0000000000000000000000000000000000000000000000000000000008152600401610b69906143cb565b60405180910390fd5b610b7c8383612abe565b505050565b6008600082815260200190815260200160002060020160009054906101000a900473ffffffffffffffffffffffffffffffffffffffff1673ffffffffffffffffffffffffffffffffffffffff163373ffffffffffffffffffffffffffffffffffffffff1614610c25576040517f08c379a0000000000000000000000000000000000000000000000000000000008152600401610c1c9061442b565b60405180910390fd5b60006003811115610c5f577f4e487b7100000000000000000000000000000000000000000000000000000000600052602160045260246000fd5b6008600083815260200190815260200160002060020160149054906101000a900460ff166003811115610cbb577f4e487b7100000000000000000000000000000000000000000000000000000000600052602160045260246000fd5b1415610cfc576040517f08c379a0000000000000000000000000000000000000000000000000000000008152600401610cf39061432b565b60405180910390fd5b60016008600083815260200190815260200160002060020160149054906101000a900460ff166003811115610d5a577f4e487b7100000000000000000000000000000000000000000000000000000000600052602160045260246000fd5b610d64919061472c565b6003811115610d9c577f4e487b7100000000000000000000000000000000000000000000000000000000600052602160045260246000fd5b6008600083815260200190815260200160002060020160146101000a81548160ff02191690836003811115610dfa577f4e487b7100000000000000000000000000000000000000000000000000000000600052602160045260246000fd5b021790555050565b610e13610e0d612ab6565b82612b77565b610e52576040517f08c379a0000000000000000000000000000000000000000000000000000000008152600401610e499061450b565b60405180910390fd5b610e5d838383612c55565b505050565b60005b600960003373ffffffffffffffffffffffffffffffffffffffff1673ffffffffffffffffffffffffffffffffffffffff1681526020019081526020016000205060048110156111515781600960003373ffffffffffffffffffffffffffffffffffffffff1673ffffffffffffffffffffffffffffffffffffffff1681526020019081526020016000208260048110610f26577f4e487b7100000000000000000000000000000000000000000000000000000000600052603260045260246000fd5b0154141561113e57600960003373ffffffffffffffffffffffffffffffffffffffff1673ffffffffffffffffffffffffffffffffffffffff1681526020019081526020016000206001600960003373ffffffffffffffffffffffffffffffffffffffff1673ffffffffffffffffffffffffffffffffffffffff168152602001908152602001600020506004610fbb919061472c565b60048110610ff2577f4e487b7100000000000000000000000000000000000000000000000000000000600052603260045260246000fd5b0154600960003373ffffffffffffffffffffffffffffffffffffffff1673ffffffffffffffffffffffffffffffffffffffff168152602001908152602001600020826004811061106b577f4e487b7100000000000000000000000000000000000000000000000000000000600052603260045260246000fd5b01819055506000600960003373ffffffffffffffffffffffffffffffffffffffff1673ffffffffffffffffffffffffffffffffffffffff1681526020019081526020016000206001600960003373ffffffffffffffffffffffffffffffffffffffff1673ffffffffffffffffffffffffffffffffffffffff1681526020019081526020016000205060046110ff919061472c565b60048110611136577f4e487b7100000000000000000000000000000000000000000000000000000000600052603260045260246000fd5b505050611151565b8080611149906148f5565b915050610e65565b5050565b6008600082815260200190815260200160002060020160009054906101000a900473ffffffffffffffffffffffffffffffffffffffff1673ffffffffffffffffffffffffffffffffffffffff163373ffffffffffffffffffffffffffffffffffffffff16146111f9576040517f08c379a00000000000000000000000000000000000000000000000000000000081526004016111f0906144eb565b60405180910390fd5b61120281610e62565b50565b611220838383604051806020016040528060008152506124c0565b505050565b61122d613280565b600960008373ffffffffffffffffffffffffffffffffffffffff1673ffffffffffffffffffffffffffffffffffffffff1681526020019081526020016000206004806020026040519081016040528092919082600480156112a3576020028201915b81548152602001906001019080831161128f575b50505050509050919050565b600660009054906101000a900473ffffffffffffffffffffffffffffffffffffffff1681565b60086020528060005260406000206000915090508060000154908060010154908060020160009054906101000a900473ffffffffffffffffffffffffffffffffffffffff16908060020160149054906101000a900460ff16908060020160159054906101000a900460ff16905085565b6000600960003373ffffffffffffffffffffffffffffffffffffffff1673ffffffffffffffffffffffffffffffffffffffff1681526020019081526020016000208260018111156113bf577f4e487b7100000000000000000000000000000000000000000000000000000000600052602160045260246000fd5b600481106113f6577f4e487b7100000000000000000000000000000000000000000000000000000000600052603260045260246000fd5b01541415611439576040517f08c379a00000000000000000000000000000000000000000000000000000000081526004016114309061452b565b60405180910390fd5b600660149054906101000a900467ffffffffffffffff1667ffffffffffffffff1660086000600660149054906101000a900467ffffffffffffffff1667ffffffffffffffff168152602001908152602001600020600001819055504260086000600660149054906101000a900467ffffffffffffffff1667ffffffffffffffff168152602001908152602001600020600101819055508060086000600660149054906101000a900467ffffffffffffffff1667ffffffffffffffff16815260200190815260200160002060020160156101000a81548160ff0219169083600181111561154e577f4e487b7100000000000000000000000000000000000000000000000000000000600052602160045260246000fd5b0217905550600660149054906101000a900467ffffffffffffffff1667ffffffffffffffff16600960003373ffffffffffffffffffffffffffffffffffffffff1673ffffffffffffffffffffffffffffffffffffffff1681526020019081526020016000208260018111156115ec577f4e487b7100000000000000000000000000000000000000000000000000000000600052602160045260246000fd5b60048110611623577f4e487b7100000000000000000000000000000000000000000000000000000000600052603260045260246000fd5b01819055506006601481819054906101000a900467ffffffffffffffff168092919061164e9061493e565b91906101000a81548167ffffffffffffffff021916908367ffffffffffffffff1602179055505050565b6000806002600084815260200190815260200160002060009054906101000a900473ffffffffffffffffffffffffffffffffffffffff169050600073ffffffffffffffffffffffffffffffffffffffff168173ffffffffffffffffffffffffffffffffffffffff161415611721576040517f08c379a00000000000000000000000000000000000000000000000000000000081526004016117189061440b565b60405180910390fd5b80915050919050565b60008073ffffffffffffffffffffffffffffffffffffffff168273ffffffffffffffffffffffffffffffffffffffff16141561179b576040517f08c379a0000000000000000000000000000000000000000000000000000000008152600401611792906143eb565b60405180910390fd5b600360008373ffffffffffffffffffffffffffffffffffffffff1673ffffffffffffffffffffffffffffffffffffffff168152602001908152602001600020549050919050565b3373ffffffffffffffffffffffffffffffffffffffff166008600084815260200190815260200160002060020160009054906101000a900473ffffffffffffffffffffffffffffffffffffffff1673ffffffffffffffffffffffffffffffffffffffff161480156118b457503373ffffffffffffffffffffffffffffffffffffffff166008600083815260200190815260200160002060020160009054906101000a900473ffffffffffffffffffffffffffffffffffffffff1673ffffffffffffffffffffffffffffffffffffffff16145b6118f3576040517f08c379a00000000000000000000000000000000000000000000000000000000081526004016118ea906142ab565b60405180910390fd5b6008600082815260200190815260200160002060020160149054906101000a900460ff16600381111561194f577f4e487b7100000000000000000000000000000000000000000000000000000000600052602160045260246000fd5b6008600084815260200190815260200160002060020160149054906101000a900460ff1660038111156119ab577f4e487b7100000000000000000000000000000000000000000000000000000000600052602160045260246000fd5b146119b557600080fd5b6119be81610e62565b60016008600084815260200190815260200160002060020160149054906101000a900460ff166003811115611a1c577f4e487b7100000000000000000000000000000000000000000000000000000000600052602160045260246000fd5b611a2691906146a5565b6003811115611a5e577f4e487b7100000000000000000000000000000000000000000000000000000000600052602160045260246000fd5b6008600084815260200190815260200160002060020160146101000a81548160ff02191690836003811115611abc577f4e487b7100000000000000000000000000000000000000000000000000000000600052602160045260246000fd5b02179055505050565b3373ffffffffffffffffffffffffffffffffffffffff166008600085815260200190815260200160002060020160009054906101000a900473ffffffffffffffffffffffffffffffffffffffff1673ffffffffffffffffffffffffffffffffffffffff16148015611b9757503373ffffffffffffffffffffffffffffffffffffffff166008600084815260200190815260200160002060020160009054906101000a900473ffffffffffffffffffffffffffffffffffffffff1673ffffffffffffffffffffffffffffffffffffffff16145b611bd6576040517f08c379a0000000000000000000000000000000000000000000000000000000008152600401611bcd9061430b565b60405180910390fd5b60016008600084815260200190815260200160002060020160149054906101000a900460ff166003811115611c34577f4e487b7100000000000000000000000000000000000000000000000000000000600052602160045260246000fd5b611c3e919061472c565b6003811115611c76577f4e487b7100000000000000000000000000000000000000000000000000000000600052602160045260246000fd5b6003811115611cae577f4e487b7100000000000000000000000000000000000000000000000000000000600052602160045260246000fd5b6008600085815260200190815260200160002060020160149054906101000a900460ff166003811115611d0a577f4e487b7100000000000000000000000000000000000000000000000000000000600052602160045260246000fd5b6003811115611d42577f4e487b7100000000000000000000000000000000000000000000000000000000600052602160045260246000fd5b6003811115611d7a577f4e487b7100000000000000000000000000000000000000000000000000000000600052602160045260246000fd5b14611d8457600080fd5b6000600960003373ffffffffffffffffffffffffffffffffffffffff1673ffffffffffffffffffffffffffffffffffffffff168152602001908152602001600020826001811115611dfe577f4e487b7100000000000000000000000000000000000000000000000000000000600052602160045260246000fd5b60048110611e35577f4e487b7100000000000000000000000000000000000000000000000000000000600052603260045260246000fd5b01541415611e78576040517f08c379a0000000000000000000000000000000000000000000000000000000008152600401611e6f906142eb565b60405180910390fd5b611e8182610e62565b806008600085815260200190815260200160002060020160156101000a81548160ff02191690836001811115611ee0577f4e487b7100000000000000000000000000000000000000000000000000000000600052602160045260246000fd5b0217905550505050565b806002811115611f23577f4e487b7100000000000000000000000000000000000000000000000000000000600052602160045260246000fd5b600a60003373ffffffffffffffffffffffffffffffffffffffff1673ffffffffffffffffffffffffffffffffffffffff16815260200190815260200160002060009054906101000a900460ff166002811115611fa8577f4e487b7100000000000000000000000000000000000000000000000000000000600052602160045260246000fd5b14611fe8576040517f08c379a0000000000000000000000000000000000000000000000000000000008152600401611fdf9061434b565b60405180910390fd5b80600a60003373ffffffffffffffffffffffffffffffffffffffff1673ffffffffffffffffffffffffffffffffffffffff16815260200190815260200160002060006101000a81548160ff02191690836002811115612070577f4e487b7100000000000000000000000000000000000000000000000000000000600052602160045260246000fd5b021790555050565b6009602052816000526040600020816004811061209457600080fd5b01600091509150505481565b6060600180546120af906148c3565b80601f01602080910402602001604051908101604052809291908181526020018280546120db906148c3565b80156121285780601f106120fd57610100808354040283529160200191612128565b820191906000526020600020905b81548152906001019060200180831161210b57829003601f168201915b5050505050905090565b60036008600083815260200190815260200160002060020160146101000a81548160ff02191690836003811115612192577f4e487b7100000000000000000000000000000000000000000000000000000000600052602160045260246000fd5b021790555050565b6121a2612ab6565b73ffffffffffffffffffffffffffffffffffffffff168273ffffffffffffffffffffffffffffffffffffffff161415612210576040517f08c379a00000000000000000000000000000000000000000000000000000000081526004016122079061438b565b60405180910390fd5b806005600061221d612ab6565b73ffffffffffffffffffffffffffffffffffffffff1673ffffffffffffffffffffffffffffffffffffffff16815260200190815260200160002060008473ffffffffffffffffffffffffffffffffffffffff1673ffffffffffffffffffffffffffffffffffffffff16815260200190815260200160002060006101000a81548160ff0219169083151502179055508173ffffffffffffffffffffffffffffffffffffffff166122ca612ab6565b73ffffffffffffffffffffffffffffffffffffffff167f17307eab39ab6107e8899845ad3d59bd9653f200f220920489ca2b5937696c318360405161230f9190614233565b60405180910390a35050565b6123236132a2565b600860008381526020019081526020016000206040518060a001604052908160008201548152602001600182015481526020016002820160009054906101000a900473ffffffffffffffffffffffffffffffffffffffff1673ffffffffffffffffffffffffffffffffffffffff1673ffffffffffffffffffffffffffffffffffffffff1681526020016002820160149054906101000a900460ff1660038111156123f6577f4e487b7100000000000000000000000000000000000000000000000000000000600052602160045260246000fd5b600381111561242e577f4e487b7100000000000000000000000000000000000000000000000000000000600052602160045260246000fd5b81526020016002820160159054906101000a900460ff16600181111561247d577f4e487b7100000000000000000000000000000000000000000000000000000000600052602160045260246000fd5b60018111156124b5577f4e487b7100000000000000000000000000000000000000000000000000000000600052602160045260246000fd5b815250509050919050565b6124d16124cb612ab6565b83612b77565b612510576040517f08c379a00000000000000000000000000000000000000000000000000000000081526004016125079061450b565b60405180910390fd5b61251c84848484612eb1565b50505050565b600a6020528060005260406000206000915054906101000a900460ff1681565b606061254d82612a4a565b61258c576040517f08c379a0000000000000000000000000000000000000000000000000000000008152600401612583906144ab565b60405180910390fd5b6000612596612f0d565b905060008151116125b657604051806020016040528060008152506125e1565b806125c084612f24565b6040516020016125d192919061418d565b6040516020818303038152906040525b915050919050565b6000806002811115612624577f4e487b7100000000000000000000000000000000000000000000000000000000600052602160045260246000fd5b600a60003373ffffffffffffffffffffffffffffffffffffffff1673ffffffffffffffffffffffffffffffffffffffff16815260200190815260200160002060009054906101000a900460ff1660028111156126a9577f4e487b7100000000000000000000000000000000000000000000000000000000600052602160045260246000fd5b146126b55760006126b8565b60015b905090565b600060028111156126f7577f4e487b7100000000000000000000000000000000000000000000000000000000600052602160045260246000fd5b600a60003373ffffffffffffffffffffffffffffffffffffffff1673ffffffffffffffffffffffffffffffffffffffff16815260200190815260200160002060009054906101000a900460ff16600281111561277c577f4e487b7100000000000000000000000000000000000000000000000000000000600052602160045260246000fd5b14156127bd576040517f08c379a00000000000000000000000000000000000000000000000000000000081526004016127b49061428b565b60405180910390fd5b8060028111156127f6577f4e487b7100000000000000000000000000000000000000000000000000000000600052602160045260246000fd5b600a60003373ffffffffffffffffffffffffffffffffffffffff1673ffffffffffffffffffffffffffffffffffffffff16815260200190815260200160002060009054906101000a900460ff16600281111561287b577f4e487b7100000000000000000000000000000000000000000000000000000000600052602160045260246000fd5b146128bb576040517f08c379a00000000000000000000000000000000000000000000000000000000081526004016128b29061446b565b60405180910390fd5b6000600a60003373ffffffffffffffffffffffffffffffffffffffff1673ffffffffffffffffffffffffffffffffffffffff16815260200190815260200160002060006101000a81548160ff02191690836002811115612944577f4e487b7100000000000000000000000000000000000000000000000000000000600052602160045260246000fd5b021790555050565b6000600560008473ffffffffffffffffffffffffffffffffffffffff1673ffffffffffffffffffffffffffffffffffffffff16815260200190815260200160002060008373ffffffffffffffffffffffffffffffffffffffff1673ffffffffffffffffffffffffffffffffffffffff16815260200190815260200160002060009054906101000a900460ff16905092915050565b60007f01ffc9a7000000000000000000000000000000000000000000000000000000007bffffffffffffffffffffffffffffffffffffffffffffffffffffffff1916827bffffffffffffffffffffffffffffffffffffffffffffffffffffffff1916149050919050565b60008073ffffffffffffffffffffffffffffffffffffffff166002600084815260200190815260200160002060009054906101000a900473ffffffffffffffffffffffffffffffffffffffff1673ffffffffffffffffffffffffffffffffffffffff1614159050919050565b600033905090565b816004600083815260200190815260200160002060006101000a81548173ffffffffffffffffffffffffffffffffffffffff021916908373ffffffffffffffffffffffffffffffffffffffff160217905550808273ffffffffffffffffffffffffffffffffffffffff16612b3183611678565b73ffffffffffffffffffffffffffffffffffffffff167f8c5be1e5ebec7d5bd14f71427d1e84f3dd0314c0f7b2291e5b200ac8c7c3b92560405160405180910390a45050565b6000612b8282612a4a565b612bc1576040517f08c379a0000000000000000000000000000000000000000000000000000000008152600401612bb8906143ab565b60405180910390fd5b6000612bcc83611678565b90508073ffffffffffffffffffffffffffffffffffffffff168473ffffffffffffffffffffffffffffffffffffffff161480612c3b57508373ffffffffffffffffffffffffffffffffffffffff16612c23846109e4565b73ffffffffffffffffffffffffffffffffffffffff16145b80612c4c5750612c4b818561294c565b5b91505092915050565b8273ffffffffffffffffffffffffffffffffffffffff16612c7582611678565b73ffffffffffffffffffffffffffffffffffffffff1614612ccb576040517f08c379a0000000000000000000000000000000000000000000000000000000008152600401612cc29061448b565b60405180910390fd5b600073ffffffffffffffffffffffffffffffffffffffff168273ffffffffffffffffffffffffffffffffffffffff161415612d3b576040517f08c379a0000000000000000000000000000000000000000000000000000000008152600401612d329061436b565b60405180910390fd5b612d468383836130d1565b612d51600082612abe565b6001600360008573ffffffffffffffffffffffffffffffffffffffff1673ffffffffffffffffffffffffffffffffffffffff1681526020019081526020016000206000828254612da1919061472c565b925050819055506001600360008473ffffffffffffffffffffffffffffffffffffffff1673ffffffffffffffffffffffffffffffffffffffff1681526020019081526020016000206000828254612df891906146a5565b92505081905550816002600083815260200190815260200160002060006101000a81548173ffffffffffffffffffffffffffffffffffffffff021916908373ffffffffffffffffffffffffffffffffffffffff160217905550808273ffffffffffffffffffffffffffffffffffffffff168473ffffffffffffffffffffffffffffffffffffffff167fddf252ad1be2c89b69c2b068fc378daa952ba7f163c4a11628f55a4df523b3ef60405160405180910390a4505050565b612ebc848484612c55565b612ec8848484846130d6565b612f07576040517f08c379a0000000000000000000000000000000000000000000000000000000008152600401612efe906142cb565b60405180910390fd5b50505050565b606060405180602001604052806000815250905090565b60606000821415612f6c576040518060400160405280600181526020017f300000000000000000000000000000000000000000000000000000000000000081525090506130cc565b600082905060005b60008214612f9e578080612f87906148f5565b915050600a82612f9791906146fb565b9150612f74565b60008167ffffffffffffffff811115612fe0577f4e487b7100000000000000000000000000000000000000000000000000000000600052604160045260246000fd5b6040519080825280601f01601f1916602001820160405280156130125781602001600182028036833780820191505090505b5090505b600085146130c55760018261302b919061472c565b9150600a8561303a919061496f565b603061304691906146a5565b60f81b818381518110613082577f4e487b7100000000000000000000000000000000000000000000000000000000600052603260045260246000fd5b60200101907effffffffffffffffffffffffffffffffffffffffffffffffffffffffffffff1916908160001a905350600a856130be91906146fb565b9450613016565b8093505050505b919050565b505050565b60006130f78473ffffffffffffffffffffffffffffffffffffffff1661326d565b15613260578373ffffffffffffffffffffffffffffffffffffffff1663150b7a02613120612ab6565b8786866040518563ffffffff1660e01b815260040161314294939291906141cc565b602060405180830381600087803b15801561315c57600080fd5b505af192505050801561318d57506040513d601f19601f8201168201806040525081019061318a9190613622565b60015b613210573d80600081146131bd576040519150601f19603f3d011682016040523d82523d6000602084013e6131c2565b606091505b50600081511415613208576040517f08c379a00000000000000000000000000000000000000000000000000000000081526004016131ff906142cb565b60405180910390fd5b805181602001fd5b63150b7a0260e01b7bffffffffffffffffffffffffffffffffffffffffffffffffffffffff1916817bffffffffffffffffffffffffffffffffffffffffffffffffffffffff191614915050613265565b600190505b949350505050565b600080823b905060008111915050919050565b6040518060800160405280600490602082028036833780820191505090505090565b6040518060a001604052806000815260200160008152602001600073ffffffffffffffffffffffffffffffffffffffff16815260200160006003811115613312577f4e487b7100000000000000000000000000000000000000000000000000000000600052602160045260246000fd5b815260200160006001811115613351577f4e487b7100000000000000000000000000000000000000000000000000000000600052602160045260246000fd5b81525090565b600061336a61336584614605565b6145d4565b90508281526020810184848401111561338257600080fd5b61338d848285614857565b509392505050565b6000813590506133a481614ad8565b92915050565b6000813590506133b981614aef565b92915050565b6000813590506133ce81614b06565b92915050565b6000815190506133e381614b06565b92915050565b600082601f8301126133fa57600080fd5b813561340a848260208601613357565b91505092915050565b60008135905061342281614b1d565b92915050565b60008135905061343781614b2d565b92915050565b60008135905061344c81614b3d565b92915050565b60006020828403121561346457600080fd5b600061347284828501613395565b91505092915050565b6000806040838503121561348e57600080fd5b600061349c85828601613395565b92505060206134ad85828601613395565b9150509250929050565b6000806000606084860312156134cc57600080fd5b60006134da86828701613395565b93505060206134eb86828701613395565b92505060406134fc8682870161343d565b9150509250925092565b6000806000806080858703121561351c57600080fd5b600061352a87828801613395565b945050602061353b87828801613395565b935050604061354c8782880161343d565b925050606085013567ffffffffffffffff81111561356957600080fd5b613575878288016133e9565b91505092959194509250565b6000806040838503121561359457600080fd5b60006135a285828601613395565b92505060206135b3858286016133aa565b9150509250929050565b600080604083850312156135d057600080fd5b60006135de85828601613395565b92505060206135ef8582860161343d565b9150509250929050565b60006020828403121561360b57600080fd5b6000613619848285016133bf565b91505092915050565b60006020828403121561363457600080fd5b6000613642848285016133d4565b91505092915050565b60006020828403121561365d57600080fd5b600061366b84828501613413565b91505092915050565b60006020828403121561368657600080fd5b600061369484828501613428565b91505092915050565b6000602082840312156136af57600080fd5b60006136bd8482850161343d565b91505092915050565b600080604083850312156136d957600080fd5b60006136e78582860161343d565b92505060206136f88582860161343d565b9150509250929050565b60008060006060848603121561371757600080fd5b60006137258682870161343d565b93505060206137368682870161343d565b925050604061374786828701613413565b9150509250925092565b600061375d838361416f565b60208301905092915050565b61377281614760565b82525050565b61378181614760565b82525050565b6137908161463f565b61379a818461466d565b92506137a582614635565b8060005b838110156137d65781516137bd8782613751565b96506137c883614660565b9250506001810190506137a9565b505050505050565b6137e781614772565b82525050565b60006137f88261464a565b6138028185614678565b9350613812818560208601614866565b61381b81614a8b565b840191505092915050565b61382f81614821565b82525050565b61383e81614821565b82525050565b61384d81614833565b82525050565b61385c81614833565b82525050565b61386b81614845565b82525050565b600061387c82614655565b6138868185614689565b9350613896818560208601614866565b61389f81614a8b565b840191505092915050565b60006138b582614655565b6138bf818561469a565b93506138cf818560208601614866565b80840191505092915050565b60006138e8601b83614689565b91507f596f7520646f6e742068617665207374616b656420746f6b656e7300000000006000830152602082019050919050565b6000613928602583614689565b91507f596f7520617265206e6f7420746865206f776e6572206f66207468657365207460008301527f6f6b656e730000000000000000000000000000000000000000000000000000006020830152604082019050919050565b600061398e603283614689565b91507f4552433732313a207472616e7366657220746f206e6f6e20455243373231526560008301527f63656976657220696d706c656d656e74657200000000000000000000000000006020830152604082019050919050565b60006139f4602883614689565b91507f596f752063616e206f6e6c792068617665206f6e65206b696e64206f6620746f60008301527f6b656e20747970650000000000000000000000000000000000000000000000006020830152604082019050919050565b6000613a5a601d83614689565b91507f596f7520646f206e6f74206f776e207468657365203220746f6b656e730000006000830152602082019050919050565b6000613a9a602483614689565b91507f54686520746f6b656e2063616e7420626520646f776e67726164656420616e7960008301527f6d6f7265000000000000000000000000000000000000000000000000000000006020830152604082019050919050565b6000613b00603383614689565b91507f596f752063616e206f6e6c79207374616b6520796f757220746f6b656e73206960008301527f6e20312076616c757420617420612074696d65000000000000000000000000006020830152604082019050919050565b6000613b66602483614689565b91507f4552433732313a207472616e7366657220746f20746865207a65726f2061646460008301527f72657373000000000000000000000000000000000000000000000000000000006020830152604082019050919050565b6000613bcc601983614689565b91507f4552433732313a20617070726f766520746f2063616c6c6572000000000000006000830152602082019050919050565b6000613c0c602c83614689565b91507f4552433732313a206f70657261746f7220717565727920666f72206e6f6e657860008301527f697374656e7420746f6b656e00000000000000000000000000000000000000006020830152604082019050919050565b6000613c72603883614689565b91507f4552433732313a20617070726f76652063616c6c6572206973206e6f74206f7760008301527f6e6572206e6f7220617070726f76656420666f7220616c6c00000000000000006020830152604082019050919050565b6000613cd8602a83614689565b91507f4552433732313a2062616c616e636520717565727920666f7220746865207a6560008301527f726f2061646472657373000000000000000000000000000000000000000000006020830152604082019050919050565b6000613d3e602983614689565b91507f4552433732313a206f776e657220717565727920666f72206e6f6e657869737460008301527f656e7420746f6b656e00000000000000000000000000000000000000000000006020830152604082019050919050565b6000613da4602683614689565b91507f4f6e6c7920746865206f776e65722063616e20646f776e67726164652074686560008301527f20746f6b656e00000000000000000000000000000000000000000000000000006020830152604082019050919050565b6000613e0a602c83614689565b91507f4552433732313a20617070726f76656420717565727920666f72206e6f6e657860008301527f697374656e7420746f6b656e00000000000000000000000000000000000000006020830152604082019050919050565b6000613e70605283614689565b91507f596f752063616e7420756e7374616b652066726f6d206120646966666572656e60008301527f7420746f6b656e207661756c742c20706c6561736520676f206261636b20746f60208301527f207468652063757272656374207661756c7400000000000000000000000000006040830152606082019050919050565b6000613efc602983614689565b91507f4552433732313a207472616e73666572206f6620746f6b656e2074686174206960008301527f73206e6f74206f776e00000000000000000000000000000000000000000000006020830152604082019050919050565b6000613f62602f83614689565b91507f4552433732314d657461646174613a2055524920717565727920666f72206e6f60008301527f6e6578697374656e7420746f6b656e00000000000000000000000000000000006020830152604082019050919050565b6000613fc8602183614689565b91507f4552433732313a20617070726f76616c20746f2063757272656e74206f776e6560008301527f72000000000000000000000000000000000000000000000000000000000000006020830152604082019050919050565b600061402e601f83614689565b91507f4f6e6c7920746865206f776e65722063616e206275726e206120746f6b656e006000830152602082019050919050565b600061406e603183614689565b91507f4552433732313a207472616e736665722063616c6c6572206973206e6f74206f60008301527f776e6572206e6f7220617070726f7665640000000000000000000000000000006020830152604082019050919050565b60006140d4601d83614689565b91507f596f752063616e74206f766572777269746520796f757220746f6b656e0000006000830152602082019050919050565b60a08201600082015161411d600085018261416f565b506020820151614130602085018261416f565b5060408201516141436040850182613769565b5060608201516141566060850182613826565b5060808201516141696080850182613844565b50505050565b61417881614803565b82525050565b61418781614803565b82525050565b600061419982856138aa565b91506141a582846138aa565b91508190509392505050565b60006020820190506141c66000830184613778565b92915050565b60006080820190506141e16000830187613778565b6141ee6020830186613778565b6141fb604083018561417e565b818103606083015261420d81846137ed565b905095945050505050565b600060808201905061422d6000830184613787565b92915050565b600060208201905061424860008301846137de565b92915050565b60006020820190506142636000830184613862565b92915050565b600060208201905081810360008301526142838184613871565b905092915050565b600060208201905081810360008301526142a4816138db565b9050919050565b600060208201905081810360008301526142c48161391b565b9050919050565b600060208201905081810360008301526142e481613981565b9050919050565b60006020820190508181036000830152614304816139e7565b9050919050565b6000602082019050818103600083015261432481613a4d565b9050919050565b6000602082019050818103600083015261434481613a8d565b9050919050565b6000602082019050818103600083015261436481613af3565b9050919050565b6000602082019050818103600083015261438481613b59565b9050919050565b600060208201905081810360008301526143a481613bbf565b9050919050565b600060208201905081810360008301526143c481613bff565b9050919050565b600060208201905081810360008301526143e481613c65565b9050919050565b6000602082019050818103600083015261440481613ccb565b9050919050565b6000602082019050818103600083015261442481613d31565b9050919050565b6000602082019050818103600083015261444481613d97565b9050919050565b6000602082019050818103600083015261446481613dfd565b9050919050565b6000602082019050818103600083015261448481613e63565b9050919050565b600060208201905081810360008301526144a481613eef565b9050919050565b600060208201905081810360008301526144c481613f55565b9050919050565b600060208201905081810360008301526144e481613fbb565b9050919050565b6000602082019050818103600083015261450481614021565b9050919050565b6000602082019050818103600083015261452481614061565b9050919050565b60006020820190508181036000830152614544816140c7565b9050919050565b600060a0820190506145606000830184614107565b92915050565b600060208201905061457b600083018461417e565b92915050565b600060a082019050614596600083018861417e565b6145a3602083018761417e565b6145b06040830186613778565b6145bd6060830185613835565b6145ca6080830184613853565b9695505050505050565b6000604051905081810181811067ffffffffffffffff821117156145fb576145fa614a5c565b5b8060405250919050565b600067ffffffffffffffff8211156146205761461f614a5c565b5b601f19601f8301169050602081019050919050565b6000819050919050565b600060049050919050565b600081519050919050565b600081519050919050565b6000602082019050919050565b600081905092915050565b600082825260208201905092915050565b600082825260208201905092915050565b600081905092915050565b60006146b082614803565b91506146bb83614803565b9250827fffffffffffffffffffffffffffffffffffffffffffffffffffffffffffffffff038211156146f0576146ef6149a0565b5b828201905092915050565b600061470682614803565b915061471183614803565b925082614721576147206149cf565b5b828204905092915050565b600061473782614803565b915061474283614803565b925082821015614755576147546149a0565b5b828203905092915050565b600061476b826147e3565b9050919050565b60008115159050919050565b60007fffffffff0000000000000000000000000000000000000000000000000000000082169050919050565b60008190506147b882614a9c565b919050565b60008190506147cb82614ab0565b919050565b60008190506147de82614ac4565b919050565b600073ffffffffffffffffffffffffffffffffffffffff82169050919050565b6000819050919050565b600067ffffffffffffffff82169050919050565b600061482c826147aa565b9050919050565b600061483e826147bd565b9050919050565b6000614850826147d0565b9050919050565b82818337600083830152505050565b60005b83811015614884578082015181840152602081019050614869565b83811115614893576000848401525b50505050565b60006148a482614803565b915060008214156148b8576148b76149a0565b5b600182039050919050565b600060028204905060018216806148db57607f821691505b602082108114156148ef576148ee614a2d565b5b50919050565b600061490082614803565b91507fffffffffffffffffffffffffffffffffffffffffffffffffffffffffffffffff821415614933576149326149a0565b5b600182019050919050565b60006149498261480d565b915067ffffffffffffffff821415614964576149636149a0565b5b600182019050919050565b600061497a82614803565b915061498583614803565b925082614995576149946149cf565b5b828206905092915050565b7f4e487b7100000000000000000000000000000000000000000000000000000000600052601160045260246000fd5b7f4e487b7100000000000000000000000000000000000000000000000000000000600052601260045260246000fd5b7f4e487b7100000000000000000000000000000000000000000000000000000000600052602160045260246000fd5b7f4e487b7100000000000000000000000000000000000000000000000000000000600052602260045260246000fd5b7f4e487b7100000000000000000000000000000000000000000000000000000000600052604160045260246000fd5b6000601f19601f8301169050919050565b60048110614aad57614aac6149fe565b5b50565b60028110614ac157614ac06149fe565b5b50565b60038110614ad557614ad46149fe565b5b50565b614ae181614760565b8114614aec57600080fd5b50565b614af881614772565b8114614b0357600080fd5b50565b614b0f8161477e565b8114614b1a57600080fd5b50565b60028110614b2a57600080fd5b50565b60038110614b3a57600080fd5b50565b614b4681614803565b8114614b5157600080fd5b5056fea2646970667358221220dbbdf3ed4dd06fe20efcdc592c27d6edd9221e5abf4c4da3f63d954623c4211664736f6c63430008000033",
  "immutableReferences": {},
  "source": "// SPDX-License-Identifier:UNLICENSED \n\npragma solidity 0.8.0;\n\nimport \"@openzeppelin/contracts/token/ERC721/ERC721.sol\";\n\ncontract UUNFT is ERC721(\"UpgradableNFT\",\"UUNFT\") { // also implement Ownalbe \n\n    address public manager;\n    enum TokenType {Fire,Water}\n    enum TokenLevel {LevelZero,LevelOne, LevelTwo, LevelThree}\n    enum TokenVault {NoVault,TokenVaultOne, TokenVaultTwo} // Default NoVault\n    uint64 tokenId = 1; \n    event isUpgradable(string message);\n    event isMutabale(string message);\n    event hasUpgraded(string message);\n    //add events\n    constructor () {\n        manager = msg.sender;\n    }\n    uint[4][4][] someArraYName;\n\n    function getMaxLevelOfATokenType(TokenType _tokenType) public view{\n        uint toptokenLevel  = 0;\n        for(uint i = 4; i > 0; i--) {\n            if(someArraYName[uint(_tokenType)][i].length > 0) {\n                toptokenLevel = i;\n                break;\n            }\n        }\n    }\n   \n\n    mapping(uint => TokenMetaData) public tokens;\n    mapping(address => uint[4]) public tokenOwners;\n    mapping(address => TokenVault) public lockedVaultTokens;\n    //If lockedVaultTokens[msg.sender] == NoVault\n    //lockedVaultTokens[msg.sender] == _tokenVault;\n    //We can only unlock tokens from the current vault, not from other valult;\n    //require lockedVaultTokens[msg.sender] == theVaultTheUserIsCurrenctlyUsing, 'Tokens are loced in valut ' + TokenVault(lockedVaultTokens[msg.sender]);\n\n    //tokenId should be 64 bit\n    /*\n        function findMaxLevelYtpe (TokenType tokenType) return address{\n            enumaret etrhough the values in  amapping\n            uint initalLevel = TokenLevel.LevelZero;\n            for(uint i = 0; i < mapping.length; i+=) {\n                if(mapping[].)\n            }\n        }\n    */\n    //A function to give the possibily of showing a leaderboard/ the height level of a tkoenType\n\n    \n    struct TokenMetaData {\n        uint id;\n        uint timestamp;\n        address owner;\n        TokenLevel tokenLevel;\n        TokenType tokenType;\n        //TokenVault tokenVault;\n    }\n\n    //function getTokenData\n    function getTokenData(uint _tokenId) public view returns (TokenMetaData memory) {\n        return tokens[_tokenId];\n    }\n    //function getTokensOfAnOwner returns uint[]\n    function getTokensOfAnOwner(address _owner) public view returns(uint[4] memory) {\n        return tokenOwners[_owner];\n    }\n\n\n    //IMPORTANT NOTES\n    //Can only have a handluf of tokens, what number do you suggest?\n    //User can only have 1 token type (token type should be unique)\n    //User can only have  4 tokens\n    //An address can only lock his/her tokens in only one vault\n    //And it should be all or nothing locked\n\n    ////10 eth, 10%, 1 0,9 .... When a user wins a game we need to give him some ETH\n    //I suggested that we dont make it hardcode, like always 1 ETH\n    //but E.g. if there is like 10 ETH in a pool, than the winner takes 10% of it,\n    //so in the begining its first 10 ETH, the winner takes 1 ETH, than 9 are left, the\n    //winner takes 0.9 eth etc etc...\n    function CreateToken(TokenType _tokenType) public{//alsow user need to pay ETH in order to create a token\n        require(tokenOwners[msg.sender][uint(_tokenType)] != 0,'You cant overwrite your token'); \n        tokens[tokenId].id = tokenId;\n        tokens[tokenId].timestamp = block.timestamp;\n        tokens[tokenId].tokenType = _tokenType;\n        tokenOwners[msg.sender][uint(_tokenType)] = tokenId; \n        tokenId++;\n    }\n    function upgradeToken(uint _tokenToBeUpgradedId, uint _tokenToBeSacrificedId) public{\n        require(tokens[_tokenToBeUpgradedId].owner == msg.sender && tokens[_tokenToBeSacrificedId].owner == msg.sender,'You are not the owner of these tokens');\n        require(tokens[_tokenToBeUpgradedId].tokenLevel == tokens[_tokenToBeSacrificedId].tokenLevel);\n        //this isnt anymore necessery since all tokenes should be in the same vault\n        //a user cant have 1 token in vault 1 and the other in vault 2\n        // require(tokens[_tokenToBeUpgradedId].tokenVault == tokens[_tokenToBeSacrificedId].tokenVault); \n        removeTokenById(_tokenToBeSacrificedId);\n        tokens[_tokenToBeUpgradedId].tokenLevel =TokenLevel(uint(tokens[_tokenToBeUpgradedId].tokenLevel) + 1);\n        \n    }\n    function removeTokenById(uint _tokenToBeBurnedId) public{\n        for(uint i = 0; i < tokenOwners[msg.sender].length; i++) {\n            if(tokenOwners[msg.sender][i] == _tokenToBeBurnedId) {\n                tokenOwners[msg.sender][i] = tokenOwners[msg.sender][tokenOwners[msg.sender].length-1];\n                tokenOwners[msg.sender][tokenOwners[msg.sender].length-1] == 0;\n                break;\n            }\n        }\n    }\n\n    function mutateToken(uint _tokenToBeUpgradedId, uint _tokenToBeSacrificedId,TokenType _designatedType) public {\n        require(tokens[_tokenToBeUpgradedId].owner == msg.sender && tokens[_tokenToBeSacrificedId].owner ==msg.sender, 'You do not own these 2 tokens');\n        // require(tokens[_tokenToBeUpgradedId].tokenVault == tokens[_tokenToBeSacrificedId].tokenVault); See line 88\n        require(TokenLevel(uint(tokens[_tokenToBeUpgradedId].tokenLevel))==TokenLevel(uint(tokens[_tokenToBeSacrificedId].tokenLevel) -1));\n        require(tokenOwners[msg.sender][uint(_designatedType)] != 0,'You can only have one kind of token type');\n        removeTokenById(_tokenToBeSacrificedId);\n        tokens[_tokenToBeUpgradedId].tokenType = _designatedType;\n    }\n\n        //This should be changed to a modifier and have the requremen statemnt from upgrade token\n//    function isUpgradable(uint _tokenId) public view {\n//        //Check if they are in the same vault and the same level\n//        require(tokens[_tokenId].owner == msg.sender);\n//        //just like the code in the modifier(at least the logic of it)\n//        for(uint i =0; i < tokenOwners[msg.sender].length-1;i++) {\n//            if(tokenOwners[msg.sender][i].tokenLevel == tokens[_tokenId].tokenData[_tokenId]tokenLevel && tokenOwners[msg.sender][i].tokenData[])\n//        }\n      \n//        if(tokens[_tokenId].tokenData[_tokenId].tokenLevel == tokens[_tokenId].tokenData[_tokenId].tokenLevel && tokens[_tokenId].tokenData[_tokenId].tokenVault == tokens[_tokenId].tokenData[_tokenId].tokenVault) {\n//            emit isUpgradable(\"It is upgradable\");\n//        } else {\n//            emit isUpgradable(\"It is not upgradable\")\n//        }\n//    }\n\n     //This should be changed to a modifier and have the requremen statemnt from mutate token\n//    function isMutable(uint _tokenId) view public{\n//        //Check if they are in the same vault and that there is at least 1 token that is below 1 level\n//         require(tokens[_tokenId].owner == msg.sender);\n//         if(tokens[_tokenId].tokenData[_tokenToBeUpgradedId].tokenVault == tokens[_tokenToBeSacrificedId].tokenData[_tokenToBeSacrificedId].tokenVault && TokenLevel(uint(tokens[_tokenToBeUpgradedId].tokenData[_tokenToBeUpgradedId].tokenLevel)) == TokenLevel(uint(tokens[_tokenToBeSacrificedId].tokenData[_tokenToBeSacrificedId].tokenLevel) -1))\n//        //just like the code in the modifier(at least the logic of it)\n//    }\n       function Disasamble(uint _tokenToBeDisasabledId) public {\n           require(msg.sender == tokens[_tokenToBeDisasabledId].owner,'Only the owner can burn a token');\n           removeTokenById(_tokenToBeDisasabledId);\n           //Here we also need to decide how many ether we need to send to the owner that is burning their token\n           //Also we decided to use ETH, that removes the need to create our own erc-20 token\n       }\n//     function Disasamble(uint _tokenToBeDisasabledId)  public{\n//         // require(tokens[_tokenToBeDisasabledId].owner == msg.sender);\n//         //this function needs for an erc 20 token to be impplemented first, since the one who is burning it\n//         //needs to pay a fee, but I believe the logic is gonna be a little like this\n//         //Get Moeny\n//         //Give the token default values and then isCreated become false, so later when we need to check\n//         //if token exiists its gonna return false\n//     }\n\n//function downgrade  we recieve eth, level goes down by 1 if not 0\n        function downgrade(uint _tokenToBeDownGraded) public {\n            require(msg.sender == tokens[_tokenToBeDownGraded].owner,'Only the owner can downgrade the token');\n            require(tokens[_tokenToBeDownGraded].tokenLevel != TokenLevel.LevelZero,'The token cant be downgraded anymore');\n            tokens[_tokenToBeDownGraded].tokenLevel = TokenLevel(uint(tokens[_tokenToBeDownGraded].tokenLevel) - 1);\n            //send some ETH (We need to create a method to calculate how much ether so sent, if you have any idea feel free to share)\n        }\n\n        function updateToMax(uint _tokenToBeUpdatedId) public payable{\n            //pay some amount of ether (value cant be set as hardcode, i think it should be calc. using a function)\n            //require(msg.value == etherSend,'You need to pay x ETH in order to update to max');\n            tokens[_tokenToBeUpdatedId].tokenLevel = TokenLevel.LevelThree; //(need to check if there is a way that gets the last value in a enum, and not\n            //just hardcode it)\n        }\n\n\n        function Stake(TokenVault _tokenVault) public {\n            require(lockedVaultTokens[msg.sender] == _tokenVault,'You can only stake your tokens in 1 valut at a time');\n            lockedVaultTokens[msg.sender] = _tokenVault;\n        }\n\n        function unStake(TokenVault _currentTokenVault) public {\n            require(lockedVaultTokens[msg.sender] != TokenVault.NoVault,'You dont have staked tokens');\n            require(lockedVaultTokens[msg.sender] == _currentTokenVault,'You cant unstake from a different token vault, please go back to the currect vault');\n            lockedVaultTokens[msg.sender] = TokenVault.NoVault;\n        }\n\n        function checkIfTokensAreStaked() public view returns(bool){\n            return lockedVaultTokens[msg.sender] == TokenVault.NoVault ? true: false;\n        }\n}",
  "sourcePath": "/home/bekim/Documents/Projects/Universal Upgradable NFT/contracts/UniversalUpgradableNFT.sol",
  "compiler": {
    "name": "solc",
    "version": "0.8.0+commit.c7dfd78e.Emscripten.clang"
  },
  "schemaVersion": "3.4.1",
  "updatedAt": "2021-10-04T21:06:09.008Z",
  "devdoc": {
    "kind": "dev",
    "methods": {
      "approve(address,uint256)": {
        "details": "See {IERC721-approve}."
      },
      "balanceOf(address)": {
        "details": "See {IERC721-balanceOf}."
      },
      "getApproved(uint256)": {
        "details": "See {IERC721-getApproved}."
      },
      "isApprovedForAll(address,address)": {
        "details": "See {IERC721-isApprovedForAll}."
      },
      "name()": {
        "details": "See {IERC721Metadata-name}."
      },
      "ownerOf(uint256)": {
        "details": "See {IERC721-ownerOf}."
      },
      "safeTransferFrom(address,address,uint256)": {
        "details": "See {IERC721-safeTransferFrom}."
      },
      "safeTransferFrom(address,address,uint256,bytes)": {
        "details": "See {IERC721-safeTransferFrom}."
      },
      "setApprovalForAll(address,bool)": {
        "details": "See {IERC721-setApprovalForAll}."
      },
      "supportsInterface(bytes4)": {
        "details": "See {IERC165-supportsInterface}."
      },
      "symbol()": {
        "details": "See {IERC721Metadata-symbol}."
      },
      "tokenURI(uint256)": {
        "details": "See {IERC721Metadata-tokenURI}."
      },
      "transferFrom(address,address,uint256)": {
        "details": "See {IERC721-transferFrom}."
      }
    },
    "version": 1
  },
  "userdoc": {
    "kind": "user",
    "methods": {},
    "version": 1
  }
}