{
  "contractName": "UUNFT",
  "abi": [
    {
      "inputs": [],
      "stateMutability": "payable",
      "type": "constructor"
    },
    {
      "anonymous": false,
      "inputs": [
        {
          "indexed": true,
          "internalType": "address",
          "name": "owner",
          "type": "address"
        },
        {
          "indexed": true,
          "internalType": "address",
          "name": "approved",
          "type": "address"
        },
        {
          "indexed": true,
          "internalType": "uint256",
          "name": "tokenId",
          "type": "uint256"
        }
      ],
      "name": "Approval",
      "type": "event"
    },
    {
      "anonymous": false,
      "inputs": [
        {
          "indexed": true,
          "internalType": "address",
          "name": "owner",
          "type": "address"
        },
        {
          "indexed": true,
          "internalType": "address",
          "name": "operator",
          "type": "address"
        },
        {
          "indexed": false,
          "internalType": "bool",
          "name": "approved",
          "type": "bool"
        }
      ],
      "name": "ApprovalForAll",
      "type": "event"
    },
    {
      "anonymous": false,
      "inputs": [
        {
          "indexed": false,
          "internalType": "address",
          "name": "",
          "type": "address"
        },
        {
          "indexed": false,
          "internalType": "enum UUNFT.TokenLevel",
          "name": "",
          "type": "uint8"
        },
        {
          "indexed": false,
          "internalType": "enum UUNFT.TokenLevel",
          "name": "",
          "type": "uint8"
        },
        {
          "indexed": false,
          "internalType": "enum UUNFT.TokenType",
          "name": "",
          "type": "uint8"
        },
        {
          "indexed": false,
          "internalType": "enum UUNFT.TokenType",
          "name": "",
          "type": "uint8"
        },
        {
          "indexed": false,
          "internalType": "enum UUNFT.TokenVault",
          "name": "",
          "type": "uint8"
        }
      ],
      "name": "GenericEvent",
      "type": "event"
    },
    {
      "anonymous": false,
      "inputs": [
        {
          "indexed": true,
          "internalType": "address",
          "name": "from",
          "type": "address"
        },
        {
          "indexed": true,
          "internalType": "address",
          "name": "to",
          "type": "address"
        },
        {
          "indexed": true,
          "internalType": "uint256",
          "name": "tokenId",
          "type": "uint256"
        }
      ],
      "name": "Transfer",
      "type": "event"
    },
    {
      "stateMutability": "payable",
      "type": "fallback"
    },
    {
      "inputs": [
        {
          "internalType": "address",
          "name": "to",
          "type": "address"
        },
        {
          "internalType": "uint256",
          "name": "tokenId",
          "type": "uint256"
        }
      ],
      "name": "approve",
      "outputs": [],
      "stateMutability": "nonpayable",
      "type": "function"
    },
    {
      "inputs": [
        {
          "internalType": "address",
          "name": "owner",
          "type": "address"
        }
      ],
      "name": "balanceOf",
      "outputs": [
        {
          "internalType": "uint256",
          "name": "",
          "type": "uint256"
        }
      ],
      "stateMutability": "view",
      "type": "function"
    },
    {
      "inputs": [
        {
          "internalType": "uint256",
          "name": "tokenId",
          "type": "uint256"
        }
      ],
      "name": "getApproved",
      "outputs": [
        {
          "internalType": "address",
          "name": "",
          "type": "address"
        }
      ],
      "stateMutability": "view",
      "type": "function"
    },
    {
      "inputs": [
        {
          "internalType": "address",
          "name": "owner",
          "type": "address"
        },
        {
          "internalType": "address",
          "name": "operator",
          "type": "address"
        }
      ],
      "name": "isApprovedForAll",
      "outputs": [
        {
          "internalType": "bool",
          "name": "",
          "type": "bool"
        }
      ],
      "stateMutability": "view",
      "type": "function"
    },
    {
      "inputs": [
        {
          "internalType": "address",
          "name": "",
          "type": "address"
        }
      ],
      "name": "lockedVaultTokens",
      "outputs": [
        {
          "internalType": "enum UUNFT.TokenVault",
          "name": "",
          "type": "uint8"
        }
      ],
      "stateMutability": "view",
      "type": "function"
    },
    {
      "inputs": [],
      "name": "manager",
      "outputs": [
        {
          "internalType": "address",
          "name": "",
          "type": "address"
        }
      ],
      "stateMutability": "view",
      "type": "function"
    },
    {
      "inputs": [],
      "name": "name",
      "outputs": [
        {
          "internalType": "string",
          "name": "",
          "type": "string"
        }
      ],
      "stateMutability": "view",
      "type": "function"
    },
    {
      "inputs": [
        {
          "internalType": "uint256",
          "name": "tokenId",
          "type": "uint256"
        }
      ],
      "name": "ownerOf",
      "outputs": [
        {
          "internalType": "address",
          "name": "",
          "type": "address"
        }
      ],
      "stateMutability": "view",
      "type": "function"
    },
    {
      "inputs": [
        {
          "internalType": "address",
          "name": "from",
          "type": "address"
        },
        {
          "internalType": "address",
          "name": "to",
          "type": "address"
        },
        {
          "internalType": "uint256",
          "name": "tokenId",
          "type": "uint256"
        }
      ],
      "name": "safeTransferFrom",
      "outputs": [],
      "stateMutability": "nonpayable",
      "type": "function"
    },
    {
      "inputs": [
        {
          "internalType": "address",
          "name": "from",
          "type": "address"
        },
        {
          "internalType": "address",
          "name": "to",
          "type": "address"
        },
        {
          "internalType": "uint256",
          "name": "tokenId",
          "type": "uint256"
        },
        {
          "internalType": "bytes",
          "name": "_data",
          "type": "bytes"
        }
      ],
      "name": "safeTransferFrom",
      "outputs": [],
      "stateMutability": "nonpayable",
      "type": "function"
    },
    {
      "inputs": [
        {
          "internalType": "address",
          "name": "operator",
          "type": "address"
        },
        {
          "internalType": "bool",
          "name": "approved",
          "type": "bool"
        }
      ],
      "name": "setApprovalForAll",
      "outputs": [],
      "stateMutability": "nonpayable",
      "type": "function"
    },
    {
      "inputs": [
        {
          "internalType": "bytes4",
          "name": "interfaceId",
          "type": "bytes4"
        }
      ],
      "name": "supportsInterface",
      "outputs": [
        {
          "internalType": "bool",
          "name": "",
          "type": "bool"
        }
      ],
      "stateMutability": "view",
      "type": "function"
    },
    {
      "inputs": [],
      "name": "symbol",
      "outputs": [
        {
          "internalType": "string",
          "name": "",
          "type": "string"
        }
      ],
      "stateMutability": "view",
      "type": "function"
    },
    {
      "inputs": [
        {
          "internalType": "address",
          "name": "",
          "type": "address"
        },
        {
          "internalType": "uint256",
          "name": "",
          "type": "uint256"
        }
      ],
      "name": "tokenOwners",
      "outputs": [
        {
          "internalType": "uint256",
          "name": "",
          "type": "uint256"
        }
      ],
      "stateMutability": "view",
      "type": "function"
    },
    {
      "inputs": [
        {
          "internalType": "uint256",
          "name": "tokenId",
          "type": "uint256"
        }
      ],
      "name": "tokenURI",
      "outputs": [
        {
          "internalType": "string",
          "name": "",
          "type": "string"
        }
      ],
      "stateMutability": "view",
      "type": "function"
    },
    {
      "inputs": [
        {
          "internalType": "uint256",
          "name": "",
          "type": "uint256"
        }
      ],
      "name": "tokens",
      "outputs": [
        {
          "internalType": "uint256",
          "name": "id",
          "type": "uint256"
        },
        {
          "internalType": "uint256",
          "name": "timestamp",
          "type": "uint256"
        },
        {
          "internalType": "address",
          "name": "owner",
          "type": "address"
        },
        {
          "internalType": "enum UUNFT.TokenLevel",
          "name": "tokenLevel",
          "type": "uint8"
        },
        {
          "internalType": "enum UUNFT.TokenType",
          "name": "tokenType",
          "type": "uint8"
        }
      ],
      "stateMutability": "view",
      "type": "function"
    },
    {
      "inputs": [
        {
          "internalType": "address",
          "name": "from",
          "type": "address"
        },
        {
          "internalType": "address",
          "name": "to",
          "type": "address"
        },
        {
          "internalType": "uint256",
          "name": "tokenId",
          "type": "uint256"
        }
      ],
      "name": "transferFrom",
      "outputs": [],
      "stateMutability": "nonpayable",
      "type": "function"
    },
    {
      "stateMutability": "payable",
      "type": "receive"
    },
    {
      "inputs": [
        {
          "internalType": "uint256",
          "name": "_tokenId",
          "type": "uint256"
        }
      ],
      "name": "getTokenData",
      "outputs": [
        {
          "components": [
            {
              "internalType": "uint256",
              "name": "id",
              "type": "uint256"
            },
            {
              "internalType": "uint256",
              "name": "timestamp",
              "type": "uint256"
            },
            {
              "internalType": "address",
              "name": "owner",
              "type": "address"
            },
            {
              "internalType": "enum UUNFT.TokenLevel",
              "name": "tokenLevel",
              "type": "uint8"
            },
            {
              "internalType": "enum UUNFT.TokenType",
              "name": "tokenType",
              "type": "uint8"
            }
          ],
          "internalType": "struct UUNFT.TokenMetaData",
          "name": "",
          "type": "tuple"
        }
      ],
      "stateMutability": "view",
      "type": "function"
    },
    {
      "inputs": [
        {
          "internalType": "address",
          "name": "_owner",
          "type": "address"
        }
      ],
      "name": "getTokensOfAnOwner",
      "outputs": [
        {
          "internalType": "uint256[4]",
          "name": "",
          "type": "uint256[4]"
        }
      ],
      "stateMutability": "view",
      "type": "function"
    },
    {
      "inputs": [
        {
          "internalType": "enum UUNFT.TokenType",
          "name": "_tokenType",
          "type": "uint8"
        }
      ],
      "name": "CreateToken",
      "outputs": [],
      "stateMutability": "payable",
      "type": "function"
    },
    {
      "inputs": [
        {
          "internalType": "uint256",
          "name": "_tokenToBeUpgradedId",
          "type": "uint256"
        }
      ],
      "name": "upgradeToken",
      "outputs": [],
      "stateMutability": "payable",
      "type": "function"
    },
    {
      "inputs": [
        {
          "internalType": "uint256",
          "name": "_tokenToBeBurnedId",
          "type": "uint256"
        }
      ],
      "name": "removeTokenById",
      "outputs": [],
      "stateMutability": "nonpayable",
      "type": "function"
    },
    {
      "inputs": [],
      "name": "balance",
      "outputs": [
        {
          "internalType": "uint256",
          "name": "",
          "type": "uint256"
        }
      ],
      "stateMutability": "view",
      "type": "function"
    },
    {
      "inputs": [
        {
          "internalType": "address",
          "name": "o",
          "type": "address"
        }
      ],
      "name": "getVault",
      "outputs": [
        {
          "internalType": "enum UUNFT.TokenVault",
          "name": "",
          "type": "uint8"
        }
      ],
      "stateMutability": "view",
      "type": "function"
    },
    {
      "inputs": [
        {
          "internalType": "uint256",
          "name": "_tokenToBeUpgradedId",
          "type": "uint256"
        },
        {
          "internalType": "enum UUNFT.TokenType",
          "name": "_designatedType",
          "type": "uint8"
        }
      ],
      "name": "mutateToken",
      "outputs": [],
      "stateMutability": "payable",
      "type": "function"
    },
    {
      "inputs": [
        {
          "internalType": "address",
          "name": "_winner",
          "type": "address"
        }
      ],
      "name": "giveWinnerProfit",
      "outputs": [],
      "stateMutability": "payable",
      "type": "function"
    },
    {
      "inputs": [
        {
          "internalType": "uint256",
          "name": "_tokenToBeDisasabledId",
          "type": "uint256"
        }
      ],
      "name": "Disasamble",
      "outputs": [],
      "stateMutability": "nonpayable",
      "type": "function"
    },
    {
      "inputs": [
        {
          "internalType": "uint256",
          "name": "_tokenToBeDownGraded",
          "type": "uint256"
        }
      ],
      "name": "downgrade",
      "outputs": [],
      "stateMutability": "payable",
      "type": "function"
    },
    {
      "inputs": [
        {
          "internalType": "uint256",
          "name": "_tokenToBeUpdatedId",
          "type": "uint256"
        }
      ],
      "name": "updateToMax",
      "outputs": [],
      "stateMutability": "payable",
      "type": "function"
    },
    {
      "inputs": [
        {
          "internalType": "enum UUNFT.TokenVault",
          "name": "_tokenVault",
          "type": "uint8"
        }
      ],
      "name": "Stake",
      "outputs": [],
      "stateMutability": "nonpayable",
      "type": "function"
    },
    {
      "inputs": [
        {
          "internalType": "enum UUNFT.TokenVault",
          "name": "_currentTokenVault",
          "type": "uint8"
        }
      ],
      "name": "unStake",
      "outputs": [],
      "stateMutability": "nonpayable",
      "type": "function"
    }
  ],
  "bytecode": "0x60806040526001600660146101000a81548167ffffffffffffffff021916908367ffffffffffffffff1602179055506040518060400160405280600d81526020017f55706772616461626c654e4654000000000000000000000000000000000000008152506040518060400160405280600581526020017f55554e46540000000000000000000000000000000000000000000000000000008152508160009080519060200190620000b292919062000115565b508060019080519060200190620000cb92919062000115565b50505033600660006101000a81548173ffffffffffffffffffffffffffffffffffffffff021916908373ffffffffffffffffffffffffffffffffffffffff1602179055506200022a565b8280546200012390620001c5565b90600052602060002090601f01602090048101928262000147576000855562000193565b82601f106200016257805160ff191683800117855562000193565b8280016001018555821562000193579182015b828111156200019257825182559160200191906001019062000175565b5b509050620001a29190620001a6565b5090565b5b80821115620001c1576000816000905550600101620001a7565b5090565b60006002820490506001821680620001de57607f821691505b60208210811415620001f557620001f4620001fb565b5b50919050565b7f4e487b7100000000000000000000000000000000000000000000000000000000600052602260045260246000fd5b6166a5806200023a6000396000f3fe6080604052600436106101dc5760003560e01c80636352211e11610102578063b69ef8a811610095578063c87b56dd11610064578063c87b56dd146106cb578063d010c3f514610708578063e8c00e3914610724578063e985e9c51461074d576101e3565b8063b69ef8a81461061e578063b88d4fde14610649578063bc9d3b3b14610672578063c287f701146106af576101e3565b806395d89b41116100d157806395d89b41146105715780639b5425111461059c578063a22cb465146105b8578063b09afec1146105e1576101e3565b80636352211e1461049157806370a08231146104ce5780637b6538021461050b5780638b5e51d214610534576101e3565b806332309a781161017a578063449c79c911610149578063449c79c9146103cc578063481c6a75146104095780634f64b2be1461043457806354b5ae3a14610475576101e3565b806332309a78146103355780633cce433014610351578063420b25681461037a57806342842e0e146103a3576101e3565b8063095ea7b3116101b6578063095ea7b31461028a5780630eb9af38146102b357806311bcc81e146102f057806323b872dd1461030c576101e3565b806301ffc9a7146101e557806306fdde0314610222578063081812fc1461024d576101e3565b366101e357005b005b3480156101f157600080fd5b5061020c60048036038101906102079190614f40565b61078a565b6040516102199190615cbe565b60405180910390f35b34801561022e57600080fd5b5061023761086c565b6040516102449190615cf4565b60405180910390f35b34801561025957600080fd5b50610274600480360381019061026f9190614fe4565b6108fe565b6040516102819190615bdb565b60405180910390f35b34801561029657600080fd5b506102b160048036038101906102ac9190614f04565b610983565b005b3480156102bf57600080fd5b506102da60048036038101906102d59190614d99565b610a9b565b6040516102e79190615cd9565b60405180910390f35b61030a60048036038101906103059190614fe4565b610af1565b005b34801561031857600080fd5b50610333600480360381019061032e9190614dfe565b6110bf565b005b61034f600480360381019061034a9190614fe4565b61111f565b005b34801561035d57600080fd5b5061037860048036038101906103739190614fe4565b61156e565b005b34801561038657600080fd5b506103a1600480360381019061039c9190614fe4565b611b60565b005b3480156103af57600080fd5b506103ca60048036038101906103c59190614dfe565b611f66565b005b3480156103d857600080fd5b506103f360048036038101906103ee9190614d99565b611f86565b6040516104009190615ca3565b60405180910390f35b34801561041557600080fd5b5061041e612010565b60405161042b9190615bdb565b60405180910390f35b34801561044057600080fd5b5061045b60048036038101906104569190614fe4565b612036565b60405161046c95949392919061606c565b60405180910390f35b61048f600480360381019061048a9190614f92565b6120a6565b005b34801561049d57600080fd5b506104b860048036038101906104b39190614fe4565b612796565b6040516104c59190615bdb565b60405180910390f35b3480156104da57600080fd5b506104f560048036038101906104f09190614d99565b612848565b6040516105029190616051565b60405180910390f35b34801561051757600080fd5b50610532600480360381019061052d9190614fbb565b612900565b005b34801561054057600080fd5b5061055b60048036038101906105569190614f04565b612d8c565b6040516105689190616051565b60405180910390f35b34801561057d57600080fd5b50610586612db4565b6040516105939190615cf4565b60405180910390f35b6105b660048036038101906105b19190614fe4565b612e46565b005b3480156105c457600080fd5b506105df60048036038101906105da9190614ec8565b6131f7565b005b3480156105ed57600080fd5b5061060860048036038101906106039190614fe4565b613378565b6040516106159190616036565b60405180910390f35b34801561062a57600080fd5b5061063361351d565b6040516106409190616051565b60405180910390f35b34801561065557600080fd5b50610670600480360381019061066b9190614e4d565b613525565b005b34801561067e57600080fd5b5061069960048036038101906106949190614d99565b613587565b6040516106a69190615cd9565b60405180910390f35b6106c960048036038101906106c4919061500d565b6135a7565b005b3480156106d757600080fd5b506106f260048036038101906106ed9190614fe4565b613a4b565b6040516106ff9190615cf4565b60405180910390f35b610722600480360381019061071d9190614d99565b613af2565b005b34801561073057600080fd5b5061074b60048036038101906107469190614fbb565b613bd5565b005b34801561075957600080fd5b50610774600480360381019061076f9190614dc2565b614161565b6040516107819190615cbe565b60405180910390f35b60007f80ac58cd000000000000000000000000000000000000000000000000000000007bffffffffffffffffffffffffffffffffffffffffffffffffffffffff1916827bffffffffffffffffffffffffffffffffffffffffffffffffffffffff1916148061085557507f5b5e139f000000000000000000000000000000000000000000000000000000007bffffffffffffffffffffffffffffffffffffffffffffffffffffffff1916827bffffffffffffffffffffffffffffffffffffffffffffffffffffffff1916145b806108655750610864826141f5565b5b9050919050565b60606000805461087b906163de565b80601f01602080910402602001604051908101604052809291908181526020018280546108a7906163de565b80156108f45780601f106108c9576101008083540402835291602001916108f4565b820191906000526020600020905b8154815290600101906020018083116108d757829003601f168201915b5050505050905090565b60006109098261425f565b610948576040517f08c379a000000000000000000000000000000000000000000000000000000000815260040161093f90615ef6565b60405180910390fd5b6004600083815260200190815260200160002060009054906101000a900473ffffffffffffffffffffffffffffffffffffffff169050919050565b600061098e82612796565b90508073ffffffffffffffffffffffffffffffffffffffff168373ffffffffffffffffffffffffffffffffffffffff1614156109ff576040517f08c379a00000000000000000000000000000000000000000000000000000000081526004016109f690615f76565b60405180910390fd5b8073ffffffffffffffffffffffffffffffffffffffff16610a1e6142cb565b73ffffffffffffffffffffffffffffffffffffffff161480610a4d5750610a4c81610a476142cb565b614161565b5b610a8c576040517f08c379a0000000000000000000000000000000000000000000000000000000008152600401610a8390615e76565b60405180910390fd5b610a9683836142d3565b505050565b6000600960008373ffffffffffffffffffffffffffffffffffffffff1673ffffffffffffffffffffffffffffffffffffffff16815260200190815260200160002060009054906101000a900460ff169050919050565b6007600082815260200190815260200160002060020160009054906101000a900473ffffffffffffffffffffffffffffffffffffffff1673ffffffffffffffffffffffffffffffffffffffff163373ffffffffffffffffffffffffffffffffffffffff1614610b95576040517f08c379a0000000000000000000000000000000000000000000000000000000008152600401610b8c90615ed6565b60405180910390fd5b60006002811115610bcf577f4e487b7100000000000000000000000000000000000000000000000000000000600052602160045260246000fd5b6007600083815260200190815260200160002060020160149054906101000a900460ff166002811115610c2b577f4e487b7100000000000000000000000000000000000000000000000000000000600052602160045260246000fd5b1415610c6c576040517f08c379a0000000000000000000000000000000000000000000000000000000008152600401610c6390615d76565b60405180910390fd5b60016007600083815260200190815260200160002060020160149054906101000a900460ff166002811115610cca577f4e487b7100000000000000000000000000000000000000000000000000000000600052602160045260246000fd5b610cd49190616271565b6002811115610d0c577f4e487b7100000000000000000000000000000000000000000000000000000000600052602160045260246000fd5b6007600083815260200190815260200160002060020160146101000a81548160ff02191690836002811115610d6a577f4e487b7100000000000000000000000000000000000000000000000000000000600052602160045260246000fd5b02179055503373ffffffffffffffffffffffffffffffffffffffff166108fc610d93600561438c565b9081150290604051600060405180830381858888f19350505050158015610dbe573d6000803e3d6000fd5b507f322113d805063fc9d63c203f13c8a2970812c3cab7cfe8cc150ee195493b60dd3360076000600860003373ffffffffffffffffffffffffffffffffffffffff1673ffffffffffffffffffffffffffffffffffffffff168152602001908152602001600020600060048110610e5d577f4e487b7100000000000000000000000000000000000000000000000000000000600052603260045260246000fd5b0154815260200190815260200160002060020160149054906101000a900460ff1660076000600860003373ffffffffffffffffffffffffffffffffffffffff1673ffffffffffffffffffffffffffffffffffffffff168152602001908152602001600020600160048110610efa577f4e487b7100000000000000000000000000000000000000000000000000000000600052603260045260246000fd5b0154815260200190815260200160002060020160149054906101000a900460ff1660076000600860003373ffffffffffffffffffffffffffffffffffffffff1673ffffffffffffffffffffffffffffffffffffffff168152602001908152602001600020600060048110610f97577f4e487b7100000000000000000000000000000000000000000000000000000000600052603260045260246000fd5b0154815260200190815260200160002060020160159054906101000a900460ff1660076000600860003373ffffffffffffffffffffffffffffffffffffffff1673ffffffffffffffffffffffffffffffffffffffff168152602001908152602001600020600160048110611034577f4e487b7100000000000000000000000000000000000000000000000000000000600052603260045260246000fd5b0154815260200190815260200160002060020160159054906101000a900460ff16600960003373ffffffffffffffffffffffffffffffffffffffff1673ffffffffffffffffffffffffffffffffffffffff16815260200190815260200160002060009054906101000a900460ff166040516110b496959493929190615c42565b60405180910390a150565b6110d06110ca6142cb565b826143ad565b61110f576040517f08c379a000000000000000000000000000000000000000000000000000000000815260040161110690615fb6565b60405180910390fd5b61111a83838361448b565b505050565b611129600a61438c565b34101561116b576040517f08c379a000000000000000000000000000000000000000000000000000000000815260040161116290615e56565b60405180910390fd5b60016007600083815260200190815260200160002060020160149054906101000a900460ff1660028111156111c9577f4e487b7100000000000000000000000000000000000000000000000000000000600052602160045260246000fd5b6111d39190616190565b600281111561120b577f4e487b7100000000000000000000000000000000000000000000000000000000600052602160045260246000fd5b6007600083815260200190815260200160002060020160146101000a81548160ff02191690836002811115611269577f4e487b7100000000000000000000000000000000000000000000000000000000600052602160045260246000fd5b02179055507f322113d805063fc9d63c203f13c8a2970812c3cab7cfe8cc150ee195493b60dd3360076000600860003373ffffffffffffffffffffffffffffffffffffffff1673ffffffffffffffffffffffffffffffffffffffff16815260200190815260200160002060006004811061130c577f4e487b7100000000000000000000000000000000000000000000000000000000600052603260045260246000fd5b0154815260200190815260200160002060020160149054906101000a900460ff1660076000600860003373ffffffffffffffffffffffffffffffffffffffff1673ffffffffffffffffffffffffffffffffffffffff1681526020019081526020016000206001600481106113a9577f4e487b7100000000000000000000000000000000000000000000000000000000600052603260045260246000fd5b0154815260200190815260200160002060020160149054906101000a900460ff1660076000600860003373ffffffffffffffffffffffffffffffffffffffff1673ffffffffffffffffffffffffffffffffffffffff168152602001908152602001600020600060048110611446577f4e487b7100000000000000000000000000000000000000000000000000000000600052603260045260246000fd5b0154815260200190815260200160002060020160159054906101000a900460ff1660076000600860003373ffffffffffffffffffffffffffffffffffffffff1673ffffffffffffffffffffffffffffffffffffffff1681526020019081526020016000206001600481106114e3577f4e487b7100000000000000000000000000000000000000000000000000000000600052603260045260246000fd5b0154815260200190815260200160002060020160159054906101000a900460ff16600960003373ffffffffffffffffffffffffffffffffffffffff1673ffffffffffffffffffffffffffffffffffffffff16815260200190815260200160002060009054906101000a900460ff1660405161156396959493929190615c42565b60405180910390a150565b60005b600860003373ffffffffffffffffffffffffffffffffffffffff1673ffffffffffffffffffffffffffffffffffffffff168152602001908152602001600020506004811015611b5c5781600860003373ffffffffffffffffffffffffffffffffffffffff1673ffffffffffffffffffffffffffffffffffffffff1681526020019081526020016000208260048110611632577f4e487b7100000000000000000000000000000000000000000000000000000000600052603260045260246000fd5b01541415611b4957600860003373ffffffffffffffffffffffffffffffffffffffff1673ffffffffffffffffffffffffffffffffffffffff1681526020019081526020016000206001600860003373ffffffffffffffffffffffffffffffffffffffff1673ffffffffffffffffffffffffffffffffffffffff1681526020019081526020016000205060046116c79190616271565b600481106116fe577f4e487b7100000000000000000000000000000000000000000000000000000000600052603260045260246000fd5b0154600860003373ffffffffffffffffffffffffffffffffffffffff1673ffffffffffffffffffffffffffffffffffffffff1681526020019081526020016000208260048110611777577f4e487b7100000000000000000000000000000000000000000000000000000000600052603260045260246000fd5b01819055506000600860003373ffffffffffffffffffffffffffffffffffffffff1673ffffffffffffffffffffffffffffffffffffffff1681526020019081526020016000206001600860003373ffffffffffffffffffffffffffffffffffffffff1673ffffffffffffffffffffffffffffffffffffffff16815260200190815260200160002050600461180b9190616271565b60048110611842577f4e487b7100000000000000000000000000000000000000000000000000000000600052603260045260246000fd5b01819055507f322113d805063fc9d63c203f13c8a2970812c3cab7cfe8cc150ee195493b60dd3360076000600860003373ffffffffffffffffffffffffffffffffffffffff1673ffffffffffffffffffffffffffffffffffffffff1681526020019081526020016000206000600481106118e5577f4e487b7100000000000000000000000000000000000000000000000000000000600052603260045260246000fd5b0154815260200190815260200160002060020160149054906101000a900460ff1660076000600860003373ffffffffffffffffffffffffffffffffffffffff1673ffffffffffffffffffffffffffffffffffffffff168152602001908152602001600020600160048110611982577f4e487b7100000000000000000000000000000000000000000000000000000000600052603260045260246000fd5b0154815260200190815260200160002060020160149054906101000a900460ff1660076000600860003373ffffffffffffffffffffffffffffffffffffffff1673ffffffffffffffffffffffffffffffffffffffff168152602001908152602001600020600060048110611a1f577f4e487b7100000000000000000000000000000000000000000000000000000000600052603260045260246000fd5b0154815260200190815260200160002060020160159054906101000a900460ff1660076000600860003373ffffffffffffffffffffffffffffffffffffffff1673ffffffffffffffffffffffffffffffffffffffff168152602001908152602001600020600160048110611abc577f4e487b7100000000000000000000000000000000000000000000000000000000600052603260045260246000fd5b0154815260200190815260200160002060020160159054906101000a900460ff16600960003373ffffffffffffffffffffffffffffffffffffffff1673ffffffffffffffffffffffffffffffffffffffff16815260200190815260200160002060009054906101000a900460ff16604051611b3c96959493929190615c42565b60405180910390a1611b5c565b8080611b5490616410565b915050611571565b5050565b6007600082815260200190815260200160002060020160009054906101000a900473ffffffffffffffffffffffffffffffffffffffff1673ffffffffffffffffffffffffffffffffffffffff163373ffffffffffffffffffffffffffffffffffffffff1614611c04576040517f08c379a0000000000000000000000000000000000000000000000000000000008152600401611bfb90615f96565b60405180910390fd5b611c0d8161156e565b611c16816146e7565b3373ffffffffffffffffffffffffffffffffffffffff166108fc611c3a600561438c565b9081150290604051600060405180830381858888f19350505050158015611c65573d6000803e3d6000fd5b507f322113d805063fc9d63c203f13c8a2970812c3cab7cfe8cc150ee195493b60dd3360076000600860003373ffffffffffffffffffffffffffffffffffffffff1673ffffffffffffffffffffffffffffffffffffffff168152602001908152602001600020600060048110611d04577f4e487b7100000000000000000000000000000000000000000000000000000000600052603260045260246000fd5b0154815260200190815260200160002060020160149054906101000a900460ff1660076000600860003373ffffffffffffffffffffffffffffffffffffffff1673ffffffffffffffffffffffffffffffffffffffff168152602001908152602001600020600160048110611da1577f4e487b7100000000000000000000000000000000000000000000000000000000600052603260045260246000fd5b0154815260200190815260200160002060020160149054906101000a900460ff1660076000600860003373ffffffffffffffffffffffffffffffffffffffff1673ffffffffffffffffffffffffffffffffffffffff168152602001908152602001600020600060048110611e3e577f4e487b7100000000000000000000000000000000000000000000000000000000600052603260045260246000fd5b0154815260200190815260200160002060020160159054906101000a900460ff1660076000600860003373ffffffffffffffffffffffffffffffffffffffff1673ffffffffffffffffffffffffffffffffffffffff168152602001908152602001600020600160048110611edb577f4e487b7100000000000000000000000000000000000000000000000000000000600052603260045260246000fd5b0154815260200190815260200160002060020160159054906101000a900460ff16600960003373ffffffffffffffffffffffffffffffffffffffff1673ffffffffffffffffffffffffffffffffffffffff16815260200190815260200160002060009054906101000a900460ff16604051611f5b96959493929190615c42565b60405180910390a150565b611f8183838360405180602001604052806000815250613525565b505050565b611f8e614bc7565b600860008373ffffffffffffffffffffffffffffffffffffffff1673ffffffffffffffffffffffffffffffffffffffff168152602001908152602001600020600480602002604051908101604052809291908260048015612004576020028201915b815481526020019060010190808311611ff0575b50505050509050919050565b600660009054906101000a900473ffffffffffffffffffffffffffffffffffffffff1681565b60076020528060005260406000206000915090508060000154908060010154908060020160009054906101000a900473ffffffffffffffffffffffffffffffffffffffff16908060020160149054906101000a900460ff16908060020160159054906101000a900460ff16905085565b6120b0600161438c565b3410156120f2576040517f08c379a00000000000000000000000000000000000000000000000000000000081526004016120e990616016565b60405180910390fd5b6000600860003373ffffffffffffffffffffffffffffffffffffffff1673ffffffffffffffffffffffffffffffffffffffff16815260200190815260200160002082600181111561216c577f4e487b7100000000000000000000000000000000000000000000000000000000600052602160045260246000fd5b600481106121a3577f4e487b7100000000000000000000000000000000000000000000000000000000600052603260045260246000fd5b0154146121e5576040517f08c379a00000000000000000000000000000000000000000000000000000000081526004016121dc90615ff6565b60405180910390fd5b600660149054906101000a900467ffffffffffffffff1667ffffffffffffffff1660076000600660149054906101000a900467ffffffffffffffff1667ffffffffffffffff168152602001908152602001600020600001819055504260076000600660149054906101000a900467ffffffffffffffff1667ffffffffffffffff168152602001908152602001600020600101819055508060076000600660149054906101000a900467ffffffffffffffff1667ffffffffffffffff16815260200190815260200160002060020160156101000a81548160ff021916908360018111156122fa577f4e487b7100000000000000000000000000000000000000000000000000000000600052602160045260246000fd5b02179055503360076000600660149054906101000a900467ffffffffffffffff1667ffffffffffffffff16815260200190815260200160002060020160006101000a81548173ffffffffffffffffffffffffffffffffffffffff021916908373ffffffffffffffffffffffffffffffffffffffff160217905550600660149054906101000a900467ffffffffffffffff1667ffffffffffffffff16600860003373ffffffffffffffffffffffffffffffffffffffff1673ffffffffffffffffffffffffffffffffffffffff16815260200190815260200160002082600181111561240d577f4e487b7100000000000000000000000000000000000000000000000000000000600052602160045260246000fd5b60048110612444577f4e487b7100000000000000000000000000000000000000000000000000000000600052603260045260246000fd5b01819055507f322113d805063fc9d63c203f13c8a2970812c3cab7cfe8cc150ee195493b60dd3360076000600860003373ffffffffffffffffffffffffffffffffffffffff1673ffffffffffffffffffffffffffffffffffffffff1681526020019081526020016000206000600481106124e7577f4e487b7100000000000000000000000000000000000000000000000000000000600052603260045260246000fd5b0154815260200190815260200160002060020160149054906101000a900460ff1660076000600860003373ffffffffffffffffffffffffffffffffffffffff1673ffffffffffffffffffffffffffffffffffffffff168152602001908152602001600020600160048110612584577f4e487b7100000000000000000000000000000000000000000000000000000000600052603260045260246000fd5b0154815260200190815260200160002060020160149054906101000a900460ff1660076000600860003373ffffffffffffffffffffffffffffffffffffffff1673ffffffffffffffffffffffffffffffffffffffff168152602001908152602001600020600060048110612621577f4e487b7100000000000000000000000000000000000000000000000000000000600052603260045260246000fd5b0154815260200190815260200160002060020160159054906101000a900460ff1660076000600860003373ffffffffffffffffffffffffffffffffffffffff1673ffffffffffffffffffffffffffffffffffffffff1681526020019081526020016000206001600481106126be577f4e487b7100000000000000000000000000000000000000000000000000000000600052603260045260246000fd5b0154815260200190815260200160002060020160159054906101000a900460ff16600960003373ffffffffffffffffffffffffffffffffffffffff1673ffffffffffffffffffffffffffffffffffffffff16815260200190815260200160002060009054906101000a900460ff1660405161273e96959493929190615c42565b60405180910390a16006601481819054906101000a900467ffffffffffffffff168092919061276c90616459565b91906101000a81548167ffffffffffffffff021916908367ffffffffffffffff1602179055505050565b6000806002600084815260200190815260200160002060009054906101000a900473ffffffffffffffffffffffffffffffffffffffff169050600073ffffffffffffffffffffffffffffffffffffffff168173ffffffffffffffffffffffffffffffffffffffff16141561283f576040517f08c379a000000000000000000000000000000000000000000000000000000000815260040161283690615eb6565b60405180910390fd5b80915050919050565b60008073ffffffffffffffffffffffffffffffffffffffff168273ffffffffffffffffffffffffffffffffffffffff1614156128b9576040517f08c379a00000000000000000000000000000000000000000000000000000000081526004016128b090615e96565b60405180910390fd5b600360008373ffffffffffffffffffffffffffffffffffffffff1673ffffffffffffffffffffffffffffffffffffffff168152602001908152602001600020549050919050565b6000600281111561293a577f4e487b7100000000000000000000000000000000000000000000000000000000600052602160045260246000fd5b600960003373ffffffffffffffffffffffffffffffffffffffff1673ffffffffffffffffffffffffffffffffffffffff16815260200190815260200160002060009054906101000a900460ff1660028111156129bf577f4e487b7100000000000000000000000000000000000000000000000000000000600052602160045260246000fd5b146129ff576040517f08c379a00000000000000000000000000000000000000000000000000000000081526004016129f690615d96565b60405180910390fd5b80600960003373ffffffffffffffffffffffffffffffffffffffff1673ffffffffffffffffffffffffffffffffffffffff16815260200190815260200160002060006101000a81548160ff02191690836002811115612a87577f4e487b7100000000000000000000000000000000000000000000000000000000600052602160045260246000fd5b02179055507f322113d805063fc9d63c203f13c8a2970812c3cab7cfe8cc150ee195493b60dd3360076000600860003373ffffffffffffffffffffffffffffffffffffffff1673ffffffffffffffffffffffffffffffffffffffff168152602001908152602001600020600060048110612b2a577f4e487b7100000000000000000000000000000000000000000000000000000000600052603260045260246000fd5b0154815260200190815260200160002060020160149054906101000a900460ff1660076000600860003373ffffffffffffffffffffffffffffffffffffffff1673ffffffffffffffffffffffffffffffffffffffff168152602001908152602001600020600160048110612bc7577f4e487b7100000000000000000000000000000000000000000000000000000000600052603260045260246000fd5b0154815260200190815260200160002060020160149054906101000a900460ff1660076000600860003373ffffffffffffffffffffffffffffffffffffffff1673ffffffffffffffffffffffffffffffffffffffff168152602001908152602001600020600060048110612c64577f4e487b7100000000000000000000000000000000000000000000000000000000600052603260045260246000fd5b0154815260200190815260200160002060020160159054906101000a900460ff1660076000600860003373ffffffffffffffffffffffffffffffffffffffff1673ffffffffffffffffffffffffffffffffffffffff168152602001908152602001600020600160048110612d01577f4e487b7100000000000000000000000000000000000000000000000000000000600052603260045260246000fd5b0154815260200190815260200160002060020160159054906101000a900460ff16600960003373ffffffffffffffffffffffffffffffffffffffff1673ffffffffffffffffffffffffffffffffffffffff16815260200190815260200160002060009054906101000a900460ff16604051612d8196959493929190615c42565b60405180910390a150565b60086020528160005260406000208160048110612da857600080fd5b01600091509150505481565b606060018054612dc3906163de565b80601f0160208091040260200160405190810160405280929190818152602001828054612def906163de565b8015612e3c5780601f10612e1157610100808354040283529160200191612e3c565b820191906000526020600020905b815481529060010190602001808311612e1f57829003601f168201915b5050505050905090565b612e50601461438c565b341015612e92576040517f08c379a0000000000000000000000000000000000000000000000000000000008152600401612e8990615e16565b60405180910390fd5b60026007600083815260200190815260200160002060020160146101000a81548160ff02191690836002811115612ef2577f4e487b7100000000000000000000000000000000000000000000000000000000600052602160045260246000fd5b02179055507f322113d805063fc9d63c203f13c8a2970812c3cab7cfe8cc150ee195493b60dd3360076000600860003373ffffffffffffffffffffffffffffffffffffffff1673ffffffffffffffffffffffffffffffffffffffff168152602001908152602001600020600060048110612f95577f4e487b7100000000000000000000000000000000000000000000000000000000600052603260045260246000fd5b0154815260200190815260200160002060020160149054906101000a900460ff1660076000600860003373ffffffffffffffffffffffffffffffffffffffff1673ffffffffffffffffffffffffffffffffffffffff168152602001908152602001600020600160048110613032577f4e487b7100000000000000000000000000000000000000000000000000000000600052603260045260246000fd5b0154815260200190815260200160002060020160149054906101000a900460ff1660076000600860003373ffffffffffffffffffffffffffffffffffffffff1673ffffffffffffffffffffffffffffffffffffffff1681526020019081526020016000206000600481106130cf577f4e487b7100000000000000000000000000000000000000000000000000000000600052603260045260246000fd5b0154815260200190815260200160002060020160159054906101000a900460ff1660076000600860003373ffffffffffffffffffffffffffffffffffffffff1673ffffffffffffffffffffffffffffffffffffffff16815260200190815260200160002060016004811061316c577f4e487b7100000000000000000000000000000000000000000000000000000000600052603260045260246000fd5b0154815260200190815260200160002060020160159054906101000a900460ff16600960003373ffffffffffffffffffffffffffffffffffffffff1673ffffffffffffffffffffffffffffffffffffffff16815260200190815260200160002060009054906101000a900460ff166040516131ec96959493929190615c42565b60405180910390a150565b6131ff6142cb565b73ffffffffffffffffffffffffffffffffffffffff168273ffffffffffffffffffffffffffffffffffffffff16141561326d576040517f08c379a000000000000000000000000000000000000000000000000000000000815260040161326490615dd6565b60405180910390fd5b806005600061327a6142cb565b73ffffffffffffffffffffffffffffffffffffffff1673ffffffffffffffffffffffffffffffffffffffff16815260200190815260200160002060008473ffffffffffffffffffffffffffffffffffffffff1673ffffffffffffffffffffffffffffffffffffffff16815260200190815260200160002060006101000a81548160ff0219169083151502179055508173ffffffffffffffffffffffffffffffffffffffff166133276142cb565b73ffffffffffffffffffffffffffffffffffffffff167f17307eab39ab6107e8899845ad3d59bd9653f200f220920489ca2b5937696c318360405161336c9190615cbe565b60405180910390a35050565b613380614be9565b600760008381526020019081526020016000206040518060a001604052908160008201548152602001600182015481526020016002820160009054906101000a900473ffffffffffffffffffffffffffffffffffffffff1673ffffffffffffffffffffffffffffffffffffffff1673ffffffffffffffffffffffffffffffffffffffff1681526020016002820160149054906101000a900460ff166002811115613453577f4e487b7100000000000000000000000000000000000000000000000000000000600052602160045260246000fd5b600281111561348b577f4e487b7100000000000000000000000000000000000000000000000000000000600052602160045260246000fd5b81526020016002820160159054906101000a900460ff1660018111156134da577f4e487b7100000000000000000000000000000000000000000000000000000000600052602160045260246000fd5b6001811115613512577f4e487b7100000000000000000000000000000000000000000000000000000000600052602160045260246000fd5b815250509050919050565b600047905090565b6135366135306142cb565b836143ad565b613575576040517f08c379a000000000000000000000000000000000000000000000000000000000815260040161356c90615fb6565b60405180910390fd5b613581848484846147f8565b50505050565b60096020528060005260406000206000915054906101000a900460ff1681565b6000600860003373ffffffffffffffffffffffffffffffffffffffff1673ffffffffffffffffffffffffffffffffffffffff168152602001908152602001600020826001811115613621577f4e487b7100000000000000000000000000000000000000000000000000000000600052602160045260246000fd5b60048110613658577f4e487b7100000000000000000000000000000000000000000000000000000000600052603260045260246000fd5b01541461369a576040517f08c379a000000000000000000000000000000000000000000000000000000000815260040161369190615d56565b60405180910390fd5b6136a4600f61438c565b3410156136e6576040517f08c379a00000000000000000000000000000000000000000000000000000000081526004016136dd90615fd6565b60405180910390fd5b806007600084815260200190815260200160002060020160156101000a81548160ff02191690836001811115613745577f4e487b7100000000000000000000000000000000000000000000000000000000600052602160045260246000fd5b02179055507f322113d805063fc9d63c203f13c8a2970812c3cab7cfe8cc150ee195493b60dd3360076000600860003373ffffffffffffffffffffffffffffffffffffffff1673ffffffffffffffffffffffffffffffffffffffff1681526020019081526020016000206000600481106137e8577f4e487b7100000000000000000000000000000000000000000000000000000000600052603260045260246000fd5b0154815260200190815260200160002060020160149054906101000a900460ff1660076000600860003373ffffffffffffffffffffffffffffffffffffffff1673ffffffffffffffffffffffffffffffffffffffff168152602001908152602001600020600160048110613885577f4e487b7100000000000000000000000000000000000000000000000000000000600052603260045260246000fd5b0154815260200190815260200160002060020160149054906101000a900460ff1660076000600860003373ffffffffffffffffffffffffffffffffffffffff1673ffffffffffffffffffffffffffffffffffffffff168152602001908152602001600020600060048110613922577f4e487b7100000000000000000000000000000000000000000000000000000000600052603260045260246000fd5b0154815260200190815260200160002060020160159054906101000a900460ff1660076000600860003373ffffffffffffffffffffffffffffffffffffffff1673ffffffffffffffffffffffffffffffffffffffff1681526020019081526020016000206001600481106139bf577f4e487b7100000000000000000000000000000000000000000000000000000000600052603260045260246000fd5b0154815260200190815260200160002060020160159054906101000a900460ff16600960003373ffffffffffffffffffffffffffffffffffffffff1673ffffffffffffffffffffffffffffffffffffffff16815260200190815260200160002060009054906101000a900460ff16604051613a3f96959493929190615c42565b60405180910390a15050565b6060613a568261425f565b613a95576040517f08c379a0000000000000000000000000000000000000000000000000000000008152600401613a8c90615f56565b60405180910390fd5b6000613a9f614854565b90506000815111613abf5760405180602001604052806000815250613aea565b80613ac98461486b565b604051602001613ada929190615bb7565b6040516020818303038152906040525b915050919050565b600660009054906101000a900473ffffffffffffffffffffffffffffffffffffffff1673ffffffffffffffffffffffffffffffffffffffff163373ffffffffffffffffffffffffffffffffffffffff1614613b82576040517f08c379a0000000000000000000000000000000000000000000000000000000008152600401613b7990615df6565b60405180910390fd5b8073ffffffffffffffffffffffffffffffffffffffff166108fc613ba6600a61438c565b9081150290604051600060405180830381858888f19350505050158015613bd1573d6000803e3d6000fd5b5050565b60006002811115613c0f577f4e487b7100000000000000000000000000000000000000000000000000000000600052602160045260246000fd5b600960003373ffffffffffffffffffffffffffffffffffffffff1673ffffffffffffffffffffffffffffffffffffffff16815260200190815260200160002060009054906101000a900460ff166002811115613c94577f4e487b7100000000000000000000000000000000000000000000000000000000600052602160045260246000fd5b1415613cd5576040517f08c379a0000000000000000000000000000000000000000000000000000000008152600401613ccc90615d16565b60405180910390fd5b806002811115613d0e577f4e487b7100000000000000000000000000000000000000000000000000000000600052602160045260246000fd5b600960003373ffffffffffffffffffffffffffffffffffffffff1673ffffffffffffffffffffffffffffffffffffffff16815260200190815260200160002060009054906101000a900460ff166002811115613d93577f4e487b7100000000000000000000000000000000000000000000000000000000600052602160045260246000fd5b14613dd3576040517f08c379a0000000000000000000000000000000000000000000000000000000008152600401613dca90615f16565b60405180910390fd5b6000600960003373ffffffffffffffffffffffffffffffffffffffff1673ffffffffffffffffffffffffffffffffffffffff16815260200190815260200160002060006101000a81548160ff02191690836002811115613e5c577f4e487b7100000000000000000000000000000000000000000000000000000000600052602160045260246000fd5b02179055507f322113d805063fc9d63c203f13c8a2970812c3cab7cfe8cc150ee195493b60dd3360076000600860003373ffffffffffffffffffffffffffffffffffffffff1673ffffffffffffffffffffffffffffffffffffffff168152602001908152602001600020600060048110613eff577f4e487b7100000000000000000000000000000000000000000000000000000000600052603260045260246000fd5b0154815260200190815260200160002060020160149054906101000a900460ff1660076000600860003373ffffffffffffffffffffffffffffffffffffffff1673ffffffffffffffffffffffffffffffffffffffff168152602001908152602001600020600160048110613f9c577f4e487b7100000000000000000000000000000000000000000000000000000000600052603260045260246000fd5b0154815260200190815260200160002060020160149054906101000a900460ff1660076000600860003373ffffffffffffffffffffffffffffffffffffffff1673ffffffffffffffffffffffffffffffffffffffff168152602001908152602001600020600060048110614039577f4e487b7100000000000000000000000000000000000000000000000000000000600052603260045260246000fd5b0154815260200190815260200160002060020160159054906101000a900460ff1660076000600860003373ffffffffffffffffffffffffffffffffffffffff1673ffffffffffffffffffffffffffffffffffffffff1681526020019081526020016000206001600481106140d6577f4e487b7100000000000000000000000000000000000000000000000000000000600052603260045260246000fd5b0154815260200190815260200160002060020160159054906101000a900460ff16600960003373ffffffffffffffffffffffffffffffffffffffff1673ffffffffffffffffffffffffffffffffffffffff16815260200190815260200160002060009054906101000a900460ff1660405161415696959493929190615c42565b60405180910390a150565b6000600560008473ffffffffffffffffffffffffffffffffffffffff1673ffffffffffffffffffffffffffffffffffffffff16815260200190815260200160002060008373ffffffffffffffffffffffffffffffffffffffff1673ffffffffffffffffffffffffffffffffffffffff16815260200190815260200160002060009054906101000a900460ff16905092915050565b60007f01ffc9a7000000000000000000000000000000000000000000000000000000007bffffffffffffffffffffffffffffffffffffffffffffffffffffffff1916827bffffffffffffffffffffffffffffffffffffffffffffffffffffffff1916149050919050565b60008073ffffffffffffffffffffffffffffffffffffffff166002600084815260200190815260200160002060009054906101000a900473ffffffffffffffffffffffffffffffffffffffff1673ffffffffffffffffffffffffffffffffffffffff1614159050919050565b600033905090565b816004600083815260200190815260200160002060006101000a81548173ffffffffffffffffffffffffffffffffffffffff021916908373ffffffffffffffffffffffffffffffffffffffff160217905550808273ffffffffffffffffffffffffffffffffffffffff1661434683612796565b73ffffffffffffffffffffffffffffffffffffffff167f8c5be1e5ebec7d5bd14f71427d1e84f3dd0314c0f7b2291e5b200ac8c7c3b92560405160405180910390a45050565b60008160644761439c91906161e6565b6143a69190616217565b9050919050565b60006143b88261425f565b6143f7576040517f08c379a00000000000000000000000000000000000000000000000000000000081526004016143ee90615e36565b60405180910390fd5b600061440283612796565b90508073ffffffffffffffffffffffffffffffffffffffff168473ffffffffffffffffffffffffffffffffffffffff16148061447157508373ffffffffffffffffffffffffffffffffffffffff16614459846108fe565b73ffffffffffffffffffffffffffffffffffffffff16145b8061448257506144818185614161565b5b91505092915050565b8273ffffffffffffffffffffffffffffffffffffffff166144ab82612796565b73ffffffffffffffffffffffffffffffffffffffff1614614501576040517f08c379a00000000000000000000000000000000000000000000000000000000081526004016144f890615f36565b60405180910390fd5b600073ffffffffffffffffffffffffffffffffffffffff168273ffffffffffffffffffffffffffffffffffffffff161415614571576040517f08c379a000000000000000000000000000000000000000000000000000000000815260040161456890615db6565b60405180910390fd5b61457c838383614a18565b6145876000826142d3565b6001600360008573ffffffffffffffffffffffffffffffffffffffff1673ffffffffffffffffffffffffffffffffffffffff16815260200190815260200160002060008282546145d79190616271565b925050819055506001600360008473ffffffffffffffffffffffffffffffffffffffff1673ffffffffffffffffffffffffffffffffffffffff168152602001908152602001600020600082825461462e9190616190565b92505081905550816002600083815260200190815260200160002060006101000a81548173ffffffffffffffffffffffffffffffffffffffff021916908373ffffffffffffffffffffffffffffffffffffffff160217905550808273ffffffffffffffffffffffffffffffffffffffff168473ffffffffffffffffffffffffffffffffffffffff167fddf252ad1be2c89b69c2b068fc378daa952ba7f163c4a11628f55a4df523b3ef60405160405180910390a4505050565b60006146f282612796565b905061470081600084614a18565b61470b6000836142d3565b6001600360008373ffffffffffffffffffffffffffffffffffffffff1673ffffffffffffffffffffffffffffffffffffffff168152602001908152602001600020600082825461475b9190616271565b925050819055506002600083815260200190815260200160002060006101000a81549073ffffffffffffffffffffffffffffffffffffffff021916905581600073ffffffffffffffffffffffffffffffffffffffff168273ffffffffffffffffffffffffffffffffffffffff167fddf252ad1be2c89b69c2b068fc378daa952ba7f163c4a11628f55a4df523b3ef60405160405180910390a45050565b61480384848461448b565b61480f84848484614a1d565b61484e576040517f08c379a000000000000000000000000000000000000000000000000000000000815260040161484590615d36565b60405180910390fd5b50505050565b606060405180602001604052806000815250905090565b606060008214156148b3576040518060400160405280600181526020017f30000000000000000000000000000000000000000000000000000000000000008152509050614a13565b600082905060005b600082146148e55780806148ce90616410565b915050600a826148de91906161e6565b91506148bb565b60008167ffffffffffffffff811115614927577f4e487b7100000000000000000000000000000000000000000000000000000000600052604160045260246000fd5b6040519080825280601f01601f1916602001820160405280156149595781602001600182028036833780820191505090505b5090505b60008514614a0c576001826149729190616271565b9150600a85614981919061648a565b603061498d9190616190565b60f81b8183815181106149c9577f4e487b7100000000000000000000000000000000000000000000000000000000600052603260045260246000fd5b60200101907effffffffffffffffffffffffffffffffffffffffffffffffffffffffffffff1916908160001a905350600a85614a0591906161e6565b945061495d565b8093505050505b919050565b505050565b6000614a3e8473ffffffffffffffffffffffffffffffffffffffff16614bb4565b15614ba7578373ffffffffffffffffffffffffffffffffffffffff1663150b7a02614a676142cb565b8786866040518563ffffffff1660e01b8152600401614a899493929190615bf6565b602060405180830381600087803b158015614aa357600080fd5b505af1925050508015614ad457506040513d601f19601f82011682018060405250810190614ad19190614f69565b60015b614b57573d8060008114614b04576040519150601f19603f3d011682016040523d82523d6000602084013e614b09565b606091505b50600081511415614b4f576040517f08c379a0000000000000000000000000000000000000000000000000000000008152600401614b4690615d36565b60405180910390fd5b805181602001fd5b63150b7a0260e01b7bffffffffffffffffffffffffffffffffffffffffffffffffffffffff1916817bffffffffffffffffffffffffffffffffffffffffffffffffffffffff191614915050614bac565b600190505b949350505050565b600080823b905060008111915050919050565b6040518060800160405280600490602082028036833780820191505090505090565b6040518060a001604052806000815260200160008152602001600073ffffffffffffffffffffffffffffffffffffffff16815260200160006002811115614c59577f4e487b7100000000000000000000000000000000000000000000000000000000600052602160045260246000fd5b815260200160006001811115614c98577f4e487b7100000000000000000000000000000000000000000000000000000000600052602160045260246000fd5b81525090565b6000614cb1614cac846160f0565b6160bf565b905082815260208101848484011115614cc957600080fd5b614cd484828561639c565b509392505050565b600081359050614ceb816165f3565b92915050565b600081359050614d008161660a565b92915050565b600081359050614d1581616621565b92915050565b600081519050614d2a81616621565b92915050565b600082601f830112614d4157600080fd5b8135614d51848260208601614c9e565b91505092915050565b600081359050614d6981616638565b92915050565b600081359050614d7e81616648565b92915050565b600081359050614d9381616658565b92915050565b600060208284031215614dab57600080fd5b6000614db984828501614cdc565b91505092915050565b60008060408385031215614dd557600080fd5b6000614de385828601614cdc565b9250506020614df485828601614cdc565b9150509250929050565b600080600060608486031215614e1357600080fd5b6000614e2186828701614cdc565b9350506020614e3286828701614cdc565b9250506040614e4386828701614d84565b9150509250925092565b60008060008060808587031215614e6357600080fd5b6000614e7187828801614cdc565b9450506020614e8287828801614cdc565b9350506040614e9387828801614d84565b925050606085013567ffffffffffffffff811115614eb057600080fd5b614ebc87828801614d30565b91505092959194509250565b60008060408385031215614edb57600080fd5b6000614ee985828601614cdc565b9250506020614efa85828601614cf1565b9150509250929050565b60008060408385031215614f1757600080fd5b6000614f2585828601614cdc565b9250506020614f3685828601614d84565b9150509250929050565b600060208284031215614f5257600080fd5b6000614f6084828501614d06565b91505092915050565b600060208284031215614f7b57600080fd5b6000614f8984828501614d1b565b91505092915050565b600060208284031215614fa457600080fd5b6000614fb284828501614d5a565b91505092915050565b600060208284031215614fcd57600080fd5b6000614fdb84828501614d6f565b91505092915050565b600060208284031215614ff657600080fd5b600061500484828501614d84565b91505092915050565b6000806040838503121561502057600080fd5b600061502e85828601614d84565b925050602061503f85828601614d5a565b9150509250929050565b60006150558383615b99565b60208301905092915050565b61506a816162a5565b82525050565b615079816162a5565b82525050565b6150888161612a565b6150928184616158565b925061509d82616120565b8060005b838110156150ce5781516150b58782615049565b96506150c08361614b565b9250506001810190506150a1565b505050505050565b6150df816162b7565b82525050565b60006150f082616135565b6150fa8185616163565b935061510a8185602086016163ab565b615113816165a6565b840191505092915050565b61512781616366565b82525050565b61513681616366565b82525050565b61514581616378565b82525050565b61515481616378565b82525050565b6151638161638a565b82525050565b600061517482616140565b61517e8185616174565b935061518e8185602086016163ab565b615197816165a6565b840191505092915050565b60006151ad82616140565b6151b78185616185565b93506151c78185602086016163ab565b80840191505092915050565b60006151e0601b83616174565b91507f596f7520646f6e742068617665207374616b656420746f6b656e7300000000006000830152602082019050919050565b6000615220603283616174565b91507f4552433732313a207472616e7366657220746f206e6f6e20455243373231526560008301527f63656976657220696d706c656d656e74657200000000000000000000000000006020830152604082019050919050565b6000615286602883616174565b91507f596f752063616e206f6e6c792068617665206f6e65206b696e64206f6620746f60008301527f6b656e20747970650000000000000000000000000000000000000000000000006020830152604082019050919050565b60006152ec602483616174565b91507f54686520746f6b656e2063616e7420626520646f776e67726164656420616e7960008301527f6d6f7265000000000000000000000000000000000000000000000000000000006020830152604082019050919050565b6000615352603383616174565b91507f596f752063616e206f6e6c79207374616b6520796f757220746f6b656e73206960008301527f6e20312076616c757420617420612074696d65000000000000000000000000006020830152604082019050919050565b60006153b8602483616174565b91507f4552433732313a207472616e7366657220746f20746865207a65726f2061646460008301527f72657373000000000000000000000000000000000000000000000000000000006020830152604082019050919050565b600061541e601983616174565b91507f4552433732313a20617070726f766520746f2063616c6c6572000000000000006000830152602082019050919050565b600061545e602d83616174565b91507f4f6e6c7920746865206d616e616765722063616e206177616b6520746869732060008301527f66756e6374696f6e616c697479000000000000000000000000000000000000006020830152604082019050919050565b60006154c4602b83616174565b91507f596f75206e65656420746f2070617920323025206f662074686520636f6e747260008301527f6163742062616c616e63650000000000000000000000000000000000000000006020830152604082019050919050565b600061552a602c83616174565b91507f4552433732313a206f70657261746f7220717565727920666f72206e6f6e657860008301527f697374656e7420746f6b656e00000000000000000000000000000000000000006020830152604082019050919050565b6000615590602883616174565b91507f596f75206e65656420746f2073656e6420313025206f6620636f6e747261637460008301527f2062616c616e63650000000000000000000000000000000000000000000000006020830152604082019050919050565b60006155f6603883616174565b91507f4552433732313a20617070726f76652063616c6c6572206973206e6f74206f7760008301527f6e6572206e6f7220617070726f76656420666f7220616c6c00000000000000006020830152604082019050919050565b600061565c602a83616174565b91507f4552433732313a2062616c616e636520717565727920666f7220746865207a6560008301527f726f2061646472657373000000000000000000000000000000000000000000006020830152604082019050919050565b60006156c2602983616174565b91507f4552433732313a206f776e657220717565727920666f72206e6f6e657869737460008301527f656e7420746f6b656e00000000000000000000000000000000000000000000006020830152604082019050919050565b6000615728602683616174565b91507f4f6e6c7920746865206f776e65722063616e20646f776e67726164652074686560008301527f20746f6b656e00000000000000000000000000000000000000000000000000006020830152604082019050919050565b600061578e602c83616174565b91507f4552433732313a20617070726f76656420717565727920666f72206e6f6e657860008301527f697374656e7420746f6b656e00000000000000000000000000000000000000006020830152604082019050919050565b60006157f4605283616174565b91507f596f752063616e7420756e7374616b652066726f6d206120646966666572656e60008301527f7420746f6b656e207661756c742c20706c6561736520676f206261636b20746f60208301527f207468652063757272656374207661756c7400000000000000000000000000006040830152606082019050919050565b6000615880602983616174565b91507f4552433732313a207472616e73666572206f6620746f6b656e2074686174206960008301527f73206e6f74206f776e00000000000000000000000000000000000000000000006020830152604082019050919050565b60006158e6602f83616174565b91507f4552433732314d657461646174613a2055524920717565727920666f72206e6f60008301527f6e6578697374656e7420746f6b656e00000000000000000000000000000000006020830152604082019050919050565b600061594c602183616174565b91507f4552433732313a20617070726f76616c20746f2063757272656e74206f776e6560008301527f72000000000000000000000000000000000000000000000000000000000000006020830152604082019050919050565b60006159b2601f83616174565b91507f4f6e6c7920746865206f776e65722063616e206275726e206120746f6b656e006000830152602082019050919050565b60006159f2603183616174565b91507f4552433732313a207472616e736665722063616c6c6572206973206e6f74206f60008301527f776e6572206e6f7220617070726f7665640000000000000000000000000000006020830152604082019050919050565b6000615a58602883616174565b91507f596f75206e65656420746f2073656e6420313525206f6620636f6e747261637460008301527f2062616c616e63650000000000000000000000000000000000000000000000006020830152604082019050919050565b6000615abe601d83616174565b91507f596f752063616e74206f766572777269746520796f757220746f6b656e0000006000830152602082019050919050565b6000615afe601983616174565b91507f596f75206e65656420746f2073656e64206d6f726520455448000000000000006000830152602082019050919050565b60a082016000820151615b476000850182615b99565b506020820151615b5a6020850182615b99565b506040820151615b6d6040850182615061565b506060820151615b80606085018261511e565b506080820151615b93608085018261513c565b50505050565b615ba281616348565b82525050565b615bb181616348565b82525050565b6000615bc382856151a2565b9150615bcf82846151a2565b91508190509392505050565b6000602082019050615bf06000830184615070565b92915050565b6000608082019050615c0b6000830187615070565b615c186020830186615070565b615c256040830185615ba8565b8181036060830152615c3781846150e5565b905095945050505050565b600060c082019050615c576000830189615070565b615c64602083018861512d565b615c71604083018761512d565b615c7e606083018661514b565b615c8b608083018561514b565b615c9860a083018461515a565b979650505050505050565b6000608082019050615cb8600083018461507f565b92915050565b6000602082019050615cd360008301846150d6565b92915050565b6000602082019050615cee600083018461515a565b92915050565b60006020820190508181036000830152615d0e8184615169565b905092915050565b60006020820190508181036000830152615d2f816151d3565b9050919050565b60006020820190508181036000830152615d4f81615213565b9050919050565b60006020820190508181036000830152615d6f81615279565b9050919050565b60006020820190508181036000830152615d8f816152df565b9050919050565b60006020820190508181036000830152615daf81615345565b9050919050565b60006020820190508181036000830152615dcf816153ab565b9050919050565b60006020820190508181036000830152615def81615411565b9050919050565b60006020820190508181036000830152615e0f81615451565b9050919050565b60006020820190508181036000830152615e2f816154b7565b9050919050565b60006020820190508181036000830152615e4f8161551d565b9050919050565b60006020820190508181036000830152615e6f81615583565b9050919050565b60006020820190508181036000830152615e8f816155e9565b9050919050565b60006020820190508181036000830152615eaf8161564f565b9050919050565b60006020820190508181036000830152615ecf816156b5565b9050919050565b60006020820190508181036000830152615eef8161571b565b9050919050565b60006020820190508181036000830152615f0f81615781565b9050919050565b60006020820190508181036000830152615f2f816157e7565b9050919050565b60006020820190508181036000830152615f4f81615873565b9050919050565b60006020820190508181036000830152615f6f816158d9565b9050919050565b60006020820190508181036000830152615f8f8161593f565b9050919050565b60006020820190508181036000830152615faf816159a5565b9050919050565b60006020820190508181036000830152615fcf816159e5565b9050919050565b60006020820190508181036000830152615fef81615a4b565b9050919050565b6000602082019050818103600083015261600f81615ab1565b9050919050565b6000602082019050818103600083015261602f81615af1565b9050919050565b600060a08201905061604b6000830184615b31565b92915050565b60006020820190506160666000830184615ba8565b92915050565b600060a0820190506160816000830188615ba8565b61608e6020830187615ba8565b61609b6040830186615070565b6160a8606083018561512d565b6160b5608083018461514b565b9695505050505050565b6000604051905081810181811067ffffffffffffffff821117156160e6576160e5616577565b5b8060405250919050565b600067ffffffffffffffff82111561610b5761610a616577565b5b601f19601f8301169050602081019050919050565b6000819050919050565b600060049050919050565b600081519050919050565b600081519050919050565b6000602082019050919050565b600081905092915050565b600082825260208201905092915050565b600082825260208201905092915050565b600081905092915050565b600061619b82616348565b91506161a683616348565b9250827fffffffffffffffffffffffffffffffffffffffffffffffffffffffffffffffff038211156161db576161da6164bb565b5b828201905092915050565b60006161f182616348565b91506161fc83616348565b92508261620c5761620b6164ea565b5b828204905092915050565b600061622282616348565b915061622d83616348565b9250817fffffffffffffffffffffffffffffffffffffffffffffffffffffffffffffffff0483118215151615616266576162656164bb565b5b828202905092915050565b600061627c82616348565b915061628783616348565b92508282101561629a576162996164bb565b5b828203905092915050565b60006162b082616328565b9050919050565b60008115159050919050565b60007fffffffff0000000000000000000000000000000000000000000000000000000082169050919050565b60008190506162fd826165b7565b919050565b6000819050616310826165cb565b919050565b6000819050616323826165df565b919050565b600073ffffffffffffffffffffffffffffffffffffffff82169050919050565b6000819050919050565b600067ffffffffffffffff82169050919050565b6000616371826162ef565b9050919050565b600061638382616302565b9050919050565b600061639582616315565b9050919050565b82818337600083830152505050565b60005b838110156163c95780820151818401526020810190506163ae565b838111156163d8576000848401525b50505050565b600060028204905060018216806163f657607f821691505b6020821081141561640a57616409616548565b5b50919050565b600061641b82616348565b91507fffffffffffffffffffffffffffffffffffffffffffffffffffffffffffffffff82141561644e5761644d6164bb565b5b600182019050919050565b600061646482616352565b915067ffffffffffffffff82141561647f5761647e6164bb565b5b600182019050919050565b600061649582616348565b91506164a083616348565b9250826164b0576164af6164ea565b5b828206905092915050565b7f4e487b7100000000000000000000000000000000000000000000000000000000600052601160045260246000fd5b7f4e487b7100000000000000000000000000000000000000000000000000000000600052601260045260246000fd5b7f4e487b7100000000000000000000000000000000000000000000000000000000600052602160045260246000fd5b7f4e487b7100000000000000000000000000000000000000000000000000000000600052602260045260246000fd5b7f4e487b7100000000000000000000000000000000000000000000000000000000600052604160045260246000fd5b6000601f19601f8301169050919050565b600381106165c8576165c7616519565b5b50565b600281106165dc576165db616519565b5b50565b600381106165f0576165ef616519565b5b50565b6165fc816162a5565b811461660757600080fd5b50565b616613816162b7565b811461661e57600080fd5b50565b61662a816162c3565b811461663557600080fd5b50565b6002811061664557600080fd5b50565b6003811061665557600080fd5b50565b61666181616348565b811461666c57600080fd5b5056fea2646970667358221220c815b981d408837f90f53cb184d27a67364d7aecbba7985ecba790b1ab4f07a064736f6c63430008000033",
  "immutableReferences": {},
  "source": "// SPDX-License-Identifier:UNLICENSED \n\n//NOTES\n/*\n    Token should have a name\n    At createToken the !=0 should be ==\n */\n\npragma solidity 0.8.0;\n\nimport \"@openzeppelin/contracts/token/ERC721/ERC721.sol\";\n\ncontract UUNFT is ERC721(\"UpgradableNFT\",\"UUNFT\") { // also implement Ownalbe \n\n    address public manager;\n    enum TokenType {Fire,Water}\n    enum TokenLevel {LevelZero,LevelOne, LevelTwo}\n    enum TokenVault {NoVault,TokenVaultOne, TokenVaultTwo} // Default NoVault\n    uint64 tokenId = 1; \n    //add events\n    constructor () payable{\n        manager = msg.sender;\n    }\n \n\n    mapping(uint => TokenMetaData) public tokens;\n    mapping(address => uint[4]) public tokenOwners;\n    mapping(address => TokenVault) public lockedVaultTokens;\n\n\n    event GenericEvent(address,TokenLevel,TokenLevel,TokenType,TokenType,TokenVault);\n    \n    struct TokenMetaData {\n        uint id;\n        uint timestamp;\n        address owner;\n        TokenLevel tokenLevel;\n        TokenType tokenType;\n    }\n\n    function getTokenData(uint _tokenId) public view returns (TokenMetaData memory) {\n        return tokens[_tokenId];\n    }\n    \n    function getTokensOfAnOwner(address _owner) public view returns(uint[4] memory) {\n        return tokenOwners[_owner];\n    }\n    \n    \n    function CreateToken(TokenType _tokenType) public  payable{//alsow user need to pay ETH in order to create a token\n        require(msg.value >= calculateEtherToSend(1),'You need to send more ETH');\n        require(tokenOwners[msg.sender][uint(_tokenType)] == 0,'You cant overwrite your token'); \n        tokens[tokenId].id = tokenId;\n        tokens[tokenId].timestamp = block.timestamp;\n        tokens[tokenId].tokenType = _tokenType;\n        tokens[tokenId].owner = msg.sender;\n        tokenOwners[msg.sender][uint(_tokenType)] = tokenId; \n        \n        emit GenericEvent(msg.sender,tokens[tokenOwners[msg.sender][0]].tokenLevel,tokens[tokenOwners[msg.sender][1]].tokenLevel,tokens[tokenOwners[msg.sender][0]].tokenType,tokens[tokenOwners[msg.sender][1]].tokenType,lockedVaultTokens[msg.sender]);\n        tokenId++;\n    }\n    function upgradeToken(uint _tokenToBeUpgradedId) public payable{\n        \n       require(msg.value >= calculateEtherToSend(10),'You need to send 10% of contract balance');\n        tokens[_tokenToBeUpgradedId].tokenLevel =TokenLevel(uint(tokens[_tokenToBeUpgradedId].tokenLevel) + 1);\n        emit GenericEvent(msg.sender,tokens[tokenOwners[msg.sender][0]].tokenLevel,tokens[tokenOwners[msg.sender][1]].tokenLevel,tokens[tokenOwners[msg.sender][0]].tokenType,tokens[tokenOwners[msg.sender][1]].tokenType,lockedVaultTokens[msg.sender]);\n        \n        \n    }\n    function removeTokenById(uint _tokenToBeBurnedId) public{\n        for(uint i = 0; i < tokenOwners[msg.sender].length; i++) {\n            if(tokenOwners[msg.sender][i] == _tokenToBeBurnedId) {\n                tokenOwners[msg.sender][i] = tokenOwners[msg.sender][tokenOwners[msg.sender].length-1];\n                tokenOwners[msg.sender][tokenOwners[msg.sender].length-1] = 0;\n                emit GenericEvent(msg.sender,tokens[tokenOwners[msg.sender][0]].tokenLevel,tokens[tokenOwners[msg.sender][1]].tokenLevel,tokens[tokenOwners[msg.sender][0]].tokenType,tokens[tokenOwners[msg.sender][1]].tokenType,lockedVaultTokens[msg.sender]);\n                break;\n            }\n        }\n    }\n    \n    function balance() public view returns(uint){\n        return address(this).balance;\n    }\n    function getVault(address o) public view returns(TokenVault) {\n        return lockedVaultTokens[o];\n    }\n\n    function calculateEtherToSend(uint percentage) internal view returns(uint minAmountToSend) {\n        minAmountToSend = (address(this).balance/100)*percentage; //the minimum amount is 1% of the contract balance\n    }\n    function mutateToken(uint _tokenToBeUpgradedId,TokenType _designatedType) public payable{\n        require(tokenOwners[msg.sender][uint(_designatedType)] == 0,'You can only have one kind of token type');\n        require(msg.value >= calculateEtherToSend(15),'You need to send 15% of contract balance');\n        tokens[_tokenToBeUpgradedId].tokenType = _designatedType;\n        emit GenericEvent(msg.sender,tokens[tokenOwners[msg.sender][0]].tokenLevel,tokens[tokenOwners[msg.sender][1]].tokenLevel,tokens[tokenOwners[msg.sender][0]].tokenType,tokens[tokenOwners[msg.sender][1]].tokenType,lockedVaultTokens[msg.sender]);\n        \n    }\n\n     function giveWinnerProfit(address _winner) public payable {\n         require(msg.sender == manager,'Only the manager can awake this functionality');\n         payable(_winner).transfer(calculateEtherToSend(10));\n         \n     }\n\n     fallback() external payable{}\n     receive() external payable{}\n\n    \n       function Disasamble(uint _tokenToBeDisasabledId) public {\n           require(msg.sender == tokens[_tokenToBeDisasabledId].owner,'Only the owner can burn a token');\n           removeTokenById(_tokenToBeDisasabledId);\n           _burn(_tokenToBeDisasabledId);\n           payable(msg.sender).transfer(calculateEtherToSend(5));\n           emit GenericEvent(msg.sender,tokens[tokenOwners[msg.sender][0]].tokenLevel,tokens[tokenOwners[msg.sender][1]].tokenLevel,tokens[tokenOwners[msg.sender][0]].tokenType,tokens[tokenOwners[msg.sender][1]].tokenType,lockedVaultTokens[msg.sender]);\n        \n       }\n\n        function downgrade(uint _tokenToBeDownGraded) public payable{\n            require(msg.sender == tokens[_tokenToBeDownGraded].owner,'Only the owner can downgrade the token');\n            require(tokens[_tokenToBeDownGraded].tokenLevel != TokenLevel.LevelZero,'The token cant be downgraded anymore');\n            tokens[_tokenToBeDownGraded].tokenLevel = TokenLevel(uint(tokens[_tokenToBeDownGraded].tokenLevel) - 1);\n            payable(msg.sender).transfer(calculateEtherToSend(5));\n           emit GenericEvent(msg.sender,tokens[tokenOwners[msg.sender][0]].tokenLevel,tokens[tokenOwners[msg.sender][1]].tokenLevel,tokens[tokenOwners[msg.sender][0]].tokenType,tokens[tokenOwners[msg.sender][1]].tokenType,lockedVaultTokens[msg.sender]);\n        \n        }\n\n        function updateToMax(uint _tokenToBeUpdatedId) public payable{\n            require(msg.value >= calculateEtherToSend(20),'You need to pay 20% of the contract balance');\n            tokens[_tokenToBeUpdatedId].tokenLevel = TokenLevel.LevelTwo;\n            emit GenericEvent(msg.sender,tokens[tokenOwners[msg.sender][0]].tokenLevel,tokens[tokenOwners[msg.sender][1]].tokenLevel,tokens[tokenOwners[msg.sender][0]].tokenType,tokens[tokenOwners[msg.sender][1]].tokenType,lockedVaultTokens[msg.sender]);\n        \n        }\n\n\n        function Stake(TokenVault _tokenVault) public {\n            require(lockedVaultTokens[msg.sender] == TokenVault.NoVault,'You can only stake your tokens in 1 valut at a time');\n            lockedVaultTokens[msg.sender] = _tokenVault;\n            emit GenericEvent(msg.sender,tokens[tokenOwners[msg.sender][0]].tokenLevel,tokens[tokenOwners[msg.sender][1]].tokenLevel,tokens[tokenOwners[msg.sender][0]].tokenType,tokens[tokenOwners[msg.sender][1]].tokenType,lockedVaultTokens[msg.sender]);\n        \n        }\n\n        function unStake(TokenVault _currentTokenVault) public {\n            require(lockedVaultTokens[msg.sender] != TokenVault.NoVault,'You dont have staked tokens');\n            require(lockedVaultTokens[msg.sender] == _currentTokenVault,'You cant unstake from a different token vault, please go back to the currect vault');\n            lockedVaultTokens[msg.sender] = TokenVault.NoVault;\n            emit GenericEvent(msg.sender,tokens[tokenOwners[msg.sender][0]].tokenLevel,tokens[tokenOwners[msg.sender][1]].tokenLevel,tokens[tokenOwners[msg.sender][0]].tokenType,tokens[tokenOwners[msg.sender][1]].tokenType,lockedVaultTokens[msg.sender]);\n        \n        }\n        \n      \n}",
  "sourcePath": "/home/bekim/Documents/Projects/Universal Upgradable NFT/contracts/UniversalUpgradableNFT.sol",
  "compiler": {
    "name": "solc",
    "version": "0.8.0+commit.c7dfd78e.Emscripten.clang"
  },
  "schemaVersion": "3.4.1",
  "updatedAt": "2021-10-11T17:27:00.813Z",
  "devdoc": {
    "kind": "dev",
    "methods": {
      "approve(address,uint256)": {
        "details": "See {IERC721-approve}."
      },
      "balanceOf(address)": {
        "details": "See {IERC721-balanceOf}."
      },
      "getApproved(uint256)": {
        "details": "See {IERC721-getApproved}."
      },
      "isApprovedForAll(address,address)": {
        "details": "See {IERC721-isApprovedForAll}."
      },
      "name()": {
        "details": "See {IERC721Metadata-name}."
      },
      "ownerOf(uint256)": {
        "details": "See {IERC721-ownerOf}."
      },
      "safeTransferFrom(address,address,uint256)": {
        "details": "See {IERC721-safeTransferFrom}."
      },
      "safeTransferFrom(address,address,uint256,bytes)": {
        "details": "See {IERC721-safeTransferFrom}."
      },
      "setApprovalForAll(address,bool)": {
        "details": "See {IERC721-setApprovalForAll}."
      },
      "supportsInterface(bytes4)": {
        "details": "See {IERC165-supportsInterface}."
      },
      "symbol()": {
        "details": "See {IERC721Metadata-symbol}."
      },
      "tokenURI(uint256)": {
        "details": "See {IERC721Metadata-tokenURI}."
      },
      "transferFrom(address,address,uint256)": {
        "details": "See {IERC721-transferFrom}."
      }
    },
    "version": 1
  },
  "userdoc": {
    "kind": "user",
    "methods": {},
    "version": 1
  }
}